{
  "contractName": "TestingUtilities",
  "abi": [
    {
      "anonymous": false,
      "inputs": [
        {
          "indexed": false,
          "name": "a",
          "type": "uint256"
        }
      ],
      "name": "PreIPosle",
      "type": "event"
    },
    {
      "constant": true,
      "inputs": [
        {
          "name": "message",
          "type": "bytes32"
        },
        {
          "name": "signature",
          "type": "bytes"
        }
      ],
      "name": "ecrecovery",
      "outputs": [
        {
          "name": "",
          "type": "address"
        }
      ],
      "payable": false,
      "stateMutability": "pure",
      "type": "function"
    },
    {
      "constant": true,
      "inputs": [
        {
          "name": "holderIdentity0",
          "type": "address"
        },
        {
          "name": "holderIdentity1",
          "type": "address"
        },
        {
          "name": "holderIdentity2",
          "type": "address"
        },
        {
          "name": "shift",
          "type": "uint256"
        }
      ],
      "name": "getSolution",
      "outputs": [
        {
          "name": "",
          "type": "bytes32"
        }
      ],
      "payable": false,
      "stateMutability": "pure",
      "type": "function"
    },
    {
      "constant": true,
      "inputs": [
        {
          "name": "a",
          "type": "bytes32"
        },
        {
          "name": "b",
          "type": "address"
        }
      ],
      "name": "keccakBytesAddress",
      "outputs": [
        {
          "name": "",
          "type": "bytes32"
        }
      ],
      "payable": false,
      "stateMutability": "pure",
      "type": "function"
    },
    {
      "constant": true,
      "inputs": [
        {
          "name": "a",
          "type": "address"
        },
        {
          "name": "b",
          "type": "address"
        },
        {
          "name": "c",
          "type": "address"
        }
      ],
      "name": "keccakAddressAddressAddress",
      "outputs": [
        {
          "name": "",
          "type": "bytes32"
        }
      ],
      "payable": false,
      "stateMutability": "pure",
      "type": "function"
    },
    {
      "constant": true,
      "inputs": [
        {
          "name": "a",
          "type": "bytes32"
        },
        {
          "name": "b",
          "type": "bytes32"
        },
        {
          "name": "c",
          "type": "bytes32"
        }
      ],
      "name": "keccakBytesBytesBytes",
      "outputs": [
        {
          "name": "",
          "type": "bytes32"
        }
      ],
      "payable": false,
      "stateMutability": "pure",
      "type": "function"
    },
    {
      "constant": true,
      "inputs": [
        {
          "name": "a",
          "type": "bytes32"
        },
        {
          "name": "b",
          "type": "bytes32"
        }
      ],
      "name": "keccakBytesBytes",
      "outputs": [
        {
          "name": "",
          "type": "bytes32"
        }
      ],
      "payable": false,
      "stateMutability": "pure",
      "type": "function"
    },
    {
      "constant": true,
      "inputs": [
        {
          "name": "_index",
          "type": "uint256"
        },
        {
          "name": "key",
          "type": "bytes32"
        },
        {
          "name": "_ciphertext",
          "type": "bytes32"
        }
      ],
      "name": "decryptCiphertext",
      "outputs": [
        {
          "name": "",
          "type": "bytes32"
        }
      ],
      "payable": false,
      "stateMutability": "pure",
      "type": "function"
    },
    {
      "constant": true,
      "inputs": [
        {
          "name": "a",
          "type": "address"
        }
      ],
      "name": "keccakAddress",
      "outputs": [
        {
          "name": "",
          "type": "bytes32"
        }
      ],
      "payable": false,
      "stateMutability": "pure",
      "type": "function"
    },
    {
      "constant": true,
      "inputs": [
        {
          "name": "a",
          "type": "bytes32"
        },
        {
          "name": "b",
          "type": "bytes32"
        }
      ],
      "name": "keccak2hashes",
      "outputs": [
        {
          "name": "",
          "type": "bytes32"
        }
      ],
      "payable": false,
      "stateMutability": "pure",
      "type": "function"
    },
    {
      "constant": true,
      "inputs": [
        {
          "name": "a",
          "type": "string"
        }
      ],
      "name": "keccakString",
      "outputs": [
        {
          "name": "",
          "type": "bytes32"
        }
      ],
      "payable": false,
      "stateMutability": "pure",
      "type": "function"
    },
    {
      "constant": true,
      "inputs": [
        {
          "name": "a",
          "type": "bytes32"
        },
        {
          "name": "b",
          "type": "uint256"
        }
      ],
      "name": "keccakIndex",
      "outputs": [
        {
          "name": "",
          "type": "bytes32"
        }
      ],
      "payable": false,
      "stateMutability": "pure",
      "type": "function"
    },
    {
      "constant": true,
      "inputs": [],
      "name": "keccakSender",
      "outputs": [
        {
          "name": "",
          "type": "bytes32"
        }
      ],
      "payable": false,
      "stateMutability": "view",
      "type": "function"
    },
    {
      "constant": true,
      "inputs": [
        {
          "name": "adr",
          "type": "address"
        },
        {
          "name": "byt",
          "type": "bytes32"
        }
      ],
      "name": "keccakAddressBytes",
      "outputs": [
        {
          "name": "",
          "type": "bytes32"
        }
      ],
      "payable": false,
      "stateMutability": "pure",
      "type": "function"
    },
    {
      "constant": true,
      "inputs": [
        {
          "name": "adr",
          "type": "address"
        },
        {
          "name": "nod_id",
          "type": "bytes32"
        },
        {
          "name": "data_id",
          "type": "uint256"
        }
      ],
      "name": "keccakOffer",
      "outputs": [
        {
          "name": "",
          "type": "bytes32"
        }
      ],
      "payable": false,
      "stateMutability": "pure",
      "type": "function"
    },
    {
      "constant": true,
      "inputs": [],
      "name": "getBlockTimestamp",
      "outputs": [
        {
          "name": "",
          "type": "uint256"
        }
      ],
      "payable": false,
      "stateMutability": "view",
      "type": "function"
    },
    {
      "constant": true,
      "inputs": [],
      "name": "getBlockNumber",
      "outputs": [
        {
          "name": "",
          "type": "uint256"
        }
      ],
      "payable": false,
      "stateMutability": "view",
      "type": "function"
    },
    {
      "constant": true,
      "inputs": [
        {
          "name": "byt1",
          "type": "bytes32"
        },
        {
          "name": "byt2",
          "type": "bytes32"
        }
      ],
      "name": "xorBytes",
      "outputs": [
        {
          "name": "",
          "type": "bytes32"
        }
      ],
      "payable": false,
      "stateMutability": "pure",
      "type": "function"
    },
    {
      "constant": false,
      "inputs": [],
      "name": "moveTheBlock",
      "outputs": [],
      "payable": false,
      "stateMutability": "nonpayable",
      "type": "function"
    },
    {
      "constant": true,
      "inputs": [
        {
          "name": "offer_hash",
          "type": "bytes32"
        },
        {
          "name": "DH_wallet",
          "type": "address"
        },
        {
          "name": "DH_node_id",
          "type": "bytes32"
        }
      ],
      "name": "escrowHash",
      "outputs": [
        {
          "name": "",
          "type": "bytes32"
        }
      ],
      "payable": false,
      "stateMutability": "pure",
      "type": "function"
    },
    {
      "constant": true,
      "inputs": [],
      "name": "getInternalData",
      "outputs": [
        {
          "name": "",
          "type": "bool"
        }
      ],
      "payable": false,
      "stateMutability": "view",
      "type": "function"
    },
    {
      "constant": false,
      "inputs": [],
      "name": "error",
      "outputs": [],
      "payable": false,
      "stateMutability": "nonpayable",
      "type": "function"
    }
  ],
  "bytecode": "0x608060405234801561001057600080fd5b5061166c806100206000396000f30060806040526004361061011d576000357c0100000000000000000000000000000000000000000000000000000000900463ffffffff1680632a2a6e2514610122578063375bbfd31461019d5780633db213e4146101fc57806342cbb15c14610213578063557251711461023e5780636fdfb93f14610299578063732272211461033857806377d32e9414610393578063796b89b91461044a5780638443d090146104755780638ab4ac5d146104fa5780638d5e01b6146105675780638ec04df01461059657806392b775c6146105c9578063b8f185971461062e578063bd1b04011461069b578063be0b3cc614610712578063c79f8b621461076d578063c941d3b514610784578063eab7b4cb146107ed578063efa5ed1714610896575b600080fd5b34801561012e57600080fd5b5061017f6004803603810190808035600019169060200190929190803573ffffffffffffffffffffffffffffffffffffffff16906020019092919080356000191690602001909291905050506108ed565b60405180826000191660001916815260200191505060405180910390f35b3480156101a957600080fd5b506101de600480360381019080803573ffffffffffffffffffffffffffffffffffffffff1690602001909291905050506109d5565b60405180826000191660001916815260200191505060405180910390f35b34801561020857600080fd5b50610211610a9b565b005b34801561021f57600080fd5b50610228610ac5565b6040518082815260200191505060405180910390f35b34801561024a57600080fd5b5061027b60048036038101908080356000191690602001909291908035600019169060200190929190505050610acd565b60405180826000191660001916815260200191505060405180910390f35b3480156102a557600080fd5b5061031a600480360381019080803573ffffffffffffffffffffffffffffffffffffffff169060200190929190803573ffffffffffffffffffffffffffffffffffffffff169060200190929190803573ffffffffffffffffffffffffffffffffffffffff169060200190929190505050610b71565b60405180826000191660001916815260200191505060405180910390f35b34801561034457600080fd5b5061037560048036038101908080356000191690602001909291908035600019169060200190929190505050610cbf565b60405180826000191660001916815260200191505060405180910390f35b34801561039f57600080fd5b506104086004803603810190808035600019169060200190929190803590602001908201803590602001908080601f0160208091040260200160405190810160405280939291908181526020018383808284378201915050505050509192919290505050610ccc565b604051808273ffffffffffffffffffffffffffffffffffffffff1673ffffffffffffffffffffffffffffffffffffffff16815260200191505060405180910390f35b34801561045657600080fd5b5061045f610ee3565b6040518082815260200191505060405180910390f35b34801561048157600080fd5b506104dc600480360381019080803590602001908201803590602001908080601f0160208091040260200160405190810160405280939291908181526020018383808284378201915050505050509192919290505050610eeb565b60405180826000191660001916815260200191505060405180910390f35b34801561050657600080fd5b506105496004803603810190808035600019169060200190929190803573ffffffffffffffffffffffffffffffffffffffff169060200190929190505050610fc3565b60405180826000191660001916815260200191505060405180910390f35b34801561057357600080fd5b5061057c611071565b604051808215151515815260200191505060405180910390f35b3480156105a257600080fd5b506105ab611087565b60405180826000191660001916815260200191505060405180910390f35b3480156105d557600080fd5b50610610600480360381019080803590602001909291908035600019169060200190929190803560001916906020019092919050505061114b565b60405180826000191660001916815260200191505060405180910390f35b34801561063a57600080fd5b5061067d600480360381019080803573ffffffffffffffffffffffffffffffffffffffff16906020019092919080356000191690602001909291905050506111ea565b60405180826000191660001916815260200191505060405180910390f35b3480156106a757600080fd5b506106f4600480360381019080803573ffffffffffffffffffffffffffffffffffffffff1690602001909291908035600019169060200190929190803590602001909291905050506112c1565b60405180826000191660001916815260200191505060405180910390f35b34801561071e57600080fd5b5061074f600480360381019080803560001916906020019092919080356000191690602001909291905050506113a1565b60405180826000191660001916815260200191505060405180910390f35b34801561077957600080fd5b50610782611445565b005b34801561079057600080fd5b506107cf6004803603810190808035600019169060200190929190803560001916906020019092919080356000191690602001909291905050506114c4565b60405180826000191660001916815260200191505060405180910390f35b3480156107f957600080fd5b50610878600480360381019080803573ffffffffffffffffffffffffffffffffffffffff169060200190929190803573ffffffffffffffffffffffffffffffffffffffff169060200190929190803573ffffffffffffffffffffffffffffffffffffffff16906020019092919080359060200190929190505050611579565b60405180826000191660001916815260200191505060405180910390f35b3480156108a257600080fd5b506108cf6004803603810190808035600019169060200190929190803590602001909291905050506115a4565b60405180826000191660001916815260200191505060405180910390f35b60008383836040516020018084600019166000191681526020018373ffffffffffffffffffffffffffffffffffffffff1673ffffffffffffffffffffffffffffffffffffffff166c01000000000000000000000000028152601401826000191660001916815260200193505050506040516020818303038152906040526040518082805190602001908083835b60208310151561099f578051825260208201915060208101905060208303925061097a565b6001836020036101000a038019825116818451168082178552505050505050905001915050604051809103902090509392505050565b600081604051602001808273ffffffffffffffffffffffffffffffffffffffff1673ffffffffffffffffffffffffffffffffffffffff166c010000000000000000000000000281526014019150506040516020818303038152906040526040518082805190602001908083835b602083101515610a675780518252602082019150602081019050602083039250610a42565b6001836020036101000a03801982511681845116808217855250505050505090500191505060405180910390209050919050565b6000809054906101000a900460ff16156000806101000a81548160ff021916908315150217905550565b600043905090565b600082826040516020018083600019166000191681526020018260001916600019168152602001925050506040516020818303038152906040526040518082805190602001908083835b602083101515610b3c5780518252602082019150602081019050602083039250610b17565b6001836020036101000a0380198251168184511680821785525050505050509050019150506040518091039020905092915050565b6000838383604051602001808473ffffffffffffffffffffffffffffffffffffffff1673ffffffffffffffffffffffffffffffffffffffff166c010000000000000000000000000281526014018373ffffffffffffffffffffffffffffffffffffffff1673ffffffffffffffffffffffffffffffffffffffff166c010000000000000000000000000281526014018273ffffffffffffffffffffffffffffffffffffffff1673ffffffffffffffffffffffffffffffffffffffff166c0100000000000000000000000002815260140193505050506040516020818303038152906040526040518082805190602001908083835b602083101515610c895780518252602082019150602081019050602083039250610c64565b6001836020036101000a038019825116818451168082178552505050505050905001915050604051809103902090509392505050565b6000818318905092915050565b6000806000806060600060418751141515610cea5760009550610ed8565b6040805190810160405280601c81526020017f19457468657265756d205369676e6564204d6573736167653a0a333200000000815250915081886040516020018083805190602001908083835b602083101515610d5c5780518252602082019150602081019050602083039250610d37565b6001836020036101000a0380198251168184511680821785525050505050509050018260001916600019168152602001925050506040516020818303038152906040526040518082805190602001908083835b602083101515610dd45780518252602082019150602081019050602083039250610daf565b6001836020036101000a038019825116818451168082178552505050505050905001915050604051809103902090506020870151945060408701519350606087015160001a9250601b8360ff161015610e2e57601b830192505b601b8360ff1614158015610e465750601c8360ff1614155b15610e545760009550610ed8565b600181848787604051600081526020016040526040518085600019166000191681526020018460ff1660ff1681526020018360001916600019168152602001826000191660001916815260200194505050505060206040516020810390808403906000865af1158015610ecb573d6000803e3d6000fd5b5050506020604051035195505b505050505092915050565b600042905090565b6000816040516020018082805190602001908083835b602083101515610f265780518252602082019150602081019050602083039250610f01565b6001836020036101000a0380198251168184511680821785525050505050509050019150506040516020818303038152906040526040518082805190602001908083835b602083101515610f8f5780518252602082019150602081019050602083039250610f6a565b6001836020036101000a03801982511681845116808217855250505050505090500191505060405180910390209050919050565b600082600190048273ffffffffffffffffffffffffffffffffffffffff1660405160200180838152602001828152602001925050506040516020818303038152906040526040518082805190602001908083835b60208310151561103c5780518252602082019150602081019050602083039250611017565b6001836020036101000a0380198251168184511680821785525050505050509050019150506040518091039020905092915050565b60008060009054906101000a900460ff16905090565b600033604051602001808273ffffffffffffffffffffffffffffffffffffffff1673ffffffffffffffffffffffffffffffffffffffff166c010000000000000000000000000281526014019150506040516020818303038152906040526040518082805190602001908083835b60208310151561111957805182526020820191506020810190506020830392506110f4565b6001836020036101000a0380198251168184511680821785525050505050509050019150506040518091039020905090565b6000818385604051602001808360001916600019168152602001828152602001925050506040516020818303038152906040526040518082805190602001908083835b6020831015156111b3578051825260208201915060208101905060208303925061118e565b6001836020036101000a03801982511681845116808217855250505050505090500191505060405180910390201890509392505050565b60008282604051602001808373ffffffffffffffffffffffffffffffffffffffff1673ffffffffffffffffffffffffffffffffffffffff166c010000000000000000000000000281526014018260001916600019168152602001925050506040516020818303038152906040526040518082805190602001908083835b60208310151561128c5780518252602082019150602081019050602083039250611267565b6001836020036101000a0380198251168184511680821785525050505050509050019150506040518091039020905092915050565b6000838383604051602001808473ffffffffffffffffffffffffffffffffffffffff1673ffffffffffffffffffffffffffffffffffffffff166c01000000000000000000000000028152601401836000191660001916815260200182815260200193505050506040516020818303038152906040526040518082805190602001908083835b60208310151561136b5780518252602082019150602081019050602083039250611346565b6001836020036101000a038019825116818451168082178552505050505050905001915050604051809103902090509392505050565b600082826040516020018083600019166000191681526020018260001916600019168152602001925050506040516020818303038152906040526040518082805190602001908083835b60208310151561141057805182526020820191506020810190506020830392506113eb565b6001836020036101000a0380198251168184511680821785525050505050509050019150506040518091039020905092915050565b7fd0afe8a5781ad1f86b9bafa159b57fea1d193fcc61b83185d84108027294784e60016040518082815260200191505060405180910390a16000151561148a57600080fd5b7fd0afe8a5781ad1f86b9bafa159b57fea1d193fcc61b83185d84108027294784e60026040518082815260200191505060405180910390a1565b60008383836040516020018084600019166000191681526020018360001916600019168152602001826000191660001916815260200193505050506040516020818303038152906040526040518082805190602001908083835b602083101515611543578051825260208201915060208101905060208303925061151e565b6001836020036101000a038019825116818451168082178552505050505050905001915050604051809103902090509392505050565b6000600f6001026004830261158f878787610b71565b600019169060020a9004169050949350505050565b60008282604051602001808360001916600019168152602001828152602001925050506040516020818303038152906040526040518082805190602001908083835b60208310151561160b57805182526020820191506020810190506020830392506115e6565b6001836020036101000a03801982511681845116808217855250505050505090500191505060405180910390209050929150505600a165627a7a72305820e34bdfbbb65c276ce973c60f9024b77e12641b72d3a054bda0c48cb5e6c692c10029",
  "source": "pragma solidity ^0.4.19;\n\ncontract TestingUtilities{\n\tbool internalData;\n\n\tfunction ecrecovery(bytes32 message, bytes signature)\n\tpublic pure returns (address) {\n\t\tbytes32 r;\n        bytes32 s;\n        uint8 v;\n\n        if (signature.length != 65)\n          return address(0);\n\n        bytes memory prefix = \"\\x19Ethereum Signed Message:\\n32\";\n        bytes32 prefixedHash = keccak256(abi.encodePacked(prefix, message));\n\n        // The signature format is a compact form of:\n        //   {bytes32 r}{bytes32 s}{uint8 v}\n        // Compact means, uint8 is not padded to 32 bytes.\n        assembly {\n            r := mload(add(signature, 32))\n            s := mload(add(signature, 64))\n\n            // Here we are loading the last 32 bytes. We exploit the fact that\n            // 'mload' will pad with zeroes if we overread.\n            // There is no 'mload8' to do this, but that would be nicer.\n            v := byte(0, mload(add(signature, 96)))\n        }\n\n        // geth uses [0, 1] and some clients have followed. This might change, see:\n        //  https://github.com/ethereum/go-ethereum/issues/2053\n        if (v < 27) v += 27;\n\n        if (v != 27 && v != 28) return address(0);\n\n        return ecrecover(prefixedHash, v, r, s);\n\t}\n\n\tfunction getSolution(address holderIdentity0, address holderIdentity1, address holderIdentity2, uint256 shift)\n\tpublic pure returns (bytes32) {\n\t\treturn ( (keccakAddressAddressAddress(holderIdentity0, holderIdentity1, holderIdentity2) >> (shift * 4)) & bytes32( 2 ** (4 * 1) - 1));\n\t}\n\n\n\tfunction keccakBytesAddress(bytes32 a, address b)\n\tpublic pure returns (bytes32) {\n\t\treturn keccak256(abi.encodePacked(uint256(a),uint256(b)));\n\t}\n\n\tfunction keccakAddressAddressAddress(address a, address b, address c)\n\tpublic pure returns (bytes32) {\n\t\treturn keccak256(abi.encodePacked(a,b,c));\n\t}\n\n\tfunction keccakBytesBytesBytes(bytes32 a, bytes32 b, bytes32 c)\n\tpublic pure returns (bytes32) {\n\t\treturn keccak256(abi.encodePacked(a,b,c));\n\t}\n\n\tfunction keccakBytesBytes(bytes32 a, bytes32 b)\n\tpublic pure returns (bytes32) {\n\t\treturn keccak256(abi.encodePacked(a,b));\n\t}\n\n\t// function to decrypt hashes of the merkle tree\n\tfunction decryptCiphertext(uint _index, bytes32 key, bytes32 _ciphertext) public pure returns (bytes32){\n\t\treturn keccak256(abi.encodePacked(key, _index)) ^ _ciphertext;\n\t}\n\n\tfunction keccakAddress(address a)\n\tpublic pure returns (bytes32) {\n\t\treturn keccak256(abi.encodePacked(a));\n\t}\n\n\tfunction keccak2hashes(bytes32 a, bytes32 b)\n\tpublic pure returns (bytes32){\n\t\treturn keccak256(abi.encodePacked(a,b));\n\t}\n\n\tfunction keccakString(string a)\n\tpublic pure returns (bytes32){\n\t\treturn keccak256(abi.encodePacked(a));\n\t}\n\n\tfunction keccakIndex(bytes32 a, uint b)\n\tpublic pure returns (bytes32){\n\t\treturn keccak256(abi.encodePacked(a,b));\n\t}\n\n\tfunction keccakSender()\n\tpublic view returns (bytes32){\n\t\treturn keccak256(abi.encodePacked(msg.sender));\n\t}\n\n\tfunction keccakAddressBytes(address adr, bytes32 byt)\n\tpublic pure returns (bytes32){\n\t\treturn keccak256(abi.encodePacked(adr, byt));\n\t}\n\n\tfunction keccakOffer(address adr, bytes32 nod_id, uint data_id)\n\tpublic pure returns (bytes32){\n\t\treturn keccak256(abi.encodePacked(adr, nod_id, data_id));\n\t}\n\n\tfunction getBlockTimestamp()\n\tpublic view returns (uint){\n\t\treturn block.timestamp;\n\t}\n\n\tfunction getBlockNumber()\n\tpublic view returns (uint){\n\t\treturn block.number;\n\t}\n\n\tfunction xorBytes(bytes32 byt1, bytes32 byt2)\n\tpublic pure returns (bytes32){\n\t\treturn byt1 ^ byt2;\n\t}\n\n\tfunction moveTheBlock()\n\tpublic{\n\t\tinternalData = !internalData;\n\t}\n\n\tfunction escrowHash(bytes32 offer_hash, address DH_wallet, bytes32 DH_node_id)\n\tpublic pure returns (bytes32){\n\t\treturn keccak256(abi.encodePacked(offer_hash, DH_wallet, DH_node_id));\n\t}\n\n\tevent PreIPosle(uint a);\n\n\tfunction getInternalData()\n\tpublic view returns (bool) {\n\t\treturn internalData;\n\t}\n\n\tfunction error()\n\tpublic{\n\t\temit PreIPosle(1);\n\t\trequire(false);\n\t\temit PreIPosle(2);\n\t}\n}",
  "sourcePath": "/Users/uroskukic/Documents/Projects/Starfleet/builders-demo/truffle/contracts/TestingUtilities.sol",
  "compiler": {
    "name": "solc",
    "version": "0.4.26+commit.4563c3fc.Emscripten.clang"
  },
  "schemaVersion": "3.3.3",
  "updatedAt": "2021-01-28T12:35:17.772Z",
  "devdoc": {
    "methods": {}
  },
  "userdoc": {
    "methods": {}
  }
}