{
  "contractName": "CreditorHandler",
  "abi": [
    {
      "constant": true,
      "inputs": [],
      "name": "hub",
      "outputs": [
        {
          "name": "",
          "type": "address"
        }
      ],
      "payable": false,
      "stateMutability": "view",
      "type": "function"
    },
    {
      "inputs": [
        {
          "name": "hubAddress",
          "type": "address"
        }
      ],
      "payable": false,
      "stateMutability": "nonpayable",
      "type": "constructor"
    },
    {
      "constant": false,
      "inputs": [
        {
          "name": "newHubAddress",
          "type": "address"
        }
      ],
      "name": "setHubAddress",
      "outputs": [],
      "payable": false,
      "stateMutability": "nonpayable",
      "type": "function"
    },
    {
      "constant": false,
      "inputs": [
        {
          "name": "offerId",
          "type": "uint256"
        },
        {
          "name": "identity",
          "type": "address"
        },
        {
          "name": "parentIdentity",
          "type": "address"
        }
      ],
      "name": "finalizeOffer",
      "outputs": [],
      "payable": false,
      "stateMutability": "nonpayable",
      "type": "function"
    }
  ],
  "bytecode": "0x608060405234801561001057600080fd5b50604051602080611a3483398101806040528101908080519060200190929190505050600073ffffffffffffffffffffffffffffffffffffffff168173ffffffffffffffffffffffffffffffffffffffff161415151561006f57600080fd5b806000806101000a81548173ffffffffffffffffffffffffffffffffffffffff021916908373ffffffffffffffffffffffffffffffffffffffff16021790555050611975806100bf6000396000f300608060405260043610610057576000357c0100000000000000000000000000000000000000000000000000000000900463ffffffff168063365a86fc1461005c5780639bcaee50146100b3578063c7eb452214610120575b600080fd5b34801561006857600080fd5b50610071610163565b604051808273ffffffffffffffffffffffffffffffffffffffff1673ffffffffffffffffffffffffffffffffffffffff16815260200191505060405180910390f35b3480156100bf57600080fd5b5061011e60048036038101908080359060200190929190803573ffffffffffffffffffffffffffffffffffffffff169060200190929190803573ffffffffffffffffffffffffffffffffffffffff169060200190929190505050610188565b005b34801561012c57600080fd5b50610161600480360381019080803573ffffffffffffffffffffffffffffffffffffffff1690602001909291905050506112b9565b005b6000809054906101000a900473ffffffffffffffffffffffffffffffffffffffff1681565b60008060008060009054906101000a900473ffffffffffffffffffffffffffffffffffffffff1673ffffffffffffffffffffffffffffffffffffffff166316279055336040518263ffffffff167c0100000000000000000000000000000000000000000000000000000000028152600401808273ffffffffffffffffffffffffffffffffffffffff1673ffffffffffffffffffffffffffffffffffffffff168152602001915050602060405180830381600087803b15801561024957600080fd5b505af115801561025d573d6000803e3d6000fd5b505050506040513d602081101561027357600080fd5b8101908080519060200190929190505050151561031e576040517f08c379a00000000000000000000000000000000000000000000000000000000081526004018080602001828103825260298152602001807f46756e6374696f6e2063616e206f6e6c792062652063616c6c6564206279206381526020017f6f6e74726163747321000000000000000000000000000000000000000000000081525060400191505060405180910390fd5b84848073ffffffffffffffffffffffffffffffffffffffff1663d202158d83604051602001808273ffffffffffffffffffffffffffffffffffffffff1673ffffffffffffffffffffffffffffffffffffffff166c010000000000000000000000000281526014019150506040516020818303038152906040526040518082805190602001908083835b6020831015156103cc57805182526020820191506020810190506020830392506103a7565b6001836020036101000a038019825116818451168082178552505050505050905001915050604051809103902060ed6040518363ffffffff167c010000000000000000000000000000000000000000000000000000000002815260040180836000191660001916815260200182815260200192505050602060405180830381600087803b15801561045c57600080fd5b505af1158015610470573d6000803e3d6000fd5b505050506040513d602081101561048657600080fd5b81019080805190602001909291905050501515610557576040517f08c379a00000000000000000000000000000000000000000000000000000000081526004018080602001828103825260468152602001807f53656e646572206964656e74697479206973206e6f742061207375622d69646581526020017f6e74697479206f66207468652070726f766964656420706172656e742069646581526020017f6e7469747921000000000000000000000000000000000000000000000000000081525060600191505060405180910390fd5b6000809054906101000a900473ffffffffffffffffffffffffffffffffffffffff1673ffffffffffffffffffffffffffffffffffffffff166304433bbc6040518163ffffffff167c010000000000000000000000000000000000000000000000000000000002815260040180806020018281038252600e8152602001807f50726f66696c6553746f72616765000000000000000000000000000000000000815250602001915050602060405180830381600087803b15801561061857600080fd5b505af115801561062c573d6000803e3d6000fd5b505050506040513d602081101561064257600080fd5b8101908080519060200190929190505050945061081860036000809054906101000a900473ffffffffffffffffffffffffffffffffffffffff1673ffffffffffffffffffffffffffffffffffffffff166304433bbc6040518163ffffffff167c010000000000000000000000000000000000000000000000000000000002815260040180806020018281038252600e8152602001807f486f6c64696e6753746f72616765000000000000000000000000000000000000815250602001915050602060405180830381600087803b15801561071b57600080fd5b505af115801561072f573d6000803e3d6000fd5b505050506040513d602081101561074557600080fd5b810190808051906020019092919050505073ffffffffffffffffffffffffffffffffffffffff16636c833cf58b6001026040518263ffffffff167c0100000000000000000000000000000000000000000000000000000000028152600401808260001916600019168152602001915050602060405180830381600087803b1580156107cf57600080fd5b505af11580156107e3573d6000803e3d6000fd5b505050506040513d60208110156107f957600080fd5b810190808051906020019092919050505061148d90919063ffffffff16565b93506000809054906101000a900473ffffffffffffffffffffffffffffffffffffffff1673ffffffffffffffffffffffffffffffffffffffff166304433bbc6040518163ffffffff167c01000000000000000000000000000000000000000000000000000000000281526004018080602001828103825260078152602001807f50726f66696c6500000000000000000000000000000000000000000000000000815250602001915050602060405180830381600087803b1580156108db57600080fd5b505af11580156108ef573d6000803e3d6000fd5b505050506040513d602081101561090557600080fd5b810190808051906020019092919050505073ffffffffffffffffffffffffffffffffffffffff16639ec41a2d6040518163ffffffff167c0100000000000000000000000000000000000000000000000000000000028152600401602060405180830381600087803b15801561097957600080fd5b505af115801561098d573d6000803e3d6000fd5b505050506040513d60208110156109a357600080fd5b810190808051906020019092919050505092508473ffffffffffffffffffffffffffffffffffffffff16632ba97595876040518263ffffffff167c0100000000000000000000000000000000000000000000000000000000028152600401808273ffffffffffffffffffffffffffffffffffffffff1673ffffffffffffffffffffffffffffffffffffffff168152602001915050602060405180830381600087803b158015610a5157600080fd5b505af1158015610a65573d6000803e3d6000fd5b505050506040513d6020811015610a7b57600080fd5b81019080805190602001909291905050508015610d2a57508473ffffffffffffffffffffffffffffffffffffffff16635ffe0282876040518263ffffffff167c0100000000000000000000000000000000000000000000000000000000028152600401808273ffffffffffffffffffffffffffffffffffffffff1673ffffffffffffffffffffffffffffffffffffffff168152602001915050602060405180830381600087803b158015610b2e57600080fd5b505af1158015610b42573d6000803e3d6000fd5b505050506040513d6020811015610b5857600080fd5b81019080805190602001909291905050508573ffffffffffffffffffffffffffffffffffffffff16637a766460886040518263ffffffff167c0100000000000000000000000000000000000000000000000000000000028152600401808273ffffffffffffffffffffffffffffffffffffffff1673ffffffffffffffffffffffffffffffffffffffff168152602001915050602060405180830381600087803b158015610c0457600080fd5b505af1158015610c18573d6000803e3d6000fd5b505050506040513d6020811015610c2e57600080fd5b810190808051906020019092919050505003610d28858773ffffffffffffffffffffffffffffffffffffffff166356582bf98a6040518263ffffffff167c0100000000000000000000000000000000000000000000000000000000028152600401808273ffffffffffffffffffffffffffffffffffffffff1673ffffffffffffffffffffffffffffffffffffffff168152602001915050602060405180830381600087803b158015610cdf57600080fd5b505af1158015610cf3573d6000803e3d6000fd5b505050506040513d6020811015610d0957600080fd5b81019080805190602001909291905050506114c090919063ffffffff16565b115b15610df0578473ffffffffffffffffffffffffffffffffffffffff16639385067f8760006040518363ffffffff167c0100000000000000000000000000000000000000000000000000000000028152600401808373ffffffffffffffffffffffffffffffffffffffff1673ffffffffffffffffffffffffffffffffffffffff1681526020018215151515815260200192505050600060405180830381600087803b158015610dd757600080fd5b505af1158015610deb573d6000803e3d6000fd5b505050505b610fad8573ffffffffffffffffffffffffffffffffffffffff16635ffe0282886040518263ffffffff167c0100000000000000000000000000000000000000000000000000000000028152600401808273ffffffffffffffffffffffffffffffffffffffff1673ffffffffffffffffffffffffffffffffffffffff168152602001915050602060405180830381600087803b158015610e8e57600080fd5b505af1158015610ea2573d6000803e3d6000fd5b505050506040513d6020811015610eb857600080fd5b81019080805190602001909291905050508673ffffffffffffffffffffffffffffffffffffffff16637a766460896040518263ffffffff167c0100000000000000000000000000000000000000000000000000000000028152600401808273ffffffffffffffffffffffffffffffffffffffff1673ffffffffffffffffffffffffffffffffffffffff168152602001915050602060405180830381600087803b158015610f6457600080fd5b505af1158015610f78573d6000803e3d6000fd5b505050506040513d6020811015610f8e57600080fd5b81019080805190602001909291905050506114de90919063ffffffff16565b831115151561104a576040517f08c379a000000000000000000000000000000000000000000000000000000000815260040180806020018281038252603e8152602001807f506172656e74206964656e7469747920646f6573206e6f74206861766520656e81526020017f6f756768207374616b6520746f20637265617465206e6577206a6f627321000081525060400191505060405180910390fd5b836112088673ffffffffffffffffffffffffffffffffffffffff16635ffe0282896040518263ffffffff167c0100000000000000000000000000000000000000000000000000000000028152600401808273ffffffffffffffffffffffffffffffffffffffff1673ffffffffffffffffffffffffffffffffffffffff168152602001915050602060405180830381600087803b1580156110e957600080fd5b505af11580156110fd573d6000803e3d6000fd5b505050506040513d602081101561111357600080fd5b81019080805190602001909291905050508773ffffffffffffffffffffffffffffffffffffffff16637a7664608a6040518263ffffffff167c0100000000000000000000000000000000000000000000000000000000028152600401808273ffffffffffffffffffffffffffffffffffffffff1673ffffffffffffffffffffffffffffffffffffffff168152602001915050602060405180830381600087803b1580156111bf57600080fd5b505af11580156111d3573d6000803e3d6000fd5b505050506040513d60208110156111e957600080fd5b81019080805190602001909291905050506114de90919063ffffffff16565b101515156112a4576040517f08c379a00000000000000000000000000000000000000000000000000000000081526004018080602001828103825260398152602001807f506172656e74206964656e7469747920646f6573206e6f74206861766520656e81526020017f6f756768207374616b6520666f7220726573657276696e67210000000000000081525060400191505060405180910390fd5b6112af8787866114f7565b5050505050505050565b6000809054906101000a900473ffffffffffffffffffffffffffffffffffffffff1673ffffffffffffffffffffffffffffffffffffffff166316279055336040518263ffffffff167c0100000000000000000000000000000000000000000000000000000000028152600401808273ffffffffffffffffffffffffffffffffffffffff1673ffffffffffffffffffffffffffffffffffffffff168152602001915050602060405180830381600087803b15801561137557600080fd5b505af1158015611389573d6000803e3d6000fd5b505050506040513d602081101561139f57600080fd5b8101908080519060200190929190505050151561144a576040517f08c379a000000000000000000000000000000000000000000000000000000000815260040180806020018281038252603f8152602001807f546869732066756e6374696f6e2063616e206f6e6c792062652063616c6c656481526020017f20627920636f6e747261637473206f722074686569722063726561746f72210081525060400191505060405180910390fd5b806000806101000a81548173ffffffffffffffffffffffffffffffffffffffff021916908373ffffffffffffffffffffffffffffffffffffffff16021790555050565b600080828402905060008414806114ae57508284828115156114ab57fe5b04145b15156114b657fe5b8091505092915050565b60008082840190508381101515156114d457fe5b8091505092915050565b60008282111515156114ec57fe5b818303905092915050565b6000806000809054906101000a900473ffffffffffffffffffffffffffffffffffffffff1673ffffffffffffffffffffffffffffffffffffffff166304433bbc6040518163ffffffff167c010000000000000000000000000000000000000000000000000000000002815260040180806020018281038252600e8152602001807f50726f66696c6553746f72616765000000000000000000000000000000000000815250602001915050602060405180830381600087803b1580156115bb57600080fd5b505af11580156115cf573d6000803e3d6000fd5b505050506040513d60208110156115e557600080fd5b810190808051906020019092919050505091508173ffffffffffffffffffffffffffffffffffffffff16637a766460856040518263ffffffff167c0100000000000000000000000000000000000000000000000000000000028152600401808273ffffffffffffffffffffffffffffffffffffffff1673ffffffffffffffffffffffffffffffffffffffff168152602001915050602060405180830381600087803b15801561169357600080fd5b505af11580156116a7573d6000803e3d6000fd5b505050506040513d60208110156116bd57600080fd5b810190808051906020019092919050505090508173ffffffffffffffffffffffffffffffffffffffff1663bd3cd5258561170086856114de90919063ffffffff16565b6040518363ffffffff167c0100000000000000000000000000000000000000000000000000000000028152600401808373ffffffffffffffffffffffffffffffffffffffff1673ffffffffffffffffffffffffffffffffffffffff16815260200182815260200192505050600060405180830381600087803b15801561178557600080fd5b505af1158015611799573d6000803e3d6000fd5b505050508173ffffffffffffffffffffffffffffffffffffffff16637a766460866040518263ffffffff167c0100000000000000000000000000000000000000000000000000000000028152600401808273ffffffffffffffffffffffffffffffffffffffff1673ffffffffffffffffffffffffffffffffffffffff168152602001915050602060405180830381600087803b15801561183857600080fd5b505af115801561184c573d6000803e3d6000fd5b505050506040513d602081101561186257600080fd5b810190808051906020019092919050505090508173ffffffffffffffffffffffffffffffffffffffff1663bd3cd525866118a586856114c090919063ffffffff16565b6040518363ffffffff167c0100000000000000000000000000000000000000000000000000000000028152600401808373ffffffffffffffffffffffffffffffffffffffff1673ffffffffffffffffffffffffffffffffffffffff16815260200182815260200192505050600060405180830381600087803b15801561192a57600080fd5b505af115801561193e573d6000803e3d6000fd5b5050505050505050505600a165627a7a723058204f40184f67c9ff1f04559f1ab7471f84cef0a3fab434ceb850d292569ee271540029",
  "source": "pragma solidity ^0.4.25;\n\nimport './Hub.sol';\nimport {ERC725} from './ERC725.sol';\nimport {Profile} from './Profile.sol';\nimport {ProfileStorage} from './ProfileStorage.sol';\nimport {HoldingStorage} from './HoldingStorage.sol';\nimport {SafeMath} from './SafeMath.sol';\n\n/**\n * The CreditorHandler contract handles funds and requirements when an offer is finalized using\n * creditor funds\n */\ncontract CreditorHandler {\n\tusing SafeMath for uint256;\n\n    Hub public hub;\n\tconstructor(address hubAddress) public{\n\t\trequire(hubAddress!=address(0));\n        hub = Hub(hubAddress);\n\t}\n\n\tfunction setHubAddress(address newHubAddress) public{\n        require(hub.isContract(msg.sender), \"This function can only be called by contracts or their creator!\");\n\n        hub = Hub(newHubAddress);\n    }\n\n    modifier onlyContracts() {\n        require(hub.isContract(msg.sender),\n        \"Function can only be called by contracts!\");\n        _;\n    }\n\n    modifier verifyParent(address identity, address parentIdentity) {\n        require(ERC725(parentIdentity).keyHasPurpose(keccak256(abi.encodePacked(identity)), 237),\n        \"Sender identity is not a sub-identity of the provided parent identity!\");\n        _;\n    }\n\n    function transferCredit(address identity, address parentIdentity, uint256 amount)\n    internal {\n        ProfileStorage profileStorage = ProfileStorage(hub.getContractAddress(\"ProfileStorage\"));\n\n        uint256 currentStake = profileStorage.getStake(parentIdentity);\n        profileStorage.setStake(parentIdentity, currentStake.sub(amount));\n\n        currentStake = profileStorage.getStake(identity);\n        profileStorage.setStake(identity, currentStake.add(amount));\n    }\n\n    function finalizeOffer(uint256 offerId, address identity, address parentIdentity)\n    public onlyContracts verifyParent(identity, parentIdentity) {\n        ProfileStorage profileStorage = ProfileStorage(hub.getContractAddress(\"ProfileStorage\"));\n\n        uint256 jobCost = HoldingStorage(hub.getContractAddress(\"HoldingStorage\")).getOfferTokenAmountPerHolder(bytes32(offerId)).mul(3);\n        uint256 minimalStake = Profile(hub.getContractAddress(\"Profile\")).minimalStake();\n\n        if(profileStorage.getWithdrawalPending(parentIdentity) && profileStorage.getWithdrawalAmount(parentIdentity).add(jobCost) > profileStorage.getStake(parentIdentity) - profileStorage.getStakeReserved(parentIdentity)) {\n            profileStorage.setWithdrawalPending(parentIdentity,false);\n        }\n\n    \trequire(minimalStake <= profileStorage.getStake(parentIdentity).sub(profileStorage.getStakeReserved(parentIdentity)),\n            \"Parent identity does not have enough stake to create new jobs!\");\n\n    \t// Transferring funds\n        require(profileStorage.getStake(parentIdentity).sub(profileStorage.getStakeReserved(parentIdentity)) >= jobCost,\n            \"Parent identity does not have enough stake for reserving!\");\n\n        transferCredit(identity, parentIdentity, jobCost);\n    }\n}\n",
  "sourcePath": "/Users/miloskotlar/starfleet-node/tests/truffle-tests/contracts/CreditorHandler.sol",
  "compiler": {
    "name": "solc",
    "version": "0.4.26+commit.4563c3fc.Emscripten.clang"
  },
  "schemaVersion": "3.0.16",
  "updatedAt": "2021-02-11T16:12:13.709Z",
  "devdoc": {
    "methods": {}
  },
  "userdoc": {
    "methods": {}
  }
}