{
  "contractName": "Eventest",
  "abi": [
    {
      "anonymous": false,
      "inputs": [
        {
          "indexed": false,
          "name": "firstValue",
          "type": "uint256"
        },
        {
          "indexed": false,
          "name": "secondValue",
          "type": "address"
        }
      ],
      "name": "EventThree",
      "type": "event"
    },
    {
      "anonymous": false,
      "inputs": [
        {
          "indexed": false,
          "name": "firstValue",
          "type": "uint256"
        },
        {
          "indexed": true,
          "name": "secondValue",
          "type": "uint256"
        },
        {
          "indexed": false,
          "name": "thirdValue",
          "type": "uint256"
        }
      ],
      "name": "EventFour",
      "type": "event"
    },
    {
      "constant": false,
      "inputs": [
        {
          "name": "_one",
          "type": "uint256"
        },
        {
          "name": "_two",
          "type": "address"
        }
      ],
      "name": "emitEventThree",
      "outputs": [],
      "payable": false,
      "stateMutability": "nonpayable",
      "type": "function"
    },
    {
      "constant": false,
      "inputs": [
        {
          "name": "_one",
          "type": "uint256"
        },
        {
          "name": "_two",
          "type": "uint256"
        },
        {
          "name": "_three",
          "type": "uint256"
        }
      ],
      "name": "emitEventFour",
      "outputs": [],
      "payable": false,
      "stateMutability": "nonpayable",
      "type": "function"
    }
  ],
  "bytecode": "0x608060405234801561001057600080fd5b506101bf806100206000396000f30060806040526004361061004c576000357c0100000000000000000000000000000000000000000000000000000000900463ffffffff1680636afa330f14610051578063b11e467614610092575b600080fd5b34801561005d57600080fd5b506100906004803603810190808035906020019092919080359060200190929190803590602001909291905050506100df565b005b34801561009e57600080fd5b506100dd60048036038101908080359060200190929190803573ffffffffffffffffffffffffffffffffffffffff169060200190929190505050610124565b005b817fbf7c84ad80090f5b1314f1f726dc24b5874988591ef1509483113e6c275990938483604051808381526020018281526020019250505060405180910390a2505050565b7fa9222e4ee357cc80308044e533c11776755d4940f53a850b77350a91d44c1b6d8282604051808381526020018273ffffffffffffffffffffffffffffffffffffffff1673ffffffffffffffffffffffffffffffffffffffff1681526020019250505060405180910390a150505600a165627a7a723058202e2584ab6cd3613de2c9533e5bae260cf21defdcac320b0fdf23b95dee9fd8f20029",
  "source": "pragma solidity ^0.4.24;\n\n\ncontract Eventest {\n    event EventThree(uint256 firstValue, address secondValue);\n    event EventFour(uint256 firstValue, uint256 indexed secondValue, uint256 thirdValue);\n\n    function emitEventThree(uint256 _one, address _two) public {\n        emit EventThree(_one, _two);\n    }\n\n    function emitEventFour(uint256 _one, uint256 _two, uint256 _three) public {\n        emit EventFour(_one, _two, _three);\n    }\n}\n",
  "sourcePath": "/Users/miloskotlar/starfleet-node/tests/truffle-tests/contracts/Eventest.sol",
  "compiler": {
    "name": "solc",
    "version": "0.4.26+commit.4563c3fc.Emscripten.clang"
  },
  "schemaVersion": "3.0.16",
  "updatedAt": "2021-02-11T16:12:13.718Z",
  "devdoc": {
    "methods": {}
  },
  "userdoc": {
    "methods": {}
  }
}