{
  "contractName": "Identity",
  "abi": [
    {
      "constant": true,
      "inputs": [],
      "name": "otVersion",
      "outputs": [
        {
          "name": "",
          "type": "uint256"
        }
      ],
      "payable": false,
      "stateMutability": "view",
      "type": "function"
    },
    {
      "inputs": [
        {
          "name": "operational",
          "type": "address"
        },
        {
          "name": "management",
          "type": "address"
        }
      ],
      "payable": false,
      "stateMutability": "nonpayable",
      "type": "constructor"
    },
    {
      "anonymous": false,
      "inputs": [
        {
          "indexed": true,
          "name": "key",
          "type": "bytes32"
        },
        {
          "indexed": false,
          "name": "purposes",
          "type": "uint256[]"
        },
        {
          "indexed": true,
          "name": "keyType",
          "type": "uint256"
        }
      ],
      "name": "KeyAdded",
      "type": "event"
    },
    {
      "anonymous": false,
      "inputs": [
        {
          "indexed": true,
          "name": "key",
          "type": "bytes32"
        },
        {
          "indexed": false,
          "name": "purposes",
          "type": "uint256[]"
        },
        {
          "indexed": true,
          "name": "keyType",
          "type": "uint256"
        }
      ],
      "name": "KeyRemoved",
      "type": "event"
    },
    {
      "anonymous": false,
      "inputs": [
        {
          "indexed": true,
          "name": "executionId",
          "type": "uint256"
        },
        {
          "indexed": true,
          "name": "to",
          "type": "address"
        },
        {
          "indexed": true,
          "name": "value",
          "type": "uint256"
        },
        {
          "indexed": false,
          "name": "data",
          "type": "bytes"
        }
      ],
      "name": "ExecutionRequested",
      "type": "event"
    },
    {
      "anonymous": false,
      "inputs": [
        {
          "indexed": true,
          "name": "executionId",
          "type": "uint256"
        },
        {
          "indexed": true,
          "name": "to",
          "type": "address"
        },
        {
          "indexed": true,
          "name": "value",
          "type": "uint256"
        },
        {
          "indexed": false,
          "name": "data",
          "type": "bytes"
        }
      ],
      "name": "Executed",
      "type": "event"
    },
    {
      "anonymous": false,
      "inputs": [
        {
          "indexed": true,
          "name": "executionId",
          "type": "uint256"
        },
        {
          "indexed": false,
          "name": "approved",
          "type": "bool"
        }
      ],
      "name": "Approved",
      "type": "event"
    },
    {
      "constant": false,
      "inputs": [
        {
          "name": "_key",
          "type": "bytes32"
        },
        {
          "name": "_purposes",
          "type": "uint256[]"
        },
        {
          "name": "_type",
          "type": "uint256"
        }
      ],
      "name": "addKey",
      "outputs": [
        {
          "name": "success",
          "type": "bool"
        }
      ],
      "payable": false,
      "stateMutability": "nonpayable",
      "type": "function"
    },
    {
      "constant": false,
      "inputs": [
        {
          "name": "_id",
          "type": "uint256"
        },
        {
          "name": "_approve",
          "type": "bool"
        }
      ],
      "name": "approve",
      "outputs": [
        {
          "name": "success",
          "type": "bool"
        }
      ],
      "payable": false,
      "stateMutability": "nonpayable",
      "type": "function"
    },
    {
      "constant": false,
      "inputs": [
        {
          "name": "_to",
          "type": "address"
        },
        {
          "name": "_value",
          "type": "uint256"
        },
        {
          "name": "_data",
          "type": "bytes"
        }
      ],
      "name": "execute",
      "outputs": [
        {
          "name": "executionId",
          "type": "uint256"
        }
      ],
      "payable": false,
      "stateMutability": "nonpayable",
      "type": "function"
    },
    {
      "constant": false,
      "inputs": [
        {
          "name": "_key",
          "type": "bytes32"
        }
      ],
      "name": "removeKey",
      "outputs": [
        {
          "name": "success",
          "type": "bool"
        }
      ],
      "payable": false,
      "stateMutability": "nonpayable",
      "type": "function"
    },
    {
      "constant": true,
      "inputs": [
        {
          "name": "_key",
          "type": "bytes32"
        }
      ],
      "name": "getKey",
      "outputs": [
        {
          "name": "purposes",
          "type": "uint256[]"
        },
        {
          "name": "keyType",
          "type": "uint256"
        },
        {
          "name": "key",
          "type": "bytes32"
        }
      ],
      "payable": false,
      "stateMutability": "view",
      "type": "function"
    },
    {
      "constant": true,
      "inputs": [
        {
          "name": "_key",
          "type": "bytes32"
        }
      ],
      "name": "getKeyPurposes",
      "outputs": [
        {
          "name": "purposes",
          "type": "uint256[]"
        }
      ],
      "payable": false,
      "stateMutability": "view",
      "type": "function"
    },
    {
      "constant": true,
      "inputs": [
        {
          "name": "_purpose",
          "type": "uint256"
        }
      ],
      "name": "getKeysByPurpose",
      "outputs": [
        {
          "name": "_keys",
          "type": "bytes32[]"
        }
      ],
      "payable": false,
      "stateMutability": "view",
      "type": "function"
    },
    {
      "constant": true,
      "inputs": [
        {
          "name": "_key",
          "type": "bytes32"
        },
        {
          "name": "_purpose",
          "type": "uint256"
        }
      ],
      "name": "keyHasPurpose",
      "outputs": [
        {
          "name": "result",
          "type": "bool"
        }
      ],
      "payable": false,
      "stateMutability": "view",
      "type": "function"
    }
  ],
  "bytecode": "0x60806040523480156200001157600080fd5b506040516040806200233c8339810180604052810190808051906020019092919080519060200190929190505050600080600073ffffffffffffffffffffffffffffffffffffffff168473ffffffffffffffffffffffffffffffffffffffff1614158015620000ad5750600073ffffffffffffffffffffffffffffffffffffffff168373ffffffffffffffffffffffffffffffffffffffff1614155b1515620000b957600080fd5b600160008190555082604051602001808273ffffffffffffffffffffffffffffffffffffffff1673ffffffffffffffffffffffffffffffffffffffff166c010000000000000000000000000281526014019150506040516020818303038152906040526040518082805190602001908083835b6020831015156200015357805182526020820191506020810190506020830392506200012c565b6001836020036101000a03801982511681845116808217855250505050505090500191505060405180910390209150816002600084600019166000191681526020019081526020016000206002018160001916905550600160026000846000191660001916815260200190815260200160002060010181905550608060405190810160405280600160ff168152602001600260ff168152602001600360ff168152602001600460ff168152506002600084600019166000191681526020019081526020016000206000019060046200022d92919062000695565b506003600060018152602001908152602001600020829080600181540180825580915050906001820390600052602060002001600090919290919091509060001916905550600360006002815260200190815260200160002082908060018154018082558091505090600182039060005260206000200160009091929091909150906000191690555060036000600381526020019081526020016000208290806001815401808255809150509060018203906000526020600020016000909192909190915090600019169055506003600060048152602001908152602001600020829080600181540180825580915050906001820390600052602060002001600090919290919091509060001916905550600182600019167fe5b96345754b4b918f72e77b7ab261725bce3e956dc95888b754048d13f608de60026000866000191660001916815260200190815260200160002060000160405180806020018281038252838181548152602001915080548015620003cb57602002820191906000526020600020905b815481526020019060010190808311620003b6575b50509250505060405180910390a38273ffffffffffffffffffffffffffffffffffffffff168473ffffffffffffffffffffffffffffffffffffffff161415156200068b5783604051602001808273ffffffffffffffffffffffffffffffffffffffff1673ffffffffffffffffffffffffffffffffffffffff166c010000000000000000000000000281526014019150506040516020818303038152906040526040518082805190602001908083835b602083101515620004a157805182526020820191506020810190506020830392506200047a565b6001836020036101000a038019825116818451168082178552505050505050905001915050604051809103902090508060026000836000191660001916815260200190815260200160002060020181600019169055506001600260008360001916600019168152602001908152602001600020600101819055506040805190810160405280600260ff168152602001600460ff1681525060026000836000191660001916815260200190815260200160002060000190600262000566929190620006ec565b5060036000600281526020019081526020016000208190806001815401808255809150509060018203906000526020600020016000909192909190915090600019169055506003600060048152602001908152602001600020819080600181540180825580915050906001820390600052602060002001600090919290919091509060001916905550600181600019167fe5b96345754b4b918f72e77b7ab261725bce3e956dc95888b754048d13f608de600260008560001916600019168152602001908152602001600020600001604051808060200182810382528381815481526020019150805480156200067c57602002820191906000526020600020905b81548152602001906001019080831162000667575b50509250505060405180910390a35b505050506200076b565b828054828255906000526020600020908101928215620006d9579160200282015b82811115620006d8578251829060ff16905591602001919060010190620006b6565b5b509050620006e8919062000743565b5090565b82805482825590600052602060002090810192821562000730579160200282015b828111156200072f578251829060ff169055916020019190600101906200070d565b5b5090506200073f919062000743565b5090565b6200076891905b80821115620007645760008160009055506001016200074a565b5090565b90565b611bc1806200077b6000396000f300608060405260043610610099576000357c0100000000000000000000000000000000000000000000000000000000900463ffffffff16806312aaac701461009e57806322a213301461013a578063747442d314610165578063862642f5146101b65780639010f726146101ff578063a820f50a14610281578063b61d27f6146102ec578063d202158d14610393578063fb307b34146103e6575b600080fd5b3480156100aa57600080fd5b506100cd600480360381019080803560001916906020019092919050505061046c565b60405180806020018481526020018360001916600019168152602001828103825285818151815260200191508051906020019060200280838360005b83811015610124578082015181840152602081019050610109565b5050505090500194505050505060405180910390f35b34801561014657600080fd5b5061014f61052c565b6040518082815260200191505060405180910390f35b34801561017157600080fd5b5061019c60048036038101908080359060200190929190803515159060200190929190505050610532565b604051808215151515815260200191505060405180910390f35b3480156101c257600080fd5b506101e56004803603810190808035600019169060200190929190505050610c92565b604051808215151515815260200191505060405180910390f35b34801561020b57600080fd5b5061022a60048036038101908080359060200190929190505050611093565b6040518080602001828103825283818151815260200191508051906020019060200280838360005b8381101561026d578082015181840152602081019050610252565b505050509050019250505060405180910390f35b34801561028d57600080fd5b506102d2600480360381019080803560001916906020019092919080359060200190820180359060200191909192939192939080359060200190929190505050611102565b604051808215151515815260200191505060405180910390f35b3480156102f857600080fd5b5061037d600480360381019080803573ffffffffffffffffffffffffffffffffffffffff16906020019092919080359060200190929190803590602001908201803590602001908080601f016020809104026020016040519081016040528093929190818152602001838380828437820191505050505050919291929050505061137a565b6040518082815260200191505060405180910390f35b34801561039f57600080fd5b506103cc6004803603810190808035600019169060200190929190803590602001909291905050506116cf565b604051808215151515815260200191505060405180910390f35b3480156103f257600080fd5b506104156004803603810190808035600019169060200190929190505050611712565b6040518080602001828103825283818151815260200191508051906020019060200280838360005b8381101561045857808201518184015260208101905061043d565b505050509050019250505060405180910390f35b606060008060026000856000191660001916815260200190815260200160002060000160026000866000191660001916815260200190815260200160002060010154600260008760001916600019168152602001908152602001600020600201548280548060200260200160405190810160405280929190818152602001828054801561051857602002820191906000526020600020905b815481526020019060010190808311610504575b505050505092509250925092509193909250565b60005481565b60008060006004600086815260200190815260200160002060000160009054906101000a900473ffffffffffffffffffffffffffffffffffffffff169150610627600460008781526020019081526020016000206002018054600181600116156101000203166002900480601f01602080910402602001604051908101604052809291908181526020018280546001816001161561010002031660029004801561061d5780601f106105f25761010080835404028352916020019161061d565b820191906000526020600020905b81548152906001019060200180831161060057829003601f168201915b5050505050611788565b90503073ffffffffffffffffffffffffffffffffffffffff168273ffffffffffffffffffffffffffffffffffffffff1614156108a25763a820f50a7c010000000000000000000000000000000000000000000000000000000002817bffffffffffffffffffffffffffffffffffffffffffffffffffffffff191614806106ee575063862642f57c010000000000000000000000000000000000000000000000000000000002817bffffffffffffffffffffffffffffffffffffffffffffffffffffffff1916145b156107ca576107ba33604051602001808273ffffffffffffffffffffffffffffffffffffffff1673ffffffffffffffffffffffffffffffffffffffff166c010000000000000000000000000281526014019150506040516020818303038152906040526040518082805190602001908083835b6020831015156107865780518252602082019150602081019050602083039250610761565b6001836020036101000a038019825116818451168082178552505050505050905001915050604051809103902060016116cf565b15156107c557600080fd5b61089d565b61089133604051602001808273ffffffffffffffffffffffffffffffffffffffff1673ffffffffffffffffffffffffffffffffffffffff166c010000000000000000000000000281526014019150506040516020818303038152906040526040518082805190602001908083835b60208310151561085d5780518252602082019150602081019050602083039250610838565b6001836020036101000a038019825116818451168082178552505050505050905001915050604051809103902060026116cf565b151561089c57600080fd5b5b610975565b61096933604051602001808273ffffffffffffffffffffffffffffffffffffffff1673ffffffffffffffffffffffffffffffffffffffff166c010000000000000000000000000281526014019150506040516020818303038152906040526040518082805190602001908083835b6020831015156109355780518252602082019150602081019050602083039250610910565b6001836020036101000a038019825116818451168082178552505050505050905001915050604051809103902060026116cf565b151561097457600080fd5b5b847fb3932da477fe5d6c8ff2eafef050c0f3a1af18fc07121001482600f36f3715d885604051808215151515815260200191505060405180910390a2600115158415151415610c565760016004600087815260200190815260200160002060030160006101000a81548160ff0219169083151502179055506004600086815260200190815260200160002060000160009054906101000a900473ffffffffffffffffffffffffffffffffffffffff1673ffffffffffffffffffffffffffffffffffffffff166004600087815260200190815260200160002060010154600460008881526020019081526020016000206002016040518082805460018160011615610100020316600290048015610acc5780601f10610aa157610100808354040283529160200191610acc565b820191906000526020600020905b815481529060010190602001808311610aaf57829003601f168201915b505091505060006040518083038185875af19250505092508215610c515760016004600087815260200190815260200160002060030160016101000a81548160ff02191690831515021790555060046000868152602001908152602001600020600101546004600087815260200190815260200160002060000160009054906101000a900473ffffffffffffffffffffffffffffffffffffffff1673ffffffffffffffffffffffffffffffffffffffff16867f1f920dbda597d7bf95035464170fa58d0a4b57f13a1c315ace6793b9f63688b8600460008a81526020019081526020016000206002016040518080602001828103825283818154600181600116156101000203166002900481526020019150805460018160011615610100020316600290048015610c3e5780601f10610c1357610100808354040283529160200191610c3e565b820191906000526020600020905b815481529060010190602001808311610c2157829003601f168201915b50509250505060405180910390a4610c8a565b610c8a565b60006004600087815260200190815260200160002060030160006101000a81548160ff021916908315150217905550600192505b505092915050565b6000806000610d5e33604051602001808273ffffffffffffffffffffffffffffffffffffffff1673ffffffffffffffffffffffffffffffffffffffff166c010000000000000000000000000281526014019150506040516020818303038152906040526040518082805190602001908083835b602083101515610d2a5780518252602082019150602081019050602083039250610d05565b6001836020036101000a038019825116818451168082178552505050505050905001915050604051809103902060016116cf565b1515610d6957600080fd5b600060010260001916846000191614151515610d8457600080fd5b83600019166002600086600019166000191681526020019081526020016000206002015460001916141515610db857600080fd5b6001600360006001815260200190815260200160002080549050148015610de65750610de58460016116cf565b5b151515610e81576040517f08c379a00000000000000000000000000000000000000000000000000000000081526004018080602001828103825260228152602001807f43616e6e6f742064656c657465206f6e6c79206d616e6167656d656e74206b6581526020017f792100000000000000000000000000000000000000000000000000000000000081525060400191505060405180910390fd5b6002600085600019166000191681526020019081526020016000206001015460026000866000191660001916815260200190815260200160002060020154600019167f8b4b1134f379fbe0fcf31b9ff43aa8003df39c09d09bd06671288e1b0a1f2b4a60026000886000191660001916815260200190815260200160002060000160405180806020018281038252838181548152602001915080548015610f4757602002820191906000526020600020905b815481526020019060010190808311610f33575b50509250505060405180910390a3600091505b6002600085600019166000191681526020019081526020016000206000018054905082101561104a57610fdd846003600060026000896000191660001916815260200190815260200160002060000186815481101515610fb657fe5b9060005260206000200154815260200190815260200160002061187e90919063ffffffff16565b508091505061103c81600360006002600089600019166000191681526020019081526020016000206000018681548110151561101557fe5b906000526020600020015481526020019081526020016000206118e790919063ffffffff16565b508180600101925050610f5a565b600260008560001916600019168152602001908152602001600020600080820160006110769190611a31565b600182016000905560028201600090555050600192505050919050565b6060600360008381526020019081526020016000208054806020026020016040519081016040528092919081815260200182805480156110f657602002820191906000526020600020905b815460001916815260200190600101908083116110de575b50505050509050919050565b6000806111cc33604051602001808273ffffffffffffffffffffffffffffffffffffffff1673ffffffffffffffffffffffffffffffffffffffff166c010000000000000000000000000281526014019150506040516020818303038152906040526040518082805190602001908083835b6020831015156111985780518252602082019150602081019050602083039250611173565b6001836020036101000a038019825116818451168082178552505050505050905001915050604051809103902060016116cf565b15156111d757600080fd5b6000600102600019168660001916141515156111f257600080fd5b856000191660026000886000191660001916815260200190815260200160002060020154600019161415151561122757600080fd5b8560026000886000191660001916815260200190815260200160002060020181600019169055508484600260008960001916600019168152602001908152602001600020600001919061127b929190611a52565b508260026000886000191660001916815260200190815260200160002060010181905550600090505b84849050811015611313576003600086868481811015156112c157fe5b90506020020135815260200190815260200160002086908060018154018082558091505090600182039060005260206000200160009091929091909150906000191690555080806001019150506112a4565b8286600019167fe5b96345754b4b918f72e77b7ab261725bce3e956dc95888b754048d13f608de8787604051808060200182810382528484828181526020019250602002808284378201915050935050505060405180910390a36001915050949350505050565b600060046000600154815260200190815260200160002060030160019054906101000a900460ff161515156113ae57600080fd5b8360046000600154815260200190815260200160002060000160006101000a81548173ffffffffffffffffffffffffffffffffffffffff021916908373ffffffffffffffffffffffffffffffffffffffff160217905550826004600060015481526020019081526020016000206001018190555081600460006001548152602001908152602001600020600201908051906020019061144e929190611a9f565b5061151633604051602001808273ffffffffffffffffffffffffffffffffffffffff1673ffffffffffffffffffffffffffffffffffffffff166c010000000000000000000000000281526014019150506040516020818303038152906040526040518082805190602001908083835b6020831015156114e257805182526020820191506020810190506020830392506114bd565b6001836020036101000a038019825116818451168082178552505050505050905001915050604051809103902060016116cf565b806115e457506115e333604051602001808273ffffffffffffffffffffffffffffffffffffffff1673ffffffffffffffffffffffffffffffffffffffff166c010000000000000000000000000281526014019150506040516020818303038152906040526040518082805190602001908083835b6020831015156115af578051825260208201915060208101905060208303925061158a565b6001836020036101000a038019825116818451168082178552505050505050905001915050604051809103902060026116cf565b5b156115f8576115f66001546001610532565b505b828473ffffffffffffffffffffffffffffffffffffffff166001547f8afcfabcb00e47a53a8fc3e9f23ff47ee1926194bb1350dd007c50b412a6cee8856040518080602001828103825283818151815260200191508051906020019080838360005b8381101561167557808201518184015260208101905061165a565b50505050905090810190601f1680156116a25780820380516001836020036101000a031916815260200191505b509250505060405180910390a4600160008154809291906001019190505550600180540390509392505050565b600080611702836002600087600019166000191681526020019081526020016000206000016119d090919063ffffffff16565b9050809150508091505092915050565b606060026000836000191660001916815260200190815260200160002060000180548060200260200160405190810160405280929190818152602001828054801561177c57602002820191906000526020600020905b815481526020019060010190808311611768575b50505050509050919050565b60008060008090505b6004811015611874576008810260ff7f01000000000000000000000000000000000000000000000000000000000000000285838151811015156117d057fe5b9060200101517f010000000000000000000000000000000000000000000000000000000000000090047f010000000000000000000000000000000000000000000000000000000000000002167effffffffffffffffffffffffffffffffffffffffffffffffffffffffffffff19167bffffffffffffffffffffffffffffffffffffffffffffffffffffffff19169060020a9004821791508080600101915050611791565b8192505050919050565b60008060008090505b84805490508110156118d457836000191685828154811015156118a657fe5b90600052602060002001546000191614156118c757806001925092506118df565b8080600101915050611887565b600080819150925092505b509250929050565b60608280549050821015156118fb576119ca565b82600184805490500381548110151561191057fe5b9060005260206000200154838381548110151561192957fe5b90600052602060002001816000191690555082600184805490500381548110151561195057fe5b9060005260206000200160009055600183805490500383816119729190611b1f565b50828054806020026020016040519081016040528092919081815260200182805480156119c257602002820191906000526020600020905b815460001916815260200190600101908083116119aa575b505050505090505b92915050565b60008060008090505b8480549050811015611a1e578385828154811015156119f457fe5b90600052602060002001541415611a115780600192509250611a29565b80806001019150506119d9565b600080819150925092505b509250929050565b5080546000825590600052602060002090810190611a4f9190611b4b565b50565b828054828255906000526020600020908101928215611a8e579160200282015b82811115611a8d578235825591602001919060010190611a72565b5b509050611a9b9190611b4b565b5090565b828054600181600116156101000203166002900490600052602060002090601f016020900481019282601f10611ae057805160ff1916838001178555611b0e565b82800160010185558215611b0e579182015b82811115611b0d578251825591602001919060010190611af2565b5b509050611b1b9190611b4b565b5090565b815481835581811115611b4657818360005260206000209182019101611b459190611b70565b5b505050565b611b6d91905b80821115611b69576000816000905550600101611b51565b5090565b90565b611b9291905b80821115611b8e576000816000905550600101611b76565b5090565b905600a165627a7a723058209e476b403bf16561d40a1f32305aec97dd2785041693797eab618987cc14ee820029",
  "source": "pragma solidity ^0.4.18;\n\nimport './ByteArr.sol';\nimport './ERC725.sol';\n\ncontract Identity is ERC725 {\n    using ByteArr for bytes;\n    using ByteArr for bytes32[];\n    using ByteArr for uint256[];\n\n    struct Execution {\n        address to;\n        uint256 value;\n        bytes data;\n        bool approved;\n        bool executed;\n    }\n\n    uint256 executionNonce;\n\n    mapping (bytes32 => Key) keys;\n    mapping (uint256 => bytes32[]) keysByPurpose;\n    mapping (uint256 => Execution) executions;\n\n    constructor(address operational, address management) public {\n        require(operational != address(0) && management != address(0));\n\n        otVersion = 1;\n\n        bytes32 _management_key = keccak256(abi.encodePacked(management));\n\n        keys[_management_key].key = _management_key;\n\n        keys[_management_key].keyType = 1;\n\n        keys[_management_key].purposes = [1,2,3,4];\n\n        keysByPurpose[1].push(_management_key);\n        keysByPurpose[2].push(_management_key);\n        keysByPurpose[3].push(_management_key);\n        keysByPurpose[4].push(_management_key);\n        emit KeyAdded(_management_key, keys[_management_key].purposes, 1);\n\n        if(operational != management){\n            bytes32 _operational_key = keccak256(abi.encodePacked(operational));\n\n            keys[_operational_key].key = _operational_key;\n\n            keys[_operational_key].keyType = 1;\n\n            keys[_operational_key].purposes = [2,4];\n\n            keysByPurpose[2].push(_operational_key);\n            keysByPurpose[4].push(_operational_key);\n\n            emit KeyAdded(_operational_key, keys[_operational_key].purposes, 1);\n        }\n    }\n\n    function addKey(bytes32 _key, uint256[] _purposes, uint256 _type) external returns (bool success) {\n        require(keyHasPurpose(keccak256(abi.encodePacked(msg.sender)), 1));\n        require(_key != bytes32(0));\n        require(keys[_key].key != _key);\n\n        keys[_key].key = _key;\n        keys[_key].purposes = _purposes;\n        keys[_key].keyType = _type;\n\n        for (uint i = 0; i < _purposes.length; i++) {\n            keysByPurpose[_purposes[i]].push(_key);\n        }\n\n        emit KeyAdded(_key, _purposes, _type);\n        return true;\n    }\n\n    //  \"a820f50a\": \"addKey(bytes32,uint256[],uint256)\",\n    //  \"747442d3\": \"approve(uint256,bool)\",\n    //  \"b61d27f6\": \"execute(address,uint256,bytes)\",\n    //  \"862642f5\": \"removeKey(bytes32)\"\n\n    function approve(uint256 _id, bool _approve) public returns (bool success) {\n        address to = executions[_id].to;\n        bytes4 fHash = executions[_id].data.getFuncHash();\n        if (to == address(this)) {\n            if (fHash == 0xa820f50a || fHash == 0x862642f5) {\n                require(keyHasPurpose(keccak256(abi.encodePacked(msg.sender)), 1));\n            } else {\n                require(keyHasPurpose(keccak256(abi.encodePacked(msg.sender)), 2));\n            }\n        } else {\n            require(keyHasPurpose(keccak256(abi.encodePacked(msg.sender)), 2));\n        }\n\n        emit Approved(_id, _approve);\n\n        if (_approve == true) {\n            executions[_id].approved = true;\n            success = executions[_id].to.call.value(executions[_id].value)(executions[_id].data);\n            if (success) {\n                executions[_id].executed = true;\n                emit Executed(_id, executions[_id].to, executions[_id].value, executions[_id].data);\n                return;\n            } else {\n                return;\n            }\n        } else {\n            executions[_id].approved = false;\n        }\n        return true;\n    }\n\n    function execute(address _to, uint256 _value, bytes _data) public returns (uint256 executionId) {\n        require(!executions[executionNonce].executed);\n        executions[executionNonce].to = _to;\n        executions[executionNonce].value = _value;\n        executions[executionNonce].data = _data;\n\n        if (keyHasPurpose(keccak256(abi.encodePacked(msg.sender)),1) || keyHasPurpose(keccak256(abi.encodePacked(msg.sender)),2)) {\n            approve(executionNonce, true);\n        }\n\n        emit ExecutionRequested(executionNonce, _to, _value, _data);\n\n        executionNonce++;\n        return executionNonce-1;\n    }\n\n    function removeKey(bytes32 _key) external returns (bool success) {\n        require(keyHasPurpose(keccak256(abi.encodePacked(msg.sender)), 1));\n        require(_key != bytes32(0));\n\n        require(keys[_key].key == _key);\n\n        require(!(keysByPurpose[1].length == 1 && keyHasPurpose(_key, 1)), \"Cannot delete only management key!\");\n\n        emit KeyRemoved(keys[_key].key, keys[_key].purposes, keys[_key].keyType);\n\n        for (uint i = 0; i < keys[_key].purposes.length; i++) {\n            uint index;\n            (index,) = keysByPurpose[keys[_key].purposes[i]].indexOf(_key);\n            keysByPurpose[keys[_key].purposes[i]].removeByIndex(index);\n        }\n\n        delete keys[_key];\n\n        return true;\n    }\n\n    function getKey(bytes32 _key) public view returns (uint256[] purposes, uint256 keyType, bytes32 key){\n        return (keys[_key].purposes, keys[_key].keyType, keys[_key].key);\n    }\n\n    function getKeyPurposes(bytes32 _key) public view returns (uint256[] purposes) {\n        return keys[_key].purposes;\n    }\n\n    function getKeysByPurpose(uint256 _purpose) public view returns (bytes32[] _keys) {\n        return keysByPurpose[_purpose];\n    }\n\n    function keyHasPurpose(bytes32 _key, uint256 _purpose) public view returns (bool result) {\n        bool isThere;\n        (,isThere) = keys[_key].purposes.indexOf(_purpose);\n        return isThere;\n    }\n}",
  "sourcePath": "/Users/miloskotlar/starfleet-node/tests/truffle-tests/contracts/Identity.sol",
  "compiler": {
    "name": "solc",
    "version": "0.4.26+commit.4563c3fc.Emscripten.clang"
  },
  "schemaVersion": "3.0.16",
  "updatedAt": "2021-02-11T16:12:13.804Z",
  "devdoc": {
    "methods": {}
  },
  "userdoc": {
    "methods": {}
  }
}