{
  "contractName": "LitigationStorage",
  "abi": [
    {
      "constant": true,
      "inputs": [],
      "name": "hub",
      "outputs": [
        {
          "name": "",
          "type": "address"
        }
      ],
      "payable": false,
      "stateMutability": "view",
      "type": "function"
    },
    {
      "constant": true,
      "inputs": [
        {
          "name": "",
          "type": "bytes32"
        },
        {
          "name": "",
          "type": "address"
        }
      ],
      "name": "litigation",
      "outputs": [
        {
          "name": "litigatorIdentity",
          "type": "address"
        },
        {
          "name": "requestedObjectIndex",
          "type": "uint256"
        },
        {
          "name": "requestedBlockIndex",
          "type": "uint256"
        },
        {
          "name": "requestedData",
          "type": "bytes32"
        },
        {
          "name": "status",
          "type": "uint8"
        },
        {
          "name": "timestamp",
          "type": "uint256"
        },
        {
          "name": "replacementTask",
          "type": "bytes32"
        },
        {
          "name": "replacementDifficulty",
          "type": "uint256"
        }
      ],
      "payable": false,
      "stateMutability": "view",
      "type": "function"
    },
    {
      "inputs": [
        {
          "name": "hubAddress",
          "type": "address"
        }
      ],
      "payable": false,
      "stateMutability": "nonpayable",
      "type": "constructor"
    },
    {
      "constant": false,
      "inputs": [
        {
          "name": "newHubAddress",
          "type": "address"
        }
      ],
      "name": "setHubAddress",
      "outputs": [],
      "payable": false,
      "stateMutability": "nonpayable",
      "type": "function"
    },
    {
      "constant": false,
      "inputs": [
        {
          "name": "offerId",
          "type": "bytes32"
        },
        {
          "name": "holderIdentity",
          "type": "address"
        },
        {
          "name": "litigatorIdentity",
          "type": "address"
        }
      ],
      "name": "setLitigationLitigatorIdentity",
      "outputs": [],
      "payable": false,
      "stateMutability": "nonpayable",
      "type": "function"
    },
    {
      "constant": false,
      "inputs": [
        {
          "name": "offerId",
          "type": "bytes32"
        },
        {
          "name": "holderIdentity",
          "type": "address"
        },
        {
          "name": "requestedObjectIndex",
          "type": "uint256"
        }
      ],
      "name": "setLitigationRequestedObjectIndex",
      "outputs": [],
      "payable": false,
      "stateMutability": "nonpayable",
      "type": "function"
    },
    {
      "constant": false,
      "inputs": [
        {
          "name": "offerId",
          "type": "bytes32"
        },
        {
          "name": "holderIdentity",
          "type": "address"
        },
        {
          "name": "requestedBlockIndex",
          "type": "uint256"
        }
      ],
      "name": "setLitigationRequestedBlockIndex",
      "outputs": [],
      "payable": false,
      "stateMutability": "nonpayable",
      "type": "function"
    },
    {
      "constant": false,
      "inputs": [
        {
          "name": "offerId",
          "type": "bytes32"
        },
        {
          "name": "holderIdentity",
          "type": "address"
        },
        {
          "name": "requestedData",
          "type": "bytes32"
        }
      ],
      "name": "setLitigationRequestedData",
      "outputs": [],
      "payable": false,
      "stateMutability": "nonpayable",
      "type": "function"
    },
    {
      "constant": false,
      "inputs": [
        {
          "name": "offerId",
          "type": "bytes32"
        },
        {
          "name": "holderIdentity",
          "type": "address"
        },
        {
          "name": "hashArray",
          "type": "bytes32[]"
        }
      ],
      "name": "setLitigationHashArray",
      "outputs": [],
      "payable": false,
      "stateMutability": "nonpayable",
      "type": "function"
    },
    {
      "constant": false,
      "inputs": [
        {
          "name": "offerId",
          "type": "bytes32"
        },
        {
          "name": "holderIdentity",
          "type": "address"
        },
        {
          "name": "status",
          "type": "uint8"
        }
      ],
      "name": "setLitigationStatus",
      "outputs": [],
      "payable": false,
      "stateMutability": "nonpayable",
      "type": "function"
    },
    {
      "constant": false,
      "inputs": [
        {
          "name": "offerId",
          "type": "bytes32"
        },
        {
          "name": "holderIdentity",
          "type": "address"
        },
        {
          "name": "timestamp",
          "type": "uint256"
        }
      ],
      "name": "setLitigationTimestamp",
      "outputs": [],
      "payable": false,
      "stateMutability": "nonpayable",
      "type": "function"
    },
    {
      "constant": false,
      "inputs": [
        {
          "name": "offerId",
          "type": "bytes32"
        },
        {
          "name": "holderIdentity",
          "type": "address"
        },
        {
          "name": "replacementTask",
          "type": "bytes32"
        }
      ],
      "name": "setLitigationReplacementTask",
      "outputs": [],
      "payable": false,
      "stateMutability": "nonpayable",
      "type": "function"
    },
    {
      "constant": false,
      "inputs": [
        {
          "name": "offerId",
          "type": "bytes32"
        },
        {
          "name": "holderIdentity",
          "type": "address"
        },
        {
          "name": "replacementDifficulty",
          "type": "uint256"
        }
      ],
      "name": "setLitigationReplacementDifficulty",
      "outputs": [],
      "payable": false,
      "stateMutability": "nonpayable",
      "type": "function"
    },
    {
      "constant": true,
      "inputs": [
        {
          "name": "offerId",
          "type": "bytes32"
        },
        {
          "name": "holderIdentity",
          "type": "address"
        }
      ],
      "name": "getLitigationLitigatorIdentity",
      "outputs": [
        {
          "name": "litigatorIdentity",
          "type": "address"
        }
      ],
      "payable": false,
      "stateMutability": "view",
      "type": "function"
    },
    {
      "constant": true,
      "inputs": [
        {
          "name": "offerId",
          "type": "bytes32"
        },
        {
          "name": "holderIdentity",
          "type": "address"
        }
      ],
      "name": "getLitigationRequestedObjectIndex",
      "outputs": [
        {
          "name": "requestedObjectIndex",
          "type": "uint256"
        }
      ],
      "payable": false,
      "stateMutability": "view",
      "type": "function"
    },
    {
      "constant": true,
      "inputs": [
        {
          "name": "offerId",
          "type": "bytes32"
        },
        {
          "name": "holderIdentity",
          "type": "address"
        }
      ],
      "name": "getLitigationRequestedBlockIndex",
      "outputs": [
        {
          "name": "requestedBlockIndex",
          "type": "uint256"
        }
      ],
      "payable": false,
      "stateMutability": "view",
      "type": "function"
    },
    {
      "constant": true,
      "inputs": [
        {
          "name": "offerId",
          "type": "bytes32"
        },
        {
          "name": "holderIdentity",
          "type": "address"
        }
      ],
      "name": "getLitigationRequestedData",
      "outputs": [
        {
          "name": "requestedData",
          "type": "bytes32"
        }
      ],
      "payable": false,
      "stateMutability": "view",
      "type": "function"
    },
    {
      "constant": true,
      "inputs": [
        {
          "name": "offerId",
          "type": "bytes32"
        },
        {
          "name": "holderIdentity",
          "type": "address"
        }
      ],
      "name": "getLitigationHashArray",
      "outputs": [
        {
          "name": "hashArray",
          "type": "bytes32[]"
        }
      ],
      "payable": false,
      "stateMutability": "view",
      "type": "function"
    },
    {
      "constant": true,
      "inputs": [
        {
          "name": "offerId",
          "type": "bytes32"
        },
        {
          "name": "holderIdentity",
          "type": "address"
        }
      ],
      "name": "getLitigationStatus",
      "outputs": [
        {
          "name": "status",
          "type": "uint8"
        }
      ],
      "payable": false,
      "stateMutability": "view",
      "type": "function"
    },
    {
      "constant": true,
      "inputs": [
        {
          "name": "offerId",
          "type": "bytes32"
        },
        {
          "name": "holderIdentity",
          "type": "address"
        }
      ],
      "name": "getLitigationTimestamp",
      "outputs": [
        {
          "name": "timestamp",
          "type": "uint256"
        }
      ],
      "payable": false,
      "stateMutability": "view",
      "type": "function"
    },
    {
      "constant": true,
      "inputs": [
        {
          "name": "offerId",
          "type": "bytes32"
        },
        {
          "name": "holderIdentity",
          "type": "address"
        }
      ],
      "name": "getLitigationReplacementTask",
      "outputs": [
        {
          "name": "replacementTask",
          "type": "bytes32"
        }
      ],
      "payable": false,
      "stateMutability": "view",
      "type": "function"
    },
    {
      "constant": true,
      "inputs": [
        {
          "name": "offerId",
          "type": "bytes32"
        },
        {
          "name": "holderIdentity",
          "type": "address"
        }
      ],
      "name": "getLitigationReplacementDifficulty",
      "outputs": [
        {
          "name": "replacementDifficulty",
          "type": "uint256"
        }
      ],
      "payable": false,
      "stateMutability": "view",
      "type": "function"
    }
  ],
  "bytecode": "0x608060405234801561001057600080fd5b5060405160208061240c83398101806040528101908080519060200190929190505050806000806101000a81548173ffffffffffffffffffffffffffffffffffffffff021916908373ffffffffffffffffffffffffffffffffffffffff16021790555050612389806100836000396000f30060806040526004361061011d576000357c0100000000000000000000000000000000000000000000000000000000900463ffffffff16806315a4aeb1146101225780631631114e1461018757806334845158146101e6578063365a86fc1461024b578063384a1344146102a25780635006398b146102fd57806357e0306a1461036257806359485c7e146103c05780636c93746c1461043357806376a48d4d1461048e57806383d6117b146105225780639163395b14610602578063954271271461065d5780639dbe6063146107035780639f6deb2114610774578063b3a81b65146107e1578063b5bdacae1461084e578063c7eb4522146108ad578063ced37bcd146108f0578063d817da561461094b578063e9165a3f146109dc575b600080fd5b34801561012e57600080fd5b506101716004803603810190808035600019169060200190929190803573ffffffffffffffffffffffffffffffffffffffff169060200190929190505050610a41565b6040518082815260200191505060405180910390f35b34801561019357600080fd5b506101e46004803603810190808035600019169060200190929190803573ffffffffffffffffffffffffffffffffffffffff1690602001909291908035600019169060200190929190505050610aa7565b005b3480156101f257600080fd5b506102356004803603810190808035600019169060200190929190803573ffffffffffffffffffffffffffffffffffffffff169060200190929190505050610ca1565b6040518082815260200191505060405180910390f35b34801561025757600080fd5b50610260610d07565b604051808273ffffffffffffffffffffffffffffffffffffffff1673ffffffffffffffffffffffffffffffffffffffff16815260200191505060405180910390f35b3480156102ae57600080fd5b506102fb6004803603810190808035600019169060200190929190803573ffffffffffffffffffffffffffffffffffffffff16906020019092919080359060200190929190505050610d2c565b005b34801561030957600080fd5b5061034c6004803603810190808035600019169060200190929190803573ffffffffffffffffffffffffffffffffffffffff169060200190929190505050610f22565b6040518082815260200191505060405180910390f35b34801561036e57600080fd5b506103be6004803603810190808035600019169060200190929190803573ffffffffffffffffffffffffffffffffffffffff169060200190929190803560ff169060200190929190505050610f88565b005b3480156103cc57600080fd5b5061040f6004803603810190808035600019169060200190929190803573ffffffffffffffffffffffffffffffffffffffff16906020019092919050505061119a565b6040518082600481111561041f57fe5b60ff16815260200191505060405180910390f35b34801561043f57600080fd5b5061048c6004803603810190808035600019169060200190929190803573ffffffffffffffffffffffffffffffffffffffff1690602001909291908035906020019092919050505061120d565b005b34801561049a57600080fd5b506105206004803603810190808035600019169060200190929190803573ffffffffffffffffffffffffffffffffffffffff16906020019092919080359060200190820180359060200190808060200260200160405190810160405280939291908181526020018383602002808284378201915050505050509192919290505050611403565b005b34801561052e57600080fd5b506105716004803603810190808035600019169060200190929190803573ffffffffffffffffffffffffffffffffffffffff169060200190929190505050611609565b604051808973ffffffffffffffffffffffffffffffffffffffff1673ffffffffffffffffffffffffffffffffffffffff16815260200188815260200187815260200186600019166000191681526020018560048111156105cd57fe5b60ff16815260200184815260200183600019166000191681526020018281526020019850505050505050505060405180910390f35b34801561060e57600080fd5b5061065b6004803603810190808035600019169060200190929190803573ffffffffffffffffffffffffffffffffffffffff1690602001909291908035906020019092919050505061168b565b005b34801561066957600080fd5b506106ac6004803603810190808035600019169060200190929190803573ffffffffffffffffffffffffffffffffffffffff169060200190929190505050611881565b6040518080602001828103825283818151815260200191508051906020019060200280838360005b838110156106ef5780820151818401526020810190506106d4565b505050509050019250505060405180910390f35b34801561070f57600080fd5b506107726004803603810190808035600019169060200190929190803573ffffffffffffffffffffffffffffffffffffffff169060200190929190803573ffffffffffffffffffffffffffffffffffffffff169060200190929190505050611939565b005b34801561078057600080fd5b506107c36004803603810190808035600019169060200190929190803573ffffffffffffffffffffffffffffffffffffffff169060200190929190505050611b69565b60405180826000191660001916815260200191505060405180910390f35b3480156107ed57600080fd5b506108306004803603810190808035600019169060200190929190803573ffffffffffffffffffffffffffffffffffffffff169060200190929190505050611bcf565b60405180826000191660001916815260200191505060405180910390f35b34801561085a57600080fd5b506108ab6004803603810190808035600019169060200190929190803573ffffffffffffffffffffffffffffffffffffffff1690602001909291908035600019169060200190929190505050611c35565b005b3480156108b957600080fd5b506108ee600480360381019080803573ffffffffffffffffffffffffffffffffffffffff169060200190929190505050611e2f565b005b3480156108fc57600080fd5b506109496004803603810190808035600019169060200190929190803573ffffffffffffffffffffffffffffffffffffffff16906020019092919080359060200190929190505050612003565b005b34801561095757600080fd5b5061099a6004803603810190808035600019169060200190929190803573ffffffffffffffffffffffffffffffffffffffff1690602001909291905050506121f9565b604051808273ffffffffffffffffffffffffffffffffffffffff1673ffffffffffffffffffffffffffffffffffffffff16815260200191505060405180910390f35b3480156109e857600080fd5b50610a2b6004803603810190808035600019169060200190929190803573ffffffffffffffffffffffffffffffffffffffff16906020019092919050505061227f565b6040518082815260200191505060405180910390f35b600060016000846000191660001916815260200190815260200160002060008373ffffffffffffffffffffffffffffffffffffffff1673ffffffffffffffffffffffffffffffffffffffff16815260200190815260200160002060060154905092915050565b6000809054906101000a900473ffffffffffffffffffffffffffffffffffffffff1673ffffffffffffffffffffffffffffffffffffffff166316279055336040518263ffffffff167c0100000000000000000000000000000000000000000000000000000000028152600401808273ffffffffffffffffffffffffffffffffffffffff1673ffffffffffffffffffffffffffffffffffffffff168152602001915050602060405180830381600087803b158015610b6357600080fd5b505af1158015610b77573d6000803e3d6000fd5b505050506040513d6020811015610b8d57600080fd5b81019080805190602001909291905050501515610c38576040517f08c379a00000000000000000000000000000000000000000000000000000000081526004018080602001828103825260298152602001807f46756e6374696f6e2063616e206f6e6c792062652063616c6c6564206279206381526020017f6f6e74726163747321000000000000000000000000000000000000000000000081525060400191505060405180910390fd5b8060016000856000191660001916815260200190815260200160002060008473ffffffffffffffffffffffffffffffffffffffff1673ffffffffffffffffffffffffffffffffffffffff1681526020019081526020016000206003018160001916905550505050565b600060016000846000191660001916815260200190815260200160002060008373ffffffffffffffffffffffffffffffffffffffff1673ffffffffffffffffffffffffffffffffffffffff16815260200190815260200160002060010154905092915050565b6000809054906101000a900473ffffffffffffffffffffffffffffffffffffffff1681565b6000809054906101000a900473ffffffffffffffffffffffffffffffffffffffff1673ffffffffffffffffffffffffffffffffffffffff166316279055336040518263ffffffff167c0100000000000000000000000000000000000000000000000000000000028152600401808273ffffffffffffffffffffffffffffffffffffffff1673ffffffffffffffffffffffffffffffffffffffff168152602001915050602060405180830381600087803b158015610de857600080fd5b505af1158015610dfc573d6000803e3d6000fd5b505050506040513d6020811015610e1257600080fd5b81019080805190602001909291905050501515610ebd576040517f08c379a00000000000000000000000000000000000000000000000000000000081526004018080602001828103825260298152602001807f46756e6374696f6e2063616e206f6e6c792062652063616c6c6564206279206381526020017f6f6e74726163747321000000000000000000000000000000000000000000000081525060400191505060405180910390fd5b8060016000856000191660001916815260200190815260200160002060008473ffffffffffffffffffffffffffffffffffffffff1673ffffffffffffffffffffffffffffffffffffffff16815260200190815260200160002060010181905550505050565b600060016000846000191660001916815260200190815260200160002060008373ffffffffffffffffffffffffffffffffffffffff1673ffffffffffffffffffffffffffffffffffffffff16815260200190815260200160002060080154905092915050565b6000809054906101000a900473ffffffffffffffffffffffffffffffffffffffff1673ffffffffffffffffffffffffffffffffffffffff166316279055336040518263ffffffff167c0100000000000000000000000000000000000000000000000000000000028152600401808273ffffffffffffffffffffffffffffffffffffffff1673ffffffffffffffffffffffffffffffffffffffff168152602001915050602060405180830381600087803b15801561104457600080fd5b505af1158015611058573d6000803e3d6000fd5b505050506040513d602081101561106e57600080fd5b81019080805190602001909291905050501515611119576040517f08c379a00000000000000000000000000000000000000000000000000000000081526004018080602001828103825260298152602001807f46756e6374696f6e2063616e206f6e6c792062652063616c6c6564206279206381526020017f6f6e74726163747321000000000000000000000000000000000000000000000081525060400191505060405180910390fd5b8060016000856000191660001916815260200190815260200160002060008473ffffffffffffffffffffffffffffffffffffffff1673ffffffffffffffffffffffffffffffffffffffff16815260200190815260200160002060050160006101000a81548160ff0219169083600481111561119057fe5b0217905550505050565b600060016000846000191660001916815260200190815260200160002060008373ffffffffffffffffffffffffffffffffffffffff1673ffffffffffffffffffffffffffffffffffffffff16815260200190815260200160002060050160009054906101000a900460ff16905092915050565b6000809054906101000a900473ffffffffffffffffffffffffffffffffffffffff1673ffffffffffffffffffffffffffffffffffffffff166316279055336040518263ffffffff167c0100000000000000000000000000000000000000000000000000000000028152600401808273ffffffffffffffffffffffffffffffffffffffff1673ffffffffffffffffffffffffffffffffffffffff168152602001915050602060405180830381600087803b1580156112c957600080fd5b505af11580156112dd573d6000803e3d6000fd5b505050506040513d60208110156112f357600080fd5b8101908080519060200190929190505050151561139e576040517f08c379a00000000000000000000000000000000000000000000000000000000081526004018080602001828103825260298152602001807f46756e6374696f6e2063616e206f6e6c792062652063616c6c6564206279206381526020017f6f6e74726163747321000000000000000000000000000000000000000000000081525060400191505060405180910390fd5b8060016000856000191660001916815260200190815260200160002060008473ffffffffffffffffffffffffffffffffffffffff1673ffffffffffffffffffffffffffffffffffffffff16815260200190815260200160002060020181905550505050565b6000809054906101000a900473ffffffffffffffffffffffffffffffffffffffff1673ffffffffffffffffffffffffffffffffffffffff166316279055336040518263ffffffff167c0100000000000000000000000000000000000000000000000000000000028152600401808273ffffffffffffffffffffffffffffffffffffffff1673ffffffffffffffffffffffffffffffffffffffff168152602001915050602060405180830381600087803b1580156114bf57600080fd5b505af11580156114d3573d6000803e3d6000fd5b505050506040513d60208110156114e957600080fd5b81019080805190602001909291905050501515611594576040517f08c379a00000000000000000000000000000000000000000000000000000000081526004018080602001828103825260298152602001807f46756e6374696f6e2063616e206f6e6c792062652063616c6c6564206279206381526020017f6f6e74726163747321000000000000000000000000000000000000000000000081525060400191505060405180910390fd5b8060016000856000191660001916815260200190815260200160002060008473ffffffffffffffffffffffffffffffffffffffff1673ffffffffffffffffffffffffffffffffffffffff16815260200190815260200160002060040190805190602001906116039291906122e5565b50505050565b6001602052816000526040600020602052806000526040600020600091509150508060000160009054906101000a900473ffffffffffffffffffffffffffffffffffffffff16908060010154908060020154908060030154908060050160009054906101000a900460ff16908060060154908060070154908060080154905088565b6000809054906101000a900473ffffffffffffffffffffffffffffffffffffffff1673ffffffffffffffffffffffffffffffffffffffff166316279055336040518263ffffffff167c0100000000000000000000000000000000000000000000000000000000028152600401808273ffffffffffffffffffffffffffffffffffffffff1673ffffffffffffffffffffffffffffffffffffffff168152602001915050602060405180830381600087803b15801561174757600080fd5b505af115801561175b573d6000803e3d6000fd5b505050506040513d602081101561177157600080fd5b8101908080519060200190929190505050151561181c576040517f08c379a00000000000000000000000000000000000000000000000000000000081526004018080602001828103825260298152602001807f46756e6374696f6e2063616e206f6e6c792062652063616c6c6564206279206381526020017f6f6e74726163747321000000000000000000000000000000000000000000000081525060400191505060405180910390fd5b8060016000856000191660001916815260200190815260200160002060008473ffffffffffffffffffffffffffffffffffffffff1673ffffffffffffffffffffffffffffffffffffffff16815260200190815260200160002060060181905550505050565b606060016000846000191660001916815260200190815260200160002060008373ffffffffffffffffffffffffffffffffffffffff1673ffffffffffffffffffffffffffffffffffffffff16815260200190815260200160002060040180548060200260200160405190810160405280929190818152602001828054801561192c57602002820191906000526020600020905b81546000191681526020019060010190808311611914575b5050505050905092915050565b6000809054906101000a900473ffffffffffffffffffffffffffffffffffffffff1673ffffffffffffffffffffffffffffffffffffffff166316279055336040518263ffffffff167c0100000000000000000000000000000000000000000000000000000000028152600401808273ffffffffffffffffffffffffffffffffffffffff1673ffffffffffffffffffffffffffffffffffffffff168152602001915050602060405180830381600087803b1580156119f557600080fd5b505af1158015611a09573d6000803e3d6000fd5b505050506040513d6020811015611a1f57600080fd5b81019080805190602001909291905050501515611aca576040517f08c379a00000000000000000000000000000000000000000000000000000000081526004018080602001828103825260298152602001807f46756e6374696f6e2063616e206f6e6c792062652063616c6c6564206279206381526020017f6f6e74726163747321000000000000000000000000000000000000000000000081525060400191505060405180910390fd5b8060016000856000191660001916815260200190815260200160002060008473ffffffffffffffffffffffffffffffffffffffff1673ffffffffffffffffffffffffffffffffffffffff16815260200190815260200160002060000160006101000a81548173ffffffffffffffffffffffffffffffffffffffff021916908373ffffffffffffffffffffffffffffffffffffffff160217905550505050565b600060016000846000191660001916815260200190815260200160002060008373ffffffffffffffffffffffffffffffffffffffff1673ffffffffffffffffffffffffffffffffffffffff16815260200190815260200160002060030154905092915050565b600060016000846000191660001916815260200190815260200160002060008373ffffffffffffffffffffffffffffffffffffffff1673ffffffffffffffffffffffffffffffffffffffff16815260200190815260200160002060070154905092915050565b6000809054906101000a900473ffffffffffffffffffffffffffffffffffffffff1673ffffffffffffffffffffffffffffffffffffffff166316279055336040518263ffffffff167c0100000000000000000000000000000000000000000000000000000000028152600401808273ffffffffffffffffffffffffffffffffffffffff1673ffffffffffffffffffffffffffffffffffffffff168152602001915050602060405180830381600087803b158015611cf157600080fd5b505af1158015611d05573d6000803e3d6000fd5b505050506040513d6020811015611d1b57600080fd5b81019080805190602001909291905050501515611dc6576040517f08c379a00000000000000000000000000000000000000000000000000000000081526004018080602001828103825260298152602001807f46756e6374696f6e2063616e206f6e6c792062652063616c6c6564206279206381526020017f6f6e74726163747321000000000000000000000000000000000000000000000081525060400191505060405180910390fd5b8060016000856000191660001916815260200190815260200160002060008473ffffffffffffffffffffffffffffffffffffffff1673ffffffffffffffffffffffffffffffffffffffff1681526020019081526020016000206007018160001916905550505050565b6000809054906101000a900473ffffffffffffffffffffffffffffffffffffffff1673ffffffffffffffffffffffffffffffffffffffff166316279055336040518263ffffffff167c0100000000000000000000000000000000000000000000000000000000028152600401808273ffffffffffffffffffffffffffffffffffffffff1673ffffffffffffffffffffffffffffffffffffffff168152602001915050602060405180830381600087803b158015611eeb57600080fd5b505af1158015611eff573d6000803e3d6000fd5b505050506040513d6020811015611f1557600080fd5b81019080805190602001909291905050501515611fc0576040517f08c379a00000000000000000000000000000000000000000000000000000000081526004018080602001828103825260298152602001807f46756e6374696f6e2063616e206f6e6c792062652063616c6c6564206279206381526020017f6f6e74726163747321000000000000000000000000000000000000000000000081525060400191505060405180910390fd5b806000806101000a81548173ffffffffffffffffffffffffffffffffffffffff021916908373ffffffffffffffffffffffffffffffffffffffff16021790555050565b6000809054906101000a900473ffffffffffffffffffffffffffffffffffffffff1673ffffffffffffffffffffffffffffffffffffffff166316279055336040518263ffffffff167c0100000000000000000000000000000000000000000000000000000000028152600401808273ffffffffffffffffffffffffffffffffffffffff1673ffffffffffffffffffffffffffffffffffffffff168152602001915050602060405180830381600087803b1580156120bf57600080fd5b505af11580156120d3573d6000803e3d6000fd5b505050506040513d60208110156120e957600080fd5b81019080805190602001909291905050501515612194576040517f08c379a00000000000000000000000000000000000000000000000000000000081526004018080602001828103825260298152602001807f46756e6374696f6e2063616e206f6e6c792062652063616c6c6564206279206381526020017f6f6e74726163747321000000000000000000000000000000000000000000000081525060400191505060405180910390fd5b8060016000856000191660001916815260200190815260200160002060008473ffffffffffffffffffffffffffffffffffffffff1673ffffffffffffffffffffffffffffffffffffffff16815260200190815260200160002060080181905550505050565b600060016000846000191660001916815260200190815260200160002060008373ffffffffffffffffffffffffffffffffffffffff1673ffffffffffffffffffffffffffffffffffffffff16815260200190815260200160002060000160009054906101000a900473ffffffffffffffffffffffffffffffffffffffff16905092915050565b600060016000846000191660001916815260200190815260200160002060008373ffffffffffffffffffffffffffffffffffffffff1673ffffffffffffffffffffffffffffffffffffffff16815260200190815260200160002060020154905092915050565b828054828255906000526020600020908101928215612327579160200282015b82811115612326578251829060001916905591602001919060010190612305565b5b5090506123349190612338565b5090565b61235a91905b8082111561235657600081600090555060010161233e565b5090565b905600a165627a7a7230582036cc2fb2d5cb3258d70475c2a80bf41299e68a0ba7ddc8e16d590a9f976c1fbc0029",
  "source": "pragma solidity ^0.4.25;\n\nimport {Hub} from \"./Hub.sol\";\n\ncontract LitigationStorage {\n\tHub public hub;\n\t\n\tconstructor(address hubAddress) public{\n\t\thub = Hub(hubAddress);\n\t}\n\n\tfunction setHubAddress(address newHubAddress) public onlyContracts {\n\t\thub = Hub(newHubAddress);\n\t}\n\n\tmodifier onlyContracts() {\n\t\trequire(hub.isContract(msg.sender),\n\t\t\"Function can only be called by contracts!\");\n\t\t_;\n\t}\n\t\n\tenum LitigationStatus {completed, initiated, answered, replacing, replaced}\n\n\tstruct LitigationDefinition{\n\t\taddress litigatorIdentity;\n\n\t\tuint256 requestedObjectIndex;\n\t\tuint256 requestedBlockIndex;\n\t\tbytes32 requestedData;\n\t\tbytes32[] hashArray;\n\t\t\n\t\tLitigationStatus status;\n\t\tuint256 timestamp;\n\n\t\tbytes32 replacementTask;\n\t\tuint256 replacementDifficulty;\n\t}\n\n\tmapping(bytes32 => mapping(address => LitigationDefinition)) public litigation; // litigation[offerId][holderIdentity]\n\t\n\tfunction setLitigationLitigatorIdentity (bytes32 offerId, address holderIdentity, address litigatorIdentity)\n\tpublic onlyContracts {\n\t\tlitigation[offerId][holderIdentity].litigatorIdentity = litigatorIdentity;\n\t}\n\tfunction setLitigationRequestedObjectIndex (bytes32 offerId, address holderIdentity, uint256 requestedObjectIndex)\n\tpublic onlyContracts {\n\t\tlitigation[offerId][holderIdentity].requestedObjectIndex = requestedObjectIndex;\n\t}\n\tfunction setLitigationRequestedBlockIndex (bytes32 offerId, address holderIdentity, uint256 requestedBlockIndex)\n\tpublic onlyContracts {\n\t\tlitigation[offerId][holderIdentity].requestedBlockIndex = requestedBlockIndex;\n\t}\n\tfunction setLitigationRequestedData (bytes32 offerId, address holderIdentity, bytes32 requestedData)\n\tpublic onlyContracts {\n\t\tlitigation[offerId][holderIdentity].requestedData = requestedData;\n\t}\n\tfunction setLitigationHashArray (bytes32 offerId, address holderIdentity, bytes32[] hashArray)\n\tpublic onlyContracts {\n\t\tlitigation[offerId][holderIdentity].hashArray = hashArray;\n\t}\n\tfunction setLitigationStatus (bytes32 offerId, address holderIdentity, LitigationStatus status)\n\tpublic onlyContracts {\n\t\tlitigation[offerId][holderIdentity].status = status;\n\t}\n\tfunction setLitigationTimestamp (bytes32 offerId, address holderIdentity, uint256 timestamp)\n\tpublic onlyContracts {\n\t\tlitigation[offerId][holderIdentity].timestamp = timestamp;\n\t}\n\tfunction setLitigationReplacementTask (bytes32 offerId, address holderIdentity, bytes32 replacementTask)\n\tpublic onlyContracts {\n\t\tlitigation[offerId][holderIdentity].replacementTask = replacementTask;\n\t}\n\tfunction setLitigationReplacementDifficulty (bytes32 offerId, address holderIdentity, uint256 replacementDifficulty)\n\tpublic onlyContracts {\n\t\tlitigation[offerId][holderIdentity].replacementDifficulty = replacementDifficulty;\n\t}\n\n\tfunction getLitigationLitigatorIdentity (bytes32 offerId, address holderIdentity)\n\tpublic view returns (address litigatorIdentity){\n\t\treturn litigation[offerId][holderIdentity].litigatorIdentity;\n\t}\n\tfunction getLitigationRequestedObjectIndex (bytes32 offerId, address holderIdentity)\n\tpublic view returns (uint256 requestedObjectIndex){\n\t\treturn litigation[offerId][holderIdentity].requestedObjectIndex;\n\t}\n\tfunction getLitigationRequestedBlockIndex (bytes32 offerId, address holderIdentity)\n\tpublic view returns (uint256 requestedBlockIndex){\n\t\treturn litigation[offerId][holderIdentity].requestedBlockIndex;\n\t}\n\tfunction getLitigationRequestedData (bytes32 offerId, address holderIdentity)\n\tpublic view returns (bytes32 requestedData){\n\t\treturn litigation[offerId][holderIdentity].requestedData;\n\t}\n\tfunction getLitigationHashArray (bytes32 offerId, address holderIdentity)\n\tpublic view returns (bytes32[] hashArray){\n\t\treturn litigation[offerId][holderIdentity].hashArray;\n\t}\n\tfunction getLitigationStatus (bytes32 offerId, address holderIdentity)\n\tpublic view returns (LitigationStatus status){\n\t\treturn litigation[offerId][holderIdentity].status;\n\t}\n\tfunction getLitigationTimestamp (bytes32 offerId, address holderIdentity)\n\tpublic view returns (uint256 timestamp){\n\t\treturn litigation[offerId][holderIdentity].timestamp;\n\t}\n\tfunction getLitigationReplacementTask (bytes32 offerId, address holderIdentity)\n\tpublic view returns (bytes32 replacementTask) {\n\t\treturn litigation[offerId][holderIdentity].replacementTask;\n\t}\n\tfunction getLitigationReplacementDifficulty (bytes32 offerId, address holderIdentity)\n\tpublic view returns (uint256 replacementDifficulty) {\n\t\treturn litigation[offerId][holderIdentity].replacementDifficulty;\n\t}\n}",
  "sourcePath": "/Users/miloskotlar/starfleet-node/tests/truffle-tests/contracts/LitigationStorage.sol",
  "compiler": {
    "name": "solc",
    "version": "0.4.26+commit.4563c3fc.Emscripten.clang"
  },
  "schemaVersion": "3.0.16",
  "updatedAt": "2021-02-11T16:12:13.869Z",
  "devdoc": {
    "methods": {}
  },
  "userdoc": {
    "methods": {}
  }
}