{
  "contractName": "Marketplace",
  "abi": [
    {
      "constant": true,
      "inputs": [],
      "name": "hub",
      "outputs": [
        {
          "name": "",
          "type": "address"
        }
      ],
      "payable": false,
      "stateMutability": "view",
      "type": "function"
    },
    {
      "constant": true,
      "inputs": [],
      "name": "paymentStageInterval",
      "outputs": [
        {
          "name": "",
          "type": "uint256"
        }
      ],
      "payable": false,
      "stateMutability": "view",
      "type": "function"
    },
    {
      "inputs": [
        {
          "name": "hubAddress",
          "type": "address"
        }
      ],
      "payable": false,
      "stateMutability": "nonpayable",
      "type": "constructor"
    },
    {
      "anonymous": false,
      "inputs": [
        {
          "indexed": false,
          "name": "purchaseId",
          "type": "bytes32"
        },
        {
          "indexed": false,
          "name": "sellerIdentity",
          "type": "address"
        },
        {
          "indexed": false,
          "name": "buyerIdentity",
          "type": "address"
        },
        {
          "indexed": false,
          "name": "price",
          "type": "uint256"
        },
        {
          "indexed": false,
          "name": "originalDataRootHash",
          "type": "bytes32"
        },
        {
          "indexed": false,
          "name": "encodedDataRootHash",
          "type": "bytes32"
        }
      ],
      "name": "PurchaseInitiated",
      "type": "event"
    },
    {
      "anonymous": false,
      "inputs": [
        {
          "indexed": false,
          "name": "purchaseId",
          "type": "bytes32"
        },
        {
          "indexed": false,
          "name": "key",
          "type": "bytes32"
        }
      ],
      "name": "KeyDeposited",
      "type": "event"
    },
    {
      "anonymous": false,
      "inputs": [
        {
          "indexed": false,
          "name": "purchaseId",
          "type": "bytes32"
        },
        {
          "indexed": false,
          "name": "sellerIdentity",
          "type": "address"
        },
        {
          "indexed": false,
          "name": "buyerIdentity",
          "type": "address"
        }
      ],
      "name": "MisbehaviourProven",
      "type": "event"
    },
    {
      "anonymous": false,
      "inputs": [
        {
          "indexed": false,
          "name": "purchaseId",
          "type": "bytes32"
        },
        {
          "indexed": false,
          "name": "sellerIdentity",
          "type": "address"
        },
        {
          "indexed": false,
          "name": "buyerIdentity",
          "type": "address"
        }
      ],
      "name": "PurchaseCompleted",
      "type": "event"
    },
    {
      "constant": false,
      "inputs": [
        {
          "name": "newHubAddress",
          "type": "address"
        }
      ],
      "name": "setHubAddress",
      "outputs": [],
      "payable": false,
      "stateMutability": "nonpayable",
      "type": "function"
    },
    {
      "constant": false,
      "inputs": [
        {
          "name": "sellerIdentity",
          "type": "address"
        },
        {
          "name": "buyerIdentity",
          "type": "address"
        },
        {
          "name": "price",
          "type": "uint256"
        },
        {
          "name": "originalDataRootHash",
          "type": "bytes32"
        },
        {
          "name": "encodedDataRootHash",
          "type": "bytes32"
        }
      ],
      "name": "initiatePurchase",
      "outputs": [],
      "payable": false,
      "stateMutability": "nonpayable",
      "type": "function"
    },
    {
      "constant": false,
      "inputs": [
        {
          "name": "purchaseId",
          "type": "bytes32"
        },
        {
          "name": "key",
          "type": "bytes32"
        }
      ],
      "name": "depositKey",
      "outputs": [],
      "payable": false,
      "stateMutability": "nonpayable",
      "type": "function"
    },
    {
      "constant": false,
      "inputs": [
        {
          "name": "purchaseId",
          "type": "bytes32"
        }
      ],
      "name": "takePayment",
      "outputs": [],
      "payable": false,
      "stateMutability": "nonpayable",
      "type": "function"
    },
    {
      "constant": false,
      "inputs": [
        {
          "name": "purchaseId",
          "type": "bytes32"
        },
        {
          "name": "_originalDataRootEncoded",
          "type": "bytes32"
        },
        {
          "name": "_proofOfEncodedData",
          "type": "bytes32[]"
        },
        {
          "name": "_indexOfRootHash",
          "type": "uint256"
        }
      ],
      "name": "complainAboutRoot",
      "outputs": [],
      "payable": false,
      "stateMutability": "nonpayable",
      "type": "function"
    },
    {
      "constant": false,
      "inputs": [
        {
          "name": "purchaseId",
          "type": "bytes32"
        },
        {
          "name": "_indexOfEncodedOutput",
          "type": "uint256"
        },
        {
          "name": "_indexOfEncodedInputLeft",
          "type": "uint256"
        },
        {
          "name": "_encodedOutput",
          "type": "bytes32"
        },
        {
          "name": "_encodedInputLeft",
          "type": "bytes32"
        },
        {
          "name": "_proofOfEncodedOutput",
          "type": "bytes32[]"
        },
        {
          "name": "_proofOfEncodedInput",
          "type": "bytes32[]"
        }
      ],
      "name": "complainAboutNode",
      "outputs": [],
      "payable": false,
      "stateMutability": "nonpayable",
      "type": "function"
    },
    {
      "constant": true,
      "inputs": [
        {
          "name": "_index",
          "type": "uint256"
        },
        {
          "name": "_ciphertext",
          "type": "bytes32"
        },
        {
          "name": "_key",
          "type": "bytes32"
        }
      ],
      "name": "decryptCiphertext",
      "outputs": [
        {
          "name": "",
          "type": "bytes32"
        }
      ],
      "payable": false,
      "stateMutability": "pure",
      "type": "function"
    },
    {
      "constant": true,
      "inputs": [
        {
          "name": "_index",
          "type": "uint256"
        },
        {
          "name": "_value",
          "type": "bytes32"
        },
        {
          "name": "_proof",
          "type": "bytes32[]"
        },
        {
          "name": "_encodedDataRootHash",
          "type": "bytes32"
        }
      ],
      "name": "verifyMerkleTreeProof",
      "outputs": [
        {
          "name": "",
          "type": "bool"
        }
      ],
      "payable": false,
      "stateMutability": "view",
      "type": "function"
    }
  ],
  "bytecode": "0x608060405261012c6001553480156200001757600080fd5b506040516020806200654783398101806040528101908080519060200190929190505050600073ffffffffffffffffffffffffffffffffffffffff168173ffffffffffffffffffffffffffffffffffffffff16141515156200007857600080fd5b806000806101000a81548173ffffffffffffffffffffffffffffffffffffffff021916908373ffffffffffffffffffffffffffffffffffffffff1602179055505061647e80620000c96000396000f3006080604052600436106100a4576000357c0100000000000000000000000000000000000000000000000000000000900463ffffffff16806310a2d0d7146100a95780632eff62c5146100e8578063365a86fc146101195780635c31aa6514610170578063691c6deb146102575780637a2af0251461028257806392b775c61461030e578063940e6f29146103735780639e6731ad146103fc578063c7eb4522146104a0575b600080fd5b3480156100b557600080fd5b506100e6600480360381019080803560001916906020019092919080356000191690602001909291905050506104e3565b005b3480156100f457600080fd5b506101176004803603810190808035600019169060200190929190505050610f74565b005b34801561012557600080fd5b5061012e612396565b604051808273ffffffffffffffffffffffffffffffffffffffff1673ffffffffffffffffffffffffffffffffffffffff16815260200191505060405180910390f35b34801561017c57600080fd5b50610255600480360381019080803560001916906020019092919080359060200190929190803590602001909291908035600019169060200190929190803560001916906020019092919080359060200190820180359060200190808060200260200160405190810160405280939291908181526020018383602002808284378201915050505050509192919290803590602001908201803590602001908080602002602001604051908101604052809392919081815260200183836020028082843782019150505050505091929192905050506123bb565b005b34801561026357600080fd5b5061026c612b94565b6040518082815260200191505060405180910390f35b34801561028e57600080fd5b5061030c600480360381019080803560001916906020019092919080356000191690602001909291908035906020019082018035906020019080806020026020016040519081016040528093929190818152602001838360200280828437820191505050505050919291929080359060200190929190505050612b9a565b005b34801561031a57600080fd5b506103556004803603810190808035906020019092919080356000191690602001909291908035600019169060200190929190505050613219565b60405180826000191660001916815260200191505060405180910390f35b34801561037f57600080fd5b506103fa600480360381019080803573ffffffffffffffffffffffffffffffffffffffff169060200190929190803573ffffffffffffffffffffffffffffffffffffffff16906020019092919080359060200190929190803560001916906020019092919080356000191690602001909291905050506132b8565b005b34801561040857600080fd5b50610486600480360381019080803590602001909291908035600019169060200190929190803590602001908201803590602001908080602002602001604051908101604052809392919081815260200183836020028082843782019150505050505091929192908035600019169060200190929190505050614623565b604051808215151515815260200191505060405180910390f35b3480156104ac57600080fd5b506104e1600480360381019080803573ffffffffffffffffffffffffffffffffffffffff1690602001909291905050506147f1565b005b6000806000846001900414151515610589576040517f08c379a000000000000000000000000000000000000000000000000000000000815260040180806020018281038252602f8152602001807f43616e6e6f742072657665616c206b657920776974686f75742070757263686181526020017f7365206964207375626d6974746564000000000000000000000000000000000081525060400191505060405180910390fd5b600083600190041415151561062c576040517f08c379a00000000000000000000000000000000000000000000000000000000081526004018080602001828103825260278152602001807f43616e6e6f742072657665616c206b657920776974686f7574206b657920737581526020017f626d69747465640000000000000000000000000000000000000000000000000081525060400191505060405180910390fd5b6000809054906101000a900473ffffffffffffffffffffffffffffffffffffffff1673ffffffffffffffffffffffffffffffffffffffff166304433bbc6040518163ffffffff167c01000000000000000000000000000000000000000000000000000000000281526004018080602001828103825260128152602001807f4d61726b6574706c61636553746f726167650000000000000000000000000000815250602001915050602060405180830381600087803b1580156106ed57600080fd5b505af1158015610701573d6000803e3d6000fd5b505050506040513d602081101561071757600080fd5b810190808051906020019092919050505091508173ffffffffffffffffffffffffffffffffffffffff16637e44e504856040518263ffffffff167c0100000000000000000000000000000000000000000000000000000000028152600401808260001916600019168152602001915050602060405180830381600087803b1580156107a157600080fd5b505af11580156107b5573d6000803e3d6000fd5b505050506040513d60208110156107cb57600080fd5b810190808051906020019092919050505090508073ffffffffffffffffffffffffffffffffffffffff1663d202158d33604051602001808273ffffffffffffffffffffffffffffffffffffffff1673ffffffffffffffffffffffffffffffffffffffff166c010000000000000000000000000281526014019150506040516020818303038152906040526040518082805190602001908083835b60208310151561088a5780518252602082019150602081019050602083039250610865565b6001836020036101000a038019825116818451168082178552505050505050905001915050604051809103902060026040518363ffffffff167c010000000000000000000000000000000000000000000000000000000002815260040180836000191660001916815260200182815260200192505050602060405180830381600087803b15801561091a57600080fd5b505af115801561092e573d6000803e3d6000fd5b505050506040513d602081101561094457600080fd5b810190808051906020019092919050505080610ad357508073ffffffffffffffffffffffffffffffffffffffff1663d202158d33604051602001808273ffffffffffffffffffffffffffffffffffffffff1673ffffffffffffffffffffffffffffffffffffffff166c010000000000000000000000000281526014019150506040516020818303038152906040526040518082805190602001908083835b602083101515610a0757805182526020820191506020810190506020830392506109e2565b6001836020036101000a038019825116818451168082178552505050505050905001915050604051809103902060016040518363ffffffff167c010000000000000000000000000000000000000000000000000000000002815260040180836000191660001916815260200182815260200192505050602060405180830381600087803b158015610a9757600080fd5b505af1158015610aab573d6000803e3d6000fd5b505050506040513d6020811015610ac157600080fd5b81019080805190602001909291905050505b1515610b47576040517f08c379a000000000000000000000000000000000000000000000000000000000815260040180806020018281038252601b8152602001807f4f6e6c792073656c6c65722063616e2072657665616c206b657921000000000081525060200191505060405180910390fd5b60018273ffffffffffffffffffffffffffffffffffffffff1663ae844f74866040518263ffffffff167c0100000000000000000000000000000000000000000000000000000000028152600401808260001916600019168152602001915050602060405180830381600087803b158015610bc057600080fd5b505af1158015610bd4573d6000803e3d6000fd5b505050506040513d6020811015610bea57600080fd5b8101908080519060200190929190505050141515610c96576040517f08c379a000000000000000000000000000000000000000000000000000000000815260040180806020018281038252602f8152602001807f4b65792063616e206f6e6c792062652072657665616c656420696e207468652081526020017f696e69746961746564207374616765000000000000000000000000000000000081525060400191505060405180910390fd5b8173ffffffffffffffffffffffffffffffffffffffff166307a0033085856040518363ffffffff167c0100000000000000000000000000000000000000000000000000000000028152600401808360001916600019168152602001826000191660001916815260200192505050600060405180830381600087803b158015610d1d57600080fd5b505af1158015610d31573d6000803e3d6000fd5b505050508173ffffffffffffffffffffffffffffffffffffffff16633074372685426040518363ffffffff167c010000000000000000000000000000000000000000000000000000000002815260040180836000191660001916815260200182815260200192505050600060405180830381600087803b158015610db457600080fd5b505af1158015610dc8573d6000803e3d6000fd5b505050508173ffffffffffffffffffffffffffffffffffffffff1663bfc73cfd8560026040518363ffffffff167c010000000000000000000000000000000000000000000000000000000002815260040180836000191660001916815260200182815260200192505050600060405180830381600087803b158015610e4c57600080fd5b505af1158015610e60573d6000803e3d6000fd5b50505050610f1f818373ffffffffffffffffffffffffffffffffffffffff166331d98b3f876040518263ffffffff167c0100000000000000000000000000000000000000000000000000000000028152600401808260001916600019168152602001915050602060405180830381600087803b158015610edf57600080fd5b505af1158015610ef3573d6000803e3d6000fd5b505050506040513d6020811015610f0957600080fd5b8101908080519060200190929190505050614a01565b7f085125356d0e6a726b611531ed99af43bc381be83e7a55a9b0f111578236168b848460405180836000191660001916815260200182600019166000191681526020019250505060405180910390a150505050565b60008060008060008086600190041415151561101e576040517f08c379a00000000000000000000000000000000000000000000000000000000081526004018080602001828103825260328152602001807f43616e6e6f742074616b65207061796d656e742020776974686f75742070757281526020017f6368617365206964207375626d6974746564000000000000000000000000000081525060400191505060405180910390fd5b6000809054906101000a900473ffffffffffffffffffffffffffffffffffffffff1673ffffffffffffffffffffffffffffffffffffffff166304433bbc6040518163ffffffff167c01000000000000000000000000000000000000000000000000000000000281526004018080602001828103825260128152602001807f4d61726b6574706c61636553746f726167650000000000000000000000000000815250602001915050602060405180830381600087803b1580156110df57600080fd5b505af11580156110f3573d6000803e3d6000fd5b505050506040513d602081101561110957600080fd5b8101908080519060200190929190505050945060028573ffffffffffffffffffffffffffffffffffffffff1663ae844f74886040518263ffffffff167c0100000000000000000000000000000000000000000000000000000000028152600401808260001916600019168152602001915050602060405180830381600087803b15801561119557600080fd5b505af11580156111a9573d6000803e3d6000fd5b505050506040513d60208110156111bf57600080fd5b810190808051906020019092919050505014151561126b576040517f08c379a00000000000000000000000000000000000000000000000000000000081526004018080602001828103825260338152602001807f5061796d656e742063616e206f6e6c792062652074616b656e20696e2074686581526020017f204b65794465706f73697465642073746167650000000000000000000000000081525060400191505060405180910390fd5b6001548573ffffffffffffffffffffffffffffffffffffffff1663d45c4435886040518263ffffffff167c0100000000000000000000000000000000000000000000000000000000028152600401808260001916600019168152602001915050602060405180830381600087803b1580156112e557600080fd5b505af11580156112f9573d6000803e3d6000fd5b505050506040513d602081101561130f57600080fd5b810190808051906020019092919050505001421115156113bd576040517f08c379a00000000000000000000000000000000000000000000000000000000081526004018080602001828103825260258152602001807f436f6d706c61696e742077696e646f7720686173206e6f74207965742065787081526020017f697265642100000000000000000000000000000000000000000000000000000081525060400191505060405180910390fd5b8473ffffffffffffffffffffffffffffffffffffffff166387cc5a1c876040518263ffffffff167c0100000000000000000000000000000000000000000000000000000000028152600401808260001916600019168152602001915050602060405180830381600087803b15801561143457600080fd5b505af1158015611448573d6000803e3d6000fd5b505050506040513d602081101561145e57600080fd5b810190808051906020019092919050505093508473ffffffffffffffffffffffffffffffffffffffff16637e44e504876040518263ffffffff167c0100000000000000000000000000000000000000000000000000000000028152600401808260001916600019168152602001915050602060405180830381600087803b1580156114e857600080fd5b505af11580156114fc573d6000803e3d6000fd5b505050506040513d602081101561151257600080fd5b810190808051906020019092919050505092508473ffffffffffffffffffffffffffffffffffffffff166331d98b3f876040518263ffffffff167c0100000000000000000000000000000000000000000000000000000000028152600401808260001916600019168152602001915050602060405180830381600087803b15801561159c57600080fd5b505af11580156115b0573d6000803e3d6000fd5b505050506040513d60208110156115c657600080fd5b810190808051906020019092919050505091506000809054906101000a900473ffffffffffffffffffffffffffffffffffffffff1673ffffffffffffffffffffffffffffffffffffffff166304433bbc6040518163ffffffff167c010000000000000000000000000000000000000000000000000000000002815260040180806020018281038252600e8152602001807f50726f66696c6553746f72616765000000000000000000000000000000000000815250602001915050602060405180830381600087803b15801561169a57600080fd5b505af11580156116ae573d6000803e3d6000fd5b505050506040513d60208110156116c457600080fd5b81019080805190602001909291905050509050818173ffffffffffffffffffffffffffffffffffffffff16637a766460866040518263ffffffff167c0100000000000000000000000000000000000000000000000000000000028152600401808273ffffffffffffffffffffffffffffffffffffffff1673ffffffffffffffffffffffffffffffffffffffff168152602001915050602060405180830381600087803b15801561177357600080fd5b505af1158015611787573d6000803e3d6000fd5b505050506040513d602081101561179d57600080fd5b81019080805190602001909291905050501015151561184a576040517f08c379a000000000000000000000000000000000000000000000000000000000815260040180806020018281038252602e8152602001807f427579657220646f6573206e6f74206861766520656e6f75676820746f6b656e81526020017f7320746f207472616e736665722100000000000000000000000000000000000081525060400191505060405180910390fd5b818173ffffffffffffffffffffffffffffffffffffffff16635ffe0282866040518263ffffffff167c0100000000000000000000000000000000000000000000000000000000028152600401808273ffffffffffffffffffffffffffffffffffffffff1673ffffffffffffffffffffffffffffffffffffffff168152602001915050602060405180830381600087803b1580156118e657600080fd5b505af11580156118fa573d6000803e3d6000fd5b505050506040513d602081101561191057600080fd5b8101908080519060200190929190505050101515156119bd576040517f08c379a00000000000000000000000000000000000000000000000000000000081526004018080602001828103825260378152602001807f427579657220646f6573206e6f74206861766520656e6f75676820746f6b656e81526020017f7320726573657276656420746f207472616e736665722100000000000000000081525060400191505060405180910390fd5b8073ffffffffffffffffffffffffffffffffffffffff166350c3ff5785611ac2858573ffffffffffffffffffffffffffffffffffffffff16635ffe02828a6040518263ffffffff167c0100000000000000000000000000000000000000000000000000000000028152600401808273ffffffffffffffffffffffffffffffffffffffff1673ffffffffffffffffffffffffffffffffffffffff168152602001915050602060405180830381600087803b158015611a7957600080fd5b505af1158015611a8d573d6000803e3d6000fd5b505050506040513d6020811015611aa357600080fd5b810190808051906020019092919050505061533c90919063ffffffff16565b6040518363ffffffff167c0100000000000000000000000000000000000000000000000000000000028152600401808373ffffffffffffffffffffffffffffffffffffffff1673ffffffffffffffffffffffffffffffffffffffff16815260200182815260200192505050600060405180830381600087803b158015611b4757600080fd5b505af1158015611b5b573d6000803e3d6000fd5b505050508073ffffffffffffffffffffffffffffffffffffffff1663bd3cd52585611c64858573ffffffffffffffffffffffffffffffffffffffff16637a7664608a6040518263ffffffff167c0100000000000000000000000000000000000000000000000000000000028152600401808273ffffffffffffffffffffffffffffffffffffffff1673ffffffffffffffffffffffffffffffffffffffff168152602001915050602060405180830381600087803b158015611c1b57600080fd5b505af1158015611c2f573d6000803e3d6000fd5b505050506040513d6020811015611c4557600080fd5b810190808051906020019092919050505061533c90919063ffffffff16565b6040518363ffffffff167c0100000000000000000000000000000000000000000000000000000000028152600401808373ffffffffffffffffffffffffffffffffffffffff1673ffffffffffffffffffffffffffffffffffffffff16815260200182815260200192505050600060405180830381600087803b158015611ce957600080fd5b505af1158015611cfd573d6000803e3d6000fd5b505050508073ffffffffffffffffffffffffffffffffffffffff1663bd3cd52584611e06858573ffffffffffffffffffffffffffffffffffffffff16637a766460896040518263ffffffff167c0100000000000000000000000000000000000000000000000000000000028152600401808273ffffffffffffffffffffffffffffffffffffffff1673ffffffffffffffffffffffffffffffffffffffff168152602001915050602060405180830381600087803b158015611dbd57600080fd5b505af1158015611dd1573d6000803e3d6000fd5b505050506040513d6020811015611de757600080fd5b810190808051906020019092919050505061535590919063ffffffff16565b6040518363ffffffff167c0100000000000000000000000000000000000000000000000000000000028152600401808373ffffffffffffffffffffffffffffffffffffffff1673ffffffffffffffffffffffffffffffffffffffff16815260200182815260200192505050600060405180830381600087803b158015611e8b57600080fd5b505af1158015611e9f573d6000803e3d6000fd5b50505050818173ffffffffffffffffffffffffffffffffffffffff16635ffe0282856040518263ffffffff167c0100000000000000000000000000000000000000000000000000000000028152600401808273ffffffffffffffffffffffffffffffffffffffff1673ffffffffffffffffffffffffffffffffffffffff168152602001915050602060405180830381600087803b158015611f3f57600080fd5b505af1158015611f53573d6000803e3d6000fd5b505050506040513d6020811015611f6957600080fd5b810190808051906020019092919050505010151515612016576040517f08c379a00000000000000000000000000000000000000000000000000000000081526004018080602001828103825260368152602001807f53656c6c657220646f6573206e6f74206861766520656e6f75676820746f6b6581526020017f6e7320726573657276656420746f20756e6c6f636b210000000000000000000081525060400191505060405180910390fd5b8073ffffffffffffffffffffffffffffffffffffffff166350c3ff578461211b858573ffffffffffffffffffffffffffffffffffffffff16635ffe0282896040518263ffffffff167c0100000000000000000000000000000000000000000000000000000000028152600401808273ffffffffffffffffffffffffffffffffffffffff1673ffffffffffffffffffffffffffffffffffffffff168152602001915050602060405180830381600087803b1580156120d257600080fd5b505af11580156120e6573d6000803e3d6000fd5b505050506040513d60208110156120fc57600080fd5b810190808051906020019092919050505061533c90919063ffffffff16565b6040518363ffffffff167c0100000000000000000000000000000000000000000000000000000000028152600401808373ffffffffffffffffffffffffffffffffffffffff1673ffffffffffffffffffffffffffffffffffffffff16815260200182815260200192505050600060405180830381600087803b1580156121a057600080fd5b505af11580156121b4573d6000803e3d6000fd5b505050508473ffffffffffffffffffffffffffffffffffffffff1663bfc73cfd8760036040518363ffffffff167c010000000000000000000000000000000000000000000000000000000002815260040180836000191660001916815260200182815260200192505050600060405180830381600087803b15801561223857600080fd5b505af115801561224c573d6000803e3d6000fd5b505050508473ffffffffffffffffffffffffffffffffffffffff16633074372687426040518363ffffffff167c010000000000000000000000000000000000000000000000000000000002815260040180836000191660001916815260200182815260200192505050600060405180830381600087803b1580156122cf57600080fd5b505af11580156122e3573d6000803e3d6000fd5b505050507f3c714883152f8c067c4b9eb1d7ebc8bf19da6a1999475e4842aba88c939431438684866040518084600019166000191681526020018373ffffffffffffffffffffffffffffffffffffffff1673ffffffffffffffffffffffffffffffffffffffff1681526020018273ffffffffffffffffffffffffffffffffffffffff1673ffffffffffffffffffffffffffffffffffffffff168152602001935050505060405180910390a1505050505050565b6000809054906101000a900473ffffffffffffffffffffffffffffffffffffffff1681565b6000806000806000808c6001900414151515612465576040517f08c379a00000000000000000000000000000000000000000000000000000000081526004018080602001828103825260328152602001807f43616e6e6f742074616b65207061796d656e742020776974686f75742070757281526020017f6368617365206964207375626d6974746564000000000000000000000000000081525060400191505060405180910390fd5b6000809054906101000a900473ffffffffffffffffffffffffffffffffffffffff1673ffffffffffffffffffffffffffffffffffffffff166304433bbc6040518163ffffffff167c01000000000000000000000000000000000000000000000000000000000281526004018080602001828103825260128152602001807f4d61726b6574706c61636553746f726167650000000000000000000000000000815250602001915050602060405180830381600087803b15801561252657600080fd5b505af115801561253a573d6000803e3d6000fd5b505050506040513d602081101561255057600080fd5b810190808051906020019092919050505094508473ffffffffffffffffffffffffffffffffffffffff166312aaac708d6040518263ffffffff167c0100000000000000000000000000000000000000000000000000000000028152600401808260001916600019168152602001915050602060405180830381600087803b1580156125da57600080fd5b505af11580156125ee573d6000803e3d6000fd5b505050506040513d602081101561260457600080fd5b810190808051906020019092919050505093508473ffffffffffffffffffffffffffffffffffffffff1663ab32e5698d6040518263ffffffff167c0100000000000000000000000000000000000000000000000000000000028152600401808260001916600019168152602001915050602060405180830381600087803b15801561268e57600080fd5b505af11580156126a2573d6000803e3d6000fd5b505050506040513d60208110156126b857600080fd5b8101908080519060200190929190505050925060028573ffffffffffffffffffffffffffffffffffffffff1663ae844f748e6040518263ffffffff167c0100000000000000000000000000000000000000000000000000000000028152600401808260001916600019168152602001915050602060405180830381600087803b15801561274457600080fd5b505af1158015612758573d6000803e3d6000fd5b505050506040513d602081101561276e57600080fd5b810190808051906020019092919050505014151561281a576040517f08c379a00000000000000000000000000000000000000000000000000000000081526004018080602001828103825260358152602001807f436f6d706c61696e742063616e206f6e6c7920626520676976656e20696e207481526020017f6865204b65794465706f7369746564207374616765000000000000000000000081525060400191505060405180910390fd5b6001548573ffffffffffffffffffffffffffffffffffffffff1663d45c44358e6040518263ffffffff167c0100000000000000000000000000000000000000000000000000000000028152600401808260001916600019168152602001915050602060405180830381600087803b15801561289457600080fd5b505af11580156128a8573d6000803e3d6000fd5b505050506040513d60208110156128be57600080fd5b8101908080519060200190929190505050014211151515612947576040517f08c379a000000000000000000000000000000000000000000000000000000000815260040180806020018281038252601d8152602001807f436f6d706c61696e742077696e646f772068617320657870697265642100000081525060200191505060405180910390fd5b6129538b8a8986614623565b15156129ed576040517f08c379a00000000000000000000000000000000000000000000000000000000081526004018080602001828103825260228152602001807f50726f6f6620666f72206f757470757420656c656d656e7420696e636f72726581526020017f637400000000000000000000000000000000000000000000000000000000000081525060400191505060405180910390fd5b6129f98a898886614623565b1515612a93576040517f08c379a00000000000000000000000000000000000000000000000000000000081526004018080602001828103825260218152602001807f50726f6f6620666f7220696e70757420656c656d656e7420696e636f7272656381526020017f740000000000000000000000000000000000000000000000000000000000000081525060400191505060405180910390fd5b612a9e8b8a86613219565b9150856000815181101515612aaf57fe5b906020019060200201519050612ac68a8986613219565b612ad460018c018387613219565b6040516020018083600019166000191681526020018260001916600019168152602001925050506040516020818303038152906040526040518082805190602001908083835b602083101515612b3f5780518252602082019150602081019050602083039250612b1a565b6001836020036101000a0380198251168184511680821785525050505050509050019150506040518091039020600019168260001916141515612b8657612b858c615373565b5b505050505050505050505050565b60015481565b600080600080876001900414151515612c41576040517f08c379a00000000000000000000000000000000000000000000000000000000081526004018080602001828103825260328152602001807f43616e6e6f742074616b65207061796d656e742020776974686f75742070757281526020017f6368617365206964207375626d6974746564000000000000000000000000000081525060400191505060405180910390fd5b6000809054906101000a900473ffffffffffffffffffffffffffffffffffffffff1673ffffffffffffffffffffffffffffffffffffffff166304433bbc6040518163ffffffff167c01000000000000000000000000000000000000000000000000000000000281526004018080602001828103825260128152602001807f4d61726b6574706c61636553746f726167650000000000000000000000000000815250602001915050602060405180830381600087803b158015612d0257600080fd5b505af1158015612d16573d6000803e3d6000fd5b505050506040513d6020811015612d2c57600080fd5b810190808051906020019092919050505092508273ffffffffffffffffffffffffffffffffffffffff166312aaac70886040518263ffffffff167c0100000000000000000000000000000000000000000000000000000000028152600401808260001916600019168152602001915050602060405180830381600087803b158015612db657600080fd5b505af1158015612dca573d6000803e3d6000fd5b505050506040513d6020811015612de057600080fd5b810190808051906020019092919050505091508273ffffffffffffffffffffffffffffffffffffffff1663ab32e569886040518263ffffffff167c0100000000000000000000000000000000000000000000000000000000028152600401808260001916600019168152602001915050602060405180830381600087803b158015612e6a57600080fd5b505af1158015612e7e573d6000803e3d6000fd5b505050506040513d6020811015612e9457600080fd5b8101908080519060200190929190505050905060028373ffffffffffffffffffffffffffffffffffffffff1663ae844f74896040518263ffffffff167c0100000000000000000000000000000000000000000000000000000000028152600401808260001916600019168152602001915050602060405180830381600087803b158015612f2057600080fd5b505af1158015612f34573d6000803e3d6000fd5b505050506040513d6020811015612f4a57600080fd5b8101908080519060200190929190505050141515612ff6576040517f08c379a00000000000000000000000000000000000000000000000000000000081526004018080602001828103825260358152602001807f436f6d706c61696e742063616e206f6e6c7920626520676976656e20696e207481526020017f6865204b65794465706f7369746564207374616765000000000000000000000081525060400191505060405180910390fd5b6001548373ffffffffffffffffffffffffffffffffffffffff1663d45c4435896040518263ffffffff167c0100000000000000000000000000000000000000000000000000000000028152600401808260001916600019168152602001915050602060405180830381600087803b15801561307057600080fd5b505af1158015613084573d6000803e3d6000fd5b505050506040513d602081101561309a57600080fd5b8101908080519060200190929190505050014211151515613123576040517f08c379a000000000000000000000000000000000000000000000000000000000815260040180806020018281038252601d8152602001807f436f6d706c61696e742077696e646f772068617320657870697265642100000081525060200191505060405180910390fd5b61312f84878784614623565b151561313a57600080fd5b8273ffffffffffffffffffffffffffffffffffffffff166305f28db8886040518263ffffffff167c0100000000000000000000000000000000000000000000000000000000028152600401808260001916600019168152602001915050602060405180830381600087803b1580156131b157600080fd5b505af11580156131c5573d6000803e3d6000fd5b505050506040513d60208110156131db57600080fd5b8101908080519060200190929190505050600019166131fb858885613219565b600019161415156132105761320f87615373565b5b50505050505050565b6000828285604051602001808360001916600019168152602001828152602001925050506040516020818303038152906040526040518082805190602001908083835b602083101515613281578051825260208201915060208101905060208303925061325c565b6001836020036101000a03801982511681845116808217855250505050505090500191505060405180910390201890509392505050565b6000808673ffffffffffffffffffffffffffffffffffffffff161415151561336e576040517f08c379a00000000000000000000000000000000000000000000000000000000081526004018080602001828103825260348152602001807f43616e6e6f7420696e69746961746520707572636861736520776974686f757481526020017f2073656c6c6572206964207375626d697474656400000000000000000000000081525060400191505060405180910390fd5b60008573ffffffffffffffffffffffffffffffffffffffff1614151515613423576040517f08c379a00000000000000000000000000000000000000000000000000000000081526004018080602001828103825260308152602001807f43616e6e6f7420696e69746961746520707572636861736520776974686f757481526020017f207072696365207375626d69747465640000000000000000000000000000000081525060400191505060405180910390fd5b60008360019004141515156134c6576040517f08c379a000000000000000000000000000000000000000000000000000000000815260040180806020018281038252603f8152602001807f43616e6e6f7420696e69746961746520707572636861736520776974686f757481526020017f206f726967696e616c44617461526f6f7448617368207375626d69747465640081525060400191505060405180910390fd5b6000826001900414151515613569576040517f08c379a000000000000000000000000000000000000000000000000000000000815260040180806020018281038252603e8152602001807f43616e6e6f7420696e69746961746520707572636861736520776974686f757481526020017f20656e636f64656444617461526f6f7448617368207375626d6974746564000081525060400191505060405180910390fd5b8473ffffffffffffffffffffffffffffffffffffffff1663d202158d33604051602001808273ffffffffffffffffffffffffffffffffffffffff1673ffffffffffffffffffffffffffffffffffffffff166c010000000000000000000000000281526014019150506040516020818303038152906040526040518082805190602001908083835b60208310151561361557805182526020820191506020810190506020830392506135f0565b6001836020036101000a038019825116818451168082178552505050505050905001915050604051809103902060026040518363ffffffff167c010000000000000000000000000000000000000000000000000000000002815260040180836000191660001916815260200182815260200192505050602060405180830381600087803b1580156136a557600080fd5b505af11580156136b9573d6000803e3d6000fd5b505050506040513d60208110156136cf57600080fd5b81019080805190602001909291905050508061385e57508473ffffffffffffffffffffffffffffffffffffffff1663d202158d33604051602001808273ffffffffffffffffffffffffffffffffffffffff1673ffffffffffffffffffffffffffffffffffffffff166c010000000000000000000000000281526014019150506040516020818303038152906040526040518082805190602001908083835b602083101515613792578051825260208201915060208101905060208303925061376d565b6001836020036101000a038019825116818451168082178552505050505050905001915050604051809103902060016040518363ffffffff167c010000000000000000000000000000000000000000000000000000000002815260040180836000191660001916815260200182815260200192505050602060405180830381600087803b15801561382257600080fd5b505af1158015613836573d6000803e3d6000fd5b505050506040513d602081101561384c57600080fd5b81019080805190602001909291905050505b15156138f8576040517f08c379a000000000000000000000000000000000000000000000000000000000815260040180806020018281038252603d8152602001807f53656e64657220646f6573206e6f7420686176652070726f706572207065726d81526020017f697373696f6e20746f2063616c6c20746869732066756e6374696f6e2100000081525060400191505060405180910390fd5b33600143034083604051602001808473ffffffffffffffffffffffffffffffffffffffff1673ffffffffffffffffffffffffffffffffffffffff166c010000000000000000000000000281526014018360001916600019168152602001826000191660001916815260200193505050506040516020818303038152906040526040518082805190602001908083835b6020831015156139ac5780518252602082019150602081019050602083039250613987565b6001836020036101000a038019825116818451168082178552505050505050905001915050604051809103902090506000809054906101000a900473ffffffffffffffffffffffffffffffffffffffff1673ffffffffffffffffffffffffffffffffffffffff166304433bbc6040518163ffffffff167c01000000000000000000000000000000000000000000000000000000000281526004018080602001828103825260128152602001807f4d61726b6574706c61636553746f726167650000000000000000000000000000815250602001915050602060405180830381600087803b158015613a9c57600080fd5b505af1158015613ab0573d6000803e3d6000fd5b505050506040513d6020811015613ac657600080fd5b810190808051906020019092919050505073ffffffffffffffffffffffffffffffffffffffff166396bf399c82886040518363ffffffff167c01000000000000000000000000000000000000000000000000000000000281526004018083600019166000191681526020018273ffffffffffffffffffffffffffffffffffffffff1673ffffffffffffffffffffffffffffffffffffffff16815260200192505050600060405180830381600087803b158015613b8157600080fd5b505af1158015613b95573d6000803e3d6000fd5b505050506000809054906101000a900473ffffffffffffffffffffffffffffffffffffffff1673ffffffffffffffffffffffffffffffffffffffff166304433bbc6040518163ffffffff167c01000000000000000000000000000000000000000000000000000000000281526004018080602001828103825260128152602001807f4d61726b6574706c61636553746f726167650000000000000000000000000000815250602001915050602060405180830381600087803b158015613c5a57600080fd5b505af1158015613c6e573d6000803e3d6000fd5b505050506040513d6020811015613c8457600080fd5b810190808051906020019092919050505073ffffffffffffffffffffffffffffffffffffffff1663f3d0da7d82876040518363ffffffff167c01000000000000000000000000000000000000000000000000000000000281526004018083600019166000191681526020018273ffffffffffffffffffffffffffffffffffffffff1673ffffffffffffffffffffffffffffffffffffffff16815260200192505050600060405180830381600087803b158015613d3f57600080fd5b505af1158015613d53573d6000803e3d6000fd5b505050506000809054906101000a900473ffffffffffffffffffffffffffffffffffffffff1673ffffffffffffffffffffffffffffffffffffffff166304433bbc6040518163ffffffff167c01000000000000000000000000000000000000000000000000000000000281526004018080602001828103825260128152602001807f4d61726b6574706c61636553746f726167650000000000000000000000000000815250602001915050602060405180830381600087803b158015613e1857600080fd5b505af1158015613e2c573d6000803e3d6000fd5b505050506040513d6020811015613e4257600080fd5b810190808051906020019092919050505073ffffffffffffffffffffffffffffffffffffffff166310d8d74d82866040518363ffffffff167c010000000000000000000000000000000000000000000000000000000002815260040180836000191660001916815260200182815260200192505050600060405180830381600087803b158015613ed157600080fd5b505af1158015613ee5573d6000803e3d6000fd5b505050506000809054906101000a900473ffffffffffffffffffffffffffffffffffffffff1673ffffffffffffffffffffffffffffffffffffffff166304433bbc6040518163ffffffff167c01000000000000000000000000000000000000000000000000000000000281526004018080602001828103825260128152602001807f4d61726b6574706c61636553746f726167650000000000000000000000000000815250602001915050602060405180830381600087803b158015613faa57600080fd5b505af1158015613fbe573d6000803e3d6000fd5b505050506040513d6020811015613fd457600080fd5b810190808051906020019092919050505073ffffffffffffffffffffffffffffffffffffffff1663751b64fa82856040518363ffffffff167c0100000000000000000000000000000000000000000000000000000000028152600401808360001916600019168152602001826000191660001916815260200192505050600060405180830381600087803b15801561406b57600080fd5b505af115801561407f573d6000803e3d6000fd5b505050506000809054906101000a900473ffffffffffffffffffffffffffffffffffffffff1673ffffffffffffffffffffffffffffffffffffffff166304433bbc6040518163ffffffff167c01000000000000000000000000000000000000000000000000000000000281526004018080602001828103825260128152602001807f4d61726b6574706c61636553746f726167650000000000000000000000000000815250602001915050602060405180830381600087803b15801561414457600080fd5b505af1158015614158573d6000803e3d6000fd5b505050506040513d602081101561416e57600080fd5b810190808051906020019092919050505073ffffffffffffffffffffffffffffffffffffffff1663b5d8e51882846040518363ffffffff167c0100000000000000000000000000000000000000000000000000000000028152600401808360001916600019168152602001826000191660001916815260200192505050600060405180830381600087803b15801561420557600080fd5b505af1158015614219573d6000803e3d6000fd5b505050506000809054906101000a900473ffffffffffffffffffffffffffffffffffffffff1673ffffffffffffffffffffffffffffffffffffffff166304433bbc6040518163ffffffff167c01000000000000000000000000000000000000000000000000000000000281526004018080602001828103825260128152602001807f4d61726b6574706c61636553746f726167650000000000000000000000000000815250602001915050602060405180830381600087803b1580156142de57600080fd5b505af11580156142f2573d6000803e3d6000fd5b505050506040513d602081101561430857600080fd5b810190808051906020019092919050505073ffffffffffffffffffffffffffffffffffffffff16633074372682426040518363ffffffff167c010000000000000000000000000000000000000000000000000000000002815260040180836000191660001916815260200182815260200192505050600060405180830381600087803b15801561439757600080fd5b505af11580156143ab573d6000803e3d6000fd5b505050506000809054906101000a900473ffffffffffffffffffffffffffffffffffffffff1673ffffffffffffffffffffffffffffffffffffffff166304433bbc6040518163ffffffff167c01000000000000000000000000000000000000000000000000000000000281526004018080602001828103825260128152602001807f4d61726b6574706c61636553746f726167650000000000000000000000000000815250602001915050602060405180830381600087803b15801561447057600080fd5b505af1158015614484573d6000803e3d6000fd5b505050506040513d602081101561449a57600080fd5b810190808051906020019092919050505073ffffffffffffffffffffffffffffffffffffffff1663bfc73cfd8260016040518363ffffffff167c010000000000000000000000000000000000000000000000000000000002815260040180836000191660001916815260200182815260200192505050600060405180830381600087803b15801561452a57600080fd5b505af115801561453e573d6000803e3d6000fd5b5050505061454c8585614a01565b7fc93d5f3be3fb6a3a357ff8618f169d1fc7f2af9dfaa690855956a3be0a5a23fd8187878787876040518087600019166000191681526020018673ffffffffffffffffffffffffffffffffffffffff1673ffffffffffffffffffffffffffffffffffffffff1681526020018573ffffffffffffffffffffffffffffffffffffffff1673ffffffffffffffffffffffffffffffffffffffff16815260200184815260200183600019166000191681526020018260001916600019168152602001965050505050505060405180910390a1505050505050565b60008060008060019250600091505b85518260ff1610156147d9578160ff16889060020a900490508260ff1681169050600181141561471757858260ff1681518110151561466d57fe5b90602001906020020151876040516020018083600019166000191681526020018260001916600019168152602001925050506040516020818303038152906040526040518082805190602001908083835b6020831015156146e357805182526020820191506020810190506020830392506146be565b6001836020036101000a038019825116818451168082178552505050505050905001915050604051809103902096506147ce565b86868360ff1681518110151561472957fe5b906020019060200201516040516020018083600019166000191681526020018260001916600019168152602001925050506040516020818303038152906040526040518082805190602001908083835b60208310151561479e5780518252602082019150602081019050602083039250614779565b6001836020036101000a038019825116818451168082178552505050505050905001915050604051809103902096505b600182019150614632565b84600019168760001916149350505050949350505050565b6000809054906101000a900473ffffffffffffffffffffffffffffffffffffffff1673ffffffffffffffffffffffffffffffffffffffff166316279055336040518263ffffffff167c0100000000000000000000000000000000000000000000000000000000028152600401808273ffffffffffffffffffffffffffffffffffffffff1673ffffffffffffffffffffffffffffffffffffffff168152602001915050602060405180830381600087803b1580156148ad57600080fd5b505af11580156148c1573d6000803e3d6000fd5b505050506040513d60208110156148d757600080fd5b81019080805190602001909291905050501515614982576040517f08c379a00000000000000000000000000000000000000000000000000000000081526004018080602001828103825260298152602001807f46756e6374696f6e2063616e206f6e6c792062652063616c6c6564206279206381526020017f6f6e74726163747321000000000000000000000000000000000000000000000081525060400191505060405180910390fd5b600073ffffffffffffffffffffffffffffffffffffffff168173ffffffffffffffffffffffffffffffffffffffff16141515156149be57600080fd5b806000806101000a81548173ffffffffffffffffffffffffffffffffffffffff021916908373ffffffffffffffffffffffffffffffffffffffff16021790555050565b60008060009054906101000a900473ffffffffffffffffffffffffffffffffffffffff1673ffffffffffffffffffffffffffffffffffffffff166304433bbc6040518163ffffffff167c010000000000000000000000000000000000000000000000000000000002815260040180806020018281038252600e8152602001807f50726f66696c6553746f72616765000000000000000000000000000000000000815250602001915050602060405180830381600087803b158015614ac457600080fd5b505af1158015614ad8573d6000803e3d6000fd5b505050506040513d6020811015614aee57600080fd5b810190808051906020019092919050505090508073ffffffffffffffffffffffffffffffffffffffff16632ba97595846040518263ffffffff167c0100000000000000000000000000000000000000000000000000000000028152600401808273ffffffffffffffffffffffffffffffffffffffff1673ffffffffffffffffffffffffffffffffffffffff168152602001915050602060405180830381600087803b158015614b9c57600080fd5b505af1158015614bb0573d6000803e3d6000fd5b505050506040513d6020811015614bc657600080fd5b81019080805190602001909291905050508015614e7557508073ffffffffffffffffffffffffffffffffffffffff16635ffe0282846040518263ffffffff167c0100000000000000000000000000000000000000000000000000000000028152600401808273ffffffffffffffffffffffffffffffffffffffff1673ffffffffffffffffffffffffffffffffffffffff168152602001915050602060405180830381600087803b158015614c7957600080fd5b505af1158015614c8d573d6000803e3d6000fd5b505050506040513d6020811015614ca357600080fd5b81019080805190602001909291905050508173ffffffffffffffffffffffffffffffffffffffff16637a766460856040518263ffffffff167c0100000000000000000000000000000000000000000000000000000000028152600401808273ffffffffffffffffffffffffffffffffffffffff1673ffffffffffffffffffffffffffffffffffffffff168152602001915050602060405180830381600087803b158015614d4f57600080fd5b505af1158015614d63573d6000803e3d6000fd5b505050506040513d6020811015614d7957600080fd5b810190808051906020019092919050505003614e73838373ffffffffffffffffffffffffffffffffffffffff166356582bf9876040518263ffffffff167c0100000000000000000000000000000000000000000000000000000000028152600401808273ffffffffffffffffffffffffffffffffffffffff1673ffffffffffffffffffffffffffffffffffffffff168152602001915050602060405180830381600087803b158015614e2a57600080fd5b505af1158015614e3e573d6000803e3d6000fd5b505050506040513d6020811015614e5457600080fd5b810190808051906020019092919050505061535590919063ffffffff16565b115b15614f3b578073ffffffffffffffffffffffffffffffffffffffff16639385067f8460006040518363ffffffff167c0100000000000000000000000000000000000000000000000000000000028152600401808373ffffffffffffffffffffffffffffffffffffffff1673ffffffffffffffffffffffffffffffffffffffff1681526020018215151515815260200192505050600060405180830381600087803b158015614f2257600080fd5b505af1158015614f36573d6000803e3d6000fd5b505050505b816150f98273ffffffffffffffffffffffffffffffffffffffff16635ffe0282866040518263ffffffff167c0100000000000000000000000000000000000000000000000000000000028152600401808273ffffffffffffffffffffffffffffffffffffffff1673ffffffffffffffffffffffffffffffffffffffff168152602001915050602060405180830381600087803b158015614fda57600080fd5b505af1158015614fee573d6000803e3d6000fd5b505050506040513d602081101561500457600080fd5b81019080805190602001909291905050508373ffffffffffffffffffffffffffffffffffffffff16637a766460876040518263ffffffff167c0100000000000000000000000000000000000000000000000000000000028152600401808273ffffffffffffffffffffffffffffffffffffffff1673ffffffffffffffffffffffffffffffffffffffff168152602001915050602060405180830381600087803b1580156150b057600080fd5b505af11580156150c4573d6000803e3d6000fd5b505050506040513d60208110156150da57600080fd5b810190808051906020019092919050505061533c90919063ffffffff16565b10151515615195576040517f08c379a000000000000000000000000000000000000000000000000000000000815260040180806020018281038252602e8152602001807f5573657220646f6573206e6f74206861766520656e6f756768207374616b652081526020017f666f7220726573657276696e672100000000000000000000000000000000000081525060400191505060405180910390fd5b8073ffffffffffffffffffffffffffffffffffffffff166350c3ff578461529a858573ffffffffffffffffffffffffffffffffffffffff16635ffe0282896040518263ffffffff167c0100000000000000000000000000000000000000000000000000000000028152600401808273ffffffffffffffffffffffffffffffffffffffff1673ffffffffffffffffffffffffffffffffffffffff168152602001915050602060405180830381600087803b15801561525157600080fd5b505af1158015615265573d6000803e3d6000fd5b505050506040513d602081101561527b57600080fd5b810190808051906020019092919050505061535590919063ffffffff16565b6040518363ffffffff167c0100000000000000000000000000000000000000000000000000000000028152600401808373ffffffffffffffffffffffffffffffffffffffff1673ffffffffffffffffffffffffffffffffffffffff16815260200182815260200192505050600060405180830381600087803b15801561531f57600080fd5b505af1158015615333573d6000803e3d6000fd5b50505050505050565b600082821115151561534a57fe5b818303905092915050565b600080828401905083811015151561536957fe5b8091505092915050565b60008060008060008060009054906101000a900473ffffffffffffffffffffffffffffffffffffffff1673ffffffffffffffffffffffffffffffffffffffff166304433bbc6040518163ffffffff167c010000000000000000000000000000000000000000000000000000000002815260040180806020018281038252600e8152602001807f50726f66696c6553746f72616765000000000000000000000000000000000000815250602001915050602060405180830381600087803b15801561543c57600080fd5b505af1158015615450573d6000803e3d6000fd5b505050506040513d602081101561546657600080fd5b810190808051906020019092919050505094506000809054906101000a900473ffffffffffffffffffffffffffffffffffffffff1673ffffffffffffffffffffffffffffffffffffffff166304433bbc6040518163ffffffff167c01000000000000000000000000000000000000000000000000000000000281526004018080602001828103825260128152602001807f4d61726b6574706c61636553746f726167650000000000000000000000000000815250602001915050602060405180830381600087803b15801561553a57600080fd5b505af115801561554e573d6000803e3d6000fd5b505050506040513d602081101561556457600080fd5b810190808051906020019092919050505093508373ffffffffffffffffffffffffffffffffffffffff16637e44e504876040518263ffffffff167c0100000000000000000000000000000000000000000000000000000000028152600401808260001916600019168152602001915050602060405180830381600087803b1580156155ee57600080fd5b505af1158015615602573d6000803e3d6000fd5b505050506040513d602081101561561857600080fd5b810190808051906020019092919050505092508373ffffffffffffffffffffffffffffffffffffffff166387cc5a1c876040518263ffffffff167c0100000000000000000000000000000000000000000000000000000000028152600401808260001916600019168152602001915050602060405180830381600087803b1580156156a257600080fd5b505af11580156156b6573d6000803e3d6000fd5b505050506040513d60208110156156cc57600080fd5b810190808051906020019092919050505091508373ffffffffffffffffffffffffffffffffffffffff166331d98b3f876040518263ffffffff167c0100000000000000000000000000000000000000000000000000000000028152600401808260001916600019168152602001915050602060405180830381600087803b15801561575657600080fd5b505af115801561576a573d6000803e3d6000fd5b505050506040513d602081101561578057600080fd5b81019080805190602001909291905050509050808573ffffffffffffffffffffffffffffffffffffffff16637a766460856040518263ffffffff167c0100000000000000000000000000000000000000000000000000000000028152600401808273ffffffffffffffffffffffffffffffffffffffff1673ffffffffffffffffffffffffffffffffffffffff168152602001915050602060405180830381600087803b15801561582f57600080fd5b505af1158015615843573d6000803e3d6000fd5b505050506040513d602081101561585957600080fd5b810190808051906020019092919050505010151515615906576040517f08c379a000000000000000000000000000000000000000000000000000000000815260040180806020018281038252602e8152602001807f427579657220646f6573206e6f74206861766520656e6f75676820746f6b656e81526020017f7320746f207472616e736665722100000000000000000000000000000000000081525060400191505060405180910390fd5b808573ffffffffffffffffffffffffffffffffffffffff16635ffe0282846040518263ffffffff167c0100000000000000000000000000000000000000000000000000000000028152600401808273ffffffffffffffffffffffffffffffffffffffff1673ffffffffffffffffffffffffffffffffffffffff168152602001915050602060405180830381600087803b1580156159a257600080fd5b505af11580156159b6573d6000803e3d6000fd5b505050506040513d60208110156159cc57600080fd5b810190808051906020019092919050505010151515615a79576040517f08c379a00000000000000000000000000000000000000000000000000000000081526004018080602001828103825260378152602001807f427579657220646f6573206e6f74206861766520656e6f75676820746f6b656e81526020017f7320726573657276656420746f207472616e736665722100000000000000000081525060400191505060405180910390fd5b8473ffffffffffffffffffffffffffffffffffffffff166350c3ff5784615b7e848973ffffffffffffffffffffffffffffffffffffffff16635ffe0282896040518263ffffffff167c0100000000000000000000000000000000000000000000000000000000028152600401808273ffffffffffffffffffffffffffffffffffffffff1673ffffffffffffffffffffffffffffffffffffffff168152602001915050602060405180830381600087803b158015615b3557600080fd5b505af1158015615b49573d6000803e3d6000fd5b505050506040513d6020811015615b5f57600080fd5b810190808051906020019092919050505061533c90919063ffffffff16565b6040518363ffffffff167c0100000000000000000000000000000000000000000000000000000000028152600401808373ffffffffffffffffffffffffffffffffffffffff1673ffffffffffffffffffffffffffffffffffffffff16815260200182815260200192505050600060405180830381600087803b158015615c0357600080fd5b505af1158015615c17573d6000803e3d6000fd5b505050508473ffffffffffffffffffffffffffffffffffffffff1663bd3cd52584615d20848973ffffffffffffffffffffffffffffffffffffffff16637a766460896040518263ffffffff167c0100000000000000000000000000000000000000000000000000000000028152600401808273ffffffffffffffffffffffffffffffffffffffff1673ffffffffffffffffffffffffffffffffffffffff168152602001915050602060405180830381600087803b158015615cd757600080fd5b505af1158015615ceb573d6000803e3d6000fd5b505050506040513d6020811015615d0157600080fd5b810190808051906020019092919050505061533c90919063ffffffff16565b6040518363ffffffff167c0100000000000000000000000000000000000000000000000000000000028152600401808373ffffffffffffffffffffffffffffffffffffffff1673ffffffffffffffffffffffffffffffffffffffff16815260200182815260200192505050600060405180830381600087803b158015615da557600080fd5b505af1158015615db9573d6000803e3d6000fd5b505050508473ffffffffffffffffffffffffffffffffffffffff1663bd3cd52583615ec2848973ffffffffffffffffffffffffffffffffffffffff16637a766460886040518263ffffffff167c0100000000000000000000000000000000000000000000000000000000028152600401808273ffffffffffffffffffffffffffffffffffffffff1673ffffffffffffffffffffffffffffffffffffffff168152602001915050602060405180830381600087803b158015615e7957600080fd5b505af1158015615e8d573d6000803e3d6000fd5b505050506040513d6020811015615ea357600080fd5b810190808051906020019092919050505061535590919063ffffffff16565b6040518363ffffffff167c0100000000000000000000000000000000000000000000000000000000028152600401808373ffffffffffffffffffffffffffffffffffffffff1673ffffffffffffffffffffffffffffffffffffffff16815260200182815260200192505050600060405180830381600087803b158015615f4757600080fd5b505af1158015615f5b573d6000803e3d6000fd5b50505050808573ffffffffffffffffffffffffffffffffffffffff16635ffe0282846040518263ffffffff167c0100000000000000000000000000000000000000000000000000000000028152600401808273ffffffffffffffffffffffffffffffffffffffff1673ffffffffffffffffffffffffffffffffffffffff168152602001915050602060405180830381600087803b158015615ffb57600080fd5b505af115801561600f573d6000803e3d6000fd5b505050506040513d602081101561602557600080fd5b8101908080519060200190929190505050101515156160d2576040517f08c379a00000000000000000000000000000000000000000000000000000000081526004018080602001828103825260368152602001807f53656c6c657220646f6573206e6f74206861766520656e6f75676820746f6b6581526020017f6e7320726573657276656420746f20756e6c6f636b210000000000000000000081525060400191505060405180910390fd5b8473ffffffffffffffffffffffffffffffffffffffff166350c3ff57836161d7848973ffffffffffffffffffffffffffffffffffffffff16635ffe0282886040518263ffffffff167c0100000000000000000000000000000000000000000000000000000000028152600401808273ffffffffffffffffffffffffffffffffffffffff1673ffffffffffffffffffffffffffffffffffffffff168152602001915050602060405180830381600087803b15801561618e57600080fd5b505af11580156161a2573d6000803e3d6000fd5b505050506040513d60208110156161b857600080fd5b810190808051906020019092919050505061533c90919063ffffffff16565b6040518363ffffffff167c0100000000000000000000000000000000000000000000000000000000028152600401808373ffffffffffffffffffffffffffffffffffffffff1673ffffffffffffffffffffffffffffffffffffffff16815260200182815260200192505050600060405180830381600087803b15801561625c57600080fd5b505af1158015616270573d6000803e3d6000fd5b505050508373ffffffffffffffffffffffffffffffffffffffff1663bfc73cfd8760036040518363ffffffff167c010000000000000000000000000000000000000000000000000000000002815260040180836000191660001916815260200182815260200192505050600060405180830381600087803b1580156162f457600080fd5b505af1158015616308573d6000803e3d6000fd5b505050508373ffffffffffffffffffffffffffffffffffffffff16633074372687426040518363ffffffff167c010000000000000000000000000000000000000000000000000000000002815260040180836000191660001916815260200182815260200192505050600060405180830381600087803b15801561638b57600080fd5b505af115801561639f573d6000803e3d6000fd5b505050507ff4be0903b752a94a903248b0bab983f94b443f9fcae393f657e06b05d5405b068684846040518084600019166000191681526020018373ffffffffffffffffffffffffffffffffffffffff1673ffffffffffffffffffffffffffffffffffffffff1681526020018273ffffffffffffffffffffffffffffffffffffffff1673ffffffffffffffffffffffffffffffffffffffff168152602001935050505060405180910390a15050505050505600a165627a7a72305820d0bfa9821bee95a30db60c1c9a1d16ec0e8cd64d780881cd9c2ce93718f916360029",
  "source": "pragma solidity ^0.4.0;\n\nimport './Hub.sol';\n\nimport {ERC725} from './ERC725.sol';\nimport {HoldingStorage} from './HoldingStorage.sol';\nimport {MarketplaceStorage} from './MarketplaceStorage.sol';\nimport {SafeMath} from './SafeMath.sol';\nimport {ProfileStorage} from \"./ProfileStorage.sol\";\nimport {Profile} from \"./Profile.sol\";\n\ncontract Marketplace {\n    using SafeMath for uint256;\n\n    Hub public hub;\n\n    modifier onlyContracts(){\n        require(hub.isContract(msg.sender),\n            \"Function can only be called by contracts!\");\n        _;\n    }\n\n    uint256 public paymentStageInterval = 5 minutes;\n\n    constructor(address hubAddress) public {\n        require(hubAddress != address(0));\n        hub = Hub(hubAddress);\n    }\n\n    function setHubAddress(address newHubAddress)\n    public onlyContracts {\n        require(newHubAddress != address(0));\n        hub = Hub(newHubAddress);\n    }\n\n    modifier onlyHolding(){\n        require(msg.sender == hub.getContractAddress(\"Holding\"),\n            \"Function can only be called by Holding contract!\");\n        _;\n    }\n\n    event PurchaseInitiated(\n        bytes32 purchaseId,\n        address sellerIdentity, address buyerIdentity,\n        uint256 price,\n        bytes32 originalDataRootHash, bytes32 encodedDataRootHash\n    );\n    event KeyDeposited(bytes32 purchaseId, bytes32 key);\n    event MisbehaviourProven(bytes32 purchaseId, address sellerIdentity, address buyerIdentity);\n    event PurchaseCompleted(bytes32 purchaseId, address sellerIdentity, address buyerIdentity);\n\n    function initiatePurchase(\n        address sellerIdentity,\n        address buyerIdentity,\n        uint price,\n        bytes32 originalDataRootHash,\n        bytes32 encodedDataRootHash\n    ) public {\n        require(uint256(sellerIdentity) != 0, \"Cannot initiate purchase without seller id submitted\");\n        require(uint256(buyerIdentity) != 0, \"Cannot initiate purchase without price submitted\");\n        require(uint256(originalDataRootHash) !=0, \"Cannot initiate purchase without originalDataRootHash submitted\");\n        require(uint256(encodedDataRootHash) != 0, \"Cannot initiate purchase without encodedDataRootHash submitted\");\n\n        require(ERC725(buyerIdentity).keyHasPurpose(keccak256(abi.encodePacked(msg.sender)), 2) || ERC725(buyerIdentity).keyHasPurpose(keccak256(abi.encodePacked(msg.sender)), 1), \"Sender does not have proper permission to call this function!\");\n\n        // purchase_id is created as a hash of: sender, previous block hash, and data root hash\n        bytes32 purchaseId = keccak256(abi.encodePacked(msg.sender, blockhash(block.number - 1), encodedDataRootHash));\n\n        MarketplaceStorage(hub.getContractAddress(\"MarketplaceStorage\")).setSeller(purchaseId, sellerIdentity);\n        MarketplaceStorage(hub.getContractAddress(\"MarketplaceStorage\")).setBuyer(purchaseId, buyerIdentity);\n\n        MarketplaceStorage(hub.getContractAddress(\"MarketplaceStorage\")).setPrice(purchaseId, price);\n\n        MarketplaceStorage(hub.getContractAddress(\"MarketplaceStorage\")).setOriginalDataRootHash(purchaseId, originalDataRootHash);\n        MarketplaceStorage(hub.getContractAddress(\"MarketplaceStorage\")).setEncodedDataRootHash(purchaseId, encodedDataRootHash);\n\n        MarketplaceStorage(hub.getContractAddress(\"MarketplaceStorage\")).setTimestamp(purchaseId, block.timestamp);\n        MarketplaceStorage(hub.getContractAddress(\"MarketplaceStorage\")).setStage(purchaseId, 1);\n\n        // Secure funds from buyer\n        reserveTokens(buyerIdentity, price);\n\n        emit PurchaseInitiated(purchaseId, sellerIdentity, buyerIdentity, price, originalDataRootHash, encodedDataRootHash);\n    }\n\n    function depositKey(bytes32 purchaseId, bytes32 key) public {\n        require(uint256(purchaseId) != 0, \"Cannot reveal key without purchase id submitted\");\n        require(uint256(key) != 0, \"Cannot reveal key without key submitted\");\n\n        MarketplaceStorage marketplaceStorage = MarketplaceStorage(hub.getContractAddress(\"MarketplaceStorage\"));\n\n        address sellerIdentity = marketplaceStorage.getSeller(purchaseId);\n        require(ERC725(sellerIdentity).keyHasPurpose(keccak256(abi.encodePacked(msg.sender)), 2) || ERC725(sellerIdentity).keyHasPurpose(keccak256(abi.encodePacked(msg.sender)), 1), \"Only seller can reveal key!\");\n        require(marketplaceStorage.getStage(purchaseId) == 1, \"Key can only be revealed in the initiated stage\");\n\n        marketplaceStorage.setKey(purchaseId, key);\n\n        marketplaceStorage.setTimestamp(purchaseId, block.timestamp);\n        marketplaceStorage.setStage(purchaseId, 2);\n\n        // Secure funds from all parties\n        reserveTokens(sellerIdentity, marketplaceStorage.getPrice(purchaseId));\n\n        emit KeyDeposited(purchaseId, key);\n    }\n\n    function takePayment(bytes32 purchaseId) public {\n        require(uint256(purchaseId) != 0, \"Cannot take payment  without purchase id submitted\");\n\n        MarketplaceStorage marketplaceStorage = MarketplaceStorage(hub.getContractAddress(\"MarketplaceStorage\"));\n\n        require(marketplaceStorage.getStage(purchaseId) == 2, \"Payment can only be taken in the KeyDeposited stage\");\n        require(block.timestamp > marketplaceStorage.getTimestamp(purchaseId) + paymentStageInterval, \"Complaint window has not yet expired!\");\n\n        address buyerIdentity = marketplaceStorage.getBuyer(purchaseId);\n        address sellerIdentity = marketplaceStorage.getSeller(purchaseId);\n        uint256 price = marketplaceStorage.getPrice(purchaseId);\n\n        ProfileStorage profileStorage = ProfileStorage(hub.getContractAddress(\"ProfileStorage\"));\n\n        require(profileStorage.getStake(buyerIdentity) >= price, \"Buyer does not have enough tokens to transfer!\");\n        require(profileStorage.getStakeReserved(buyerIdentity) >= price, \"Buyer does not have enough tokens reserved to transfer!\");\n\n        profileStorage.setStakeReserved(buyerIdentity, profileStorage.getStakeReserved(buyerIdentity).sub(price));\n        profileStorage.setStake(buyerIdentity, profileStorage.getStake(buyerIdentity).sub(price));\n        profileStorage.setStake(sellerIdentity, profileStorage.getStake(sellerIdentity).add(price));\n\n        // Unlock seller stake tokens\n        require(profileStorage.getStakeReserved(sellerIdentity) >= price, \"Seller does not have enough tokens reserved to unlock!\");\n        profileStorage.setStakeReserved(sellerIdentity, profileStorage.getStakeReserved(sellerIdentity).sub(price));\n\n        marketplaceStorage.setStage(purchaseId, 3);\n        marketplaceStorage.setTimestamp(purchaseId, block.timestamp);\n\n        emit PurchaseCompleted(purchaseId, sellerIdentity, buyerIdentity);\n    }\n\n    function reserveTokens(address party, uint256 amount)\n    internal {\n        ProfileStorage profileStorage = ProfileStorage(hub.getContractAddress(\"ProfileStorage\"));\n\n        if(profileStorage.getWithdrawalPending(party) &&\n            profileStorage.getWithdrawalAmount(party).add(amount) > profileStorage.getStake(party) - profileStorage.getStakeReserved(party)) {\n\n            profileStorage.setWithdrawalPending(party, false);\n        }\n\n        require(profileStorage.getStake(party).sub(profileStorage.getStakeReserved(party)) >= amount,\n            \"User does not have enough stake for reserving!\");\n\n        profileStorage.setStakeReserved(party, profileStorage.getStakeReserved(party).add(amount));\n    }\n\n    // function complain about wrong hash of file\n    function complainAboutRoot (bytes32 purchaseId, bytes32 _originalDataRootEncoded, bytes32[] _proofOfEncodedData, uint256 _indexOfRootHash)\n    public {\n        require(uint256(purchaseId) != 0, \"Cannot take payment  without purchase id submitted\");\n\n        MarketplaceStorage marketplaceStorage = MarketplaceStorage(hub.getContractAddress(\"MarketplaceStorage\"));\n        bytes32 key = marketplaceStorage.getKey(purchaseId);\n        bytes32 encodedDataRootHash = marketplaceStorage.getEncodedDataRootHash(purchaseId);\n\n        require(marketplaceStorage.getStage(purchaseId) == 2, \"Complaint can only be given in the KeyDeposited stage\");\n        require(block.timestamp <= marketplaceStorage.getTimestamp(purchaseId) + paymentStageInterval, \"Complaint window has expired!\");\n\n        require (verifyMerkleTreeProof(_indexOfRootHash, _originalDataRootEncoded, _proofOfEncodedData, encodedDataRootHash));\n        if (decryptCiphertext(_indexOfRootHash, _originalDataRootEncoded, key) !=\n            marketplaceStorage.getOriginalDataRootHash(purchaseId))\n        {\n            refundBuyer(purchaseId);\n        }\n    }\n\n    // function complain about wrong hash of two inputs\n    function complainAboutNode (\n        bytes32 purchaseId,\n        uint _indexOfEncodedOutput, uint _indexOfEncodedInputLeft,\n        bytes32 _encodedOutput, bytes32 _encodedInputLeft,\n        bytes32[] _proofOfEncodedOutput, bytes32[] _proofOfEncodedInput\n    ) public {\n        require(uint256(purchaseId) != 0, \"Cannot take payment  without purchase id submitted\");\n\n        MarketplaceStorage marketplaceStorage = MarketplaceStorage(hub.getContractAddress(\"MarketplaceStorage\"));\n        bytes32 key = marketplaceStorage.getKey(purchaseId);\n        bytes32 encodedDataRootHash = marketplaceStorage.getEncodedDataRootHash(purchaseId);\n\n        require(marketplaceStorage.getStage(purchaseId) == 2, \"Complaint can only be given in the KeyDeposited stage\");\n        require(block.timestamp <= marketplaceStorage.getTimestamp(purchaseId) + paymentStageInterval, \"Complaint window has expired!\");\n\n        // Verify that the output element was sent by seller\n        require (\n            verifyMerkleTreeProof(_indexOfEncodedOutput, _encodedOutput, _proofOfEncodedOutput, encodedDataRootHash),\n            \"Proof for output element incorrect\"\n        );\n\n        // Verify that the left input element was sent by the seller\n        require (\n            verifyMerkleTreeProof(_indexOfEncodedInputLeft, _encodedInputLeft, _proofOfEncodedInput, encodedDataRootHash),\n            \"Proof for input element incorrect\"\n        );\n\n        // Get decrypted output element\n        bytes32 decodedOutput = decryptCiphertext(_indexOfEncodedOutput, _encodedOutput, key);\n        bytes32 encodedInputRight = _proofOfEncodedInput[0];\n        // Prove that the decrypted output element is different than the hash of decoded input elements\n        if (decodedOutput !=\n            keccak256(abi.encodePacked(\n                decryptCiphertext(_indexOfEncodedInputLeft, _encodedInputLeft, key),\n                decryptCiphertext(_indexOfEncodedInputLeft + 1, encodedInputRight, key)\n                ))\n            )\n        {\n            refundBuyer(purchaseId);\n        }\n\n    }\n\n    // function to decrypt hashes of the merkle tree\n    function decryptCiphertext (uint _index, bytes32 _ciphertext, bytes32 _key)\n    public pure returns (bytes32){\n        return keccak256(abi.encodePacked(_key, _index)) ^ _ciphertext;\n    }\n\n    // function to verify Merkle Tree proofs\n    function verifyMerkleTreeProof(uint _index, bytes32 _value, bytes32[] _proof, bytes32 _encodedDataRootHash)\n    public view returns (bool) {\n        uint8 bitMask = 1;\n\n        for (uint8 i = 0; i < _proof.length; i += 1){\n            uint256 selectedBit = _index >> i;\n            selectedBit = selectedBit & bitMask;\n\n            if(selectedBit == 1) {\n                _value = keccak256(abi.encodePacked(_proof[i], _value));\n            }\n            else {\n                _value = keccak256(abi.encodePacked(_value, _proof[i]));\n            }\n        }\n        return (_value == _encodedDataRootHash);\n    }\n\n    function refundBuyer(bytes32 purchaseId)\n    internal {\n        ProfileStorage profileStorage = ProfileStorage(hub.getContractAddress(\"ProfileStorage\"));\n        MarketplaceStorage marketplaceStorage = MarketplaceStorage(hub.getContractAddress(\"MarketplaceStorage\"));\n\n        address sellerIdentity = marketplaceStorage.getSeller(purchaseId);\n        address buyerIdentity = marketplaceStorage.getBuyer(purchaseId);\n        uint256 price = marketplaceStorage.getPrice(purchaseId);\n\n        require(profileStorage.getStake(sellerIdentity) >= price, \"Buyer does not have enough tokens to transfer!\");\n        require(profileStorage.getStakeReserved(buyerIdentity) >= price, \"Buyer does not have enough tokens reserved to transfer!\");\n\n        profileStorage.setStakeReserved(sellerIdentity, profileStorage.getStakeReserved(sellerIdentity).sub(price));\n        profileStorage.setStake(sellerIdentity, profileStorage.getStake(sellerIdentity).sub(price));\n        profileStorage.setStake(buyerIdentity, profileStorage.getStake(buyerIdentity).add(price));\n\n        // Unlock seller stake tokens\n        require(profileStorage.getStakeReserved(buyerIdentity) >= price, \"Seller does not have enough tokens reserved to unlock!\");\n        profileStorage.setStakeReserved(buyerIdentity, profileStorage.getStakeReserved(buyerIdentity).sub(price));\n\n        marketplaceStorage.setStage(purchaseId, 3);\n        marketplaceStorage.setTimestamp(purchaseId, block.timestamp);\n\n        emit MisbehaviourProven(purchaseId, sellerIdentity, buyerIdentity);\n    }\n}\n",
  "sourcePath": "/Users/miloskotlar/starfleet-node/tests/truffle-tests/contracts/Marketplace.sol",
  "compiler": {
    "name": "solc",
    "version": "0.4.26+commit.4563c3fc.Emscripten.clang"
  },
  "schemaVersion": "3.0.16",
  "updatedAt": "2021-02-11T16:12:13.889Z",
  "devdoc": {
    "methods": {}
  },
  "userdoc": {
    "methods": {}
  }
}