{
  "contractName": "MockApproval",
  "abi": [
    {
      "constant": true,
      "inputs": [
        {
          "name": "",
          "type": "uint256"
        }
      ],
      "name": "hasApproval",
      "outputs": [
        {
          "name": "",
          "type": "bool"
        }
      ],
      "payable": false,
      "stateMutability": "view",
      "type": "function"
    },
    {
      "constant": true,
      "inputs": [
        {
          "name": "",
          "type": "address"
        }
      ],
      "name": "identityApproved",
      "outputs": [
        {
          "name": "",
          "type": "bool"
        }
      ],
      "payable": false,
      "stateMutability": "view",
      "type": "function"
    },
    {
      "constant": true,
      "inputs": [],
      "name": "owner",
      "outputs": [
        {
          "name": "",
          "type": "address"
        }
      ],
      "payable": false,
      "stateMutability": "view",
      "type": "function"
    },
    {
      "constant": true,
      "inputs": [
        {
          "name": "",
          "type": "bytes20"
        }
      ],
      "name": "nodeApproved",
      "outputs": [
        {
          "name": "",
          "type": "bool"
        }
      ],
      "payable": false,
      "stateMutability": "view",
      "type": "function"
    },
    {
      "constant": false,
      "inputs": [
        {
          "name": "newOwner",
          "type": "address"
        }
      ],
      "name": "transferOwnership",
      "outputs": [],
      "payable": false,
      "stateMutability": "nonpayable",
      "type": "function"
    },
    {
      "constant": true,
      "inputs": [
        {
          "name": "",
          "type": "uint256"
        }
      ],
      "name": "allNodes",
      "outputs": [
        {
          "name": "",
          "type": "bytes20"
        }
      ],
      "payable": false,
      "stateMutability": "view",
      "type": "function"
    },
    {
      "anonymous": false,
      "inputs": [
        {
          "indexed": false,
          "name": "nodeId",
          "type": "bytes20"
        }
      ],
      "name": "NodeApproved",
      "type": "event"
    },
    {
      "anonymous": false,
      "inputs": [
        {
          "indexed": false,
          "name": "nodeId",
          "type": "bytes20"
        }
      ],
      "name": "NodeRemoved",
      "type": "event"
    },
    {
      "anonymous": false,
      "inputs": [
        {
          "indexed": true,
          "name": "previousOwner",
          "type": "address"
        },
        {
          "indexed": true,
          "name": "newOwner",
          "type": "address"
        }
      ],
      "name": "OwnershipTransferred",
      "type": "event"
    },
    {
      "constant": true,
      "inputs": [
        {
          "name": "identity",
          "type": "address"
        }
      ],
      "name": "identityHasApproval",
      "outputs": [
        {
          "name": "",
          "type": "bool"
        }
      ],
      "payable": false,
      "stateMutability": "pure",
      "type": "function"
    },
    {
      "constant": true,
      "inputs": [
        {
          "name": "nodeId",
          "type": "bytes20"
        }
      ],
      "name": "nodeHasApproval",
      "outputs": [
        {
          "name": "",
          "type": "bool"
        }
      ],
      "payable": false,
      "stateMutability": "pure",
      "type": "function"
    },
    {
      "constant": true,
      "inputs": [],
      "name": "getAllNodes",
      "outputs": [
        {
          "name": "",
          "type": "bytes20[]"
        }
      ],
      "payable": false,
      "stateMutability": "view",
      "type": "function"
    },
    {
      "constant": true,
      "inputs": [],
      "name": "getNodeStatuses",
      "outputs": [
        {
          "name": "",
          "type": "bool[]"
        }
      ],
      "payable": false,
      "stateMutability": "view",
      "type": "function"
    },
    {
      "constant": false,
      "inputs": [
        {
          "name": "identity",
          "type": "address"
        },
        {
          "name": "nodeId",
          "type": "bytes20"
        }
      ],
      "name": "approve",
      "outputs": [],
      "payable": false,
      "stateMutability": "nonpayable",
      "type": "function"
    },
    {
      "constant": false,
      "inputs": [
        {
          "name": "identity",
          "type": "address"
        },
        {
          "name": "nodeId",
          "type": "bytes20"
        }
      ],
      "name": "removeApproval",
      "outputs": [],
      "payable": false,
      "stateMutability": "nonpayable",
      "type": "function"
    },
    {
      "constant": false,
      "inputs": [
        {
          "name": "identity",
          "type": "address"
        },
        {
          "name": "newApproval",
          "type": "bool"
        }
      ],
      "name": "setIdentityApproval",
      "outputs": [],
      "payable": false,
      "stateMutability": "nonpayable",
      "type": "function"
    }
  ],
  "bytecode": "0x6080604052336000806101000a81548173ffffffffffffffffffffffffffffffffffffffff021916908373ffffffffffffffffffffffffffffffffffffffff160217905550610c01806100536000396000f3006080604052600436106100c5576000357c0100000000000000000000000000000000000000000000000000000000900463ffffffff16806301278eae146100ca5780630e38ed3c1461010f5780632198955b1461016357806322471e16146101bf57806389a367f91461021a5780638c0ab7fa146102865780638da5cb5b146102e257806397fa840614610339578063a1174e7d14610394578063bf190db914610400578063f2fde38b14610454578063fe72ae1314610497578063feb5b2e9146104f6575b600080fd5b3480156100d657600080fd5b506100f560048036038101908080359060200190929190505050610545565b604051808215151515815260200191505060405180910390f35b34801561011b57600080fd5b5061014960048036038101908080356bffffffffffffffffffffffff19169060200190929190505050610578565b604051808215151515815260200191505060405180910390f35b34801561016f57600080fd5b506101bd600480360381019080803573ffffffffffffffffffffffffffffffffffffffff16906020019092919080356bffffffffffffffffffffffff19169060200190929190505050610583565b005b3480156101cb57600080fd5b50610200600480360381019080803573ffffffffffffffffffffffffffffffffffffffff169060200190929190505050610671565b604051808215151515815260200191505060405180910390f35b34801561022657600080fd5b5061022f610691565b6040518080602001828103825283818151815260200191508051906020019060200280838360005b83811015610272578082015181840152602081019050610257565b505050509050019250505060405180910390f35b34801561029257600080fd5b506102e0600480360381019080803573ffffffffffffffffffffffffffffffffffffffff16906020019092919080356bffffffffffffffffffffffff1916906020019092919050505061070e565b005b3480156102ee57600080fd5b506102f76107fc565b604051808273ffffffffffffffffffffffffffffffffffffffff1673ffffffffffffffffffffffffffffffffffffffff16815260200191505060405180910390f35b34801561034557600080fd5b5061037a600480360381019080803573ffffffffffffffffffffffffffffffffffffffff169060200190929190505050610821565b604051808215151515815260200191505060405180910390f35b3480156103a057600080fd5b506103a961082c565b6040518080602001828103825283818151815260200191508051906020019060200280838360005b838110156103ec5780820151818401526020810190506103d1565b505050509050019250505060405180910390f35b34801561040c57600080fd5b5061043a60048036038101908080356bffffffffffffffffffffffff191690602001909291905050506108ac565b604051808215151515815260200191505060405180910390f35b34801561046057600080fd5b50610495600480360381019080803573ffffffffffffffffffffffffffffffffffffffff1690602001909291905050506108cc565b005b3480156104a357600080fd5b506104c260048036038101908080359060200190929190505050610ab0565b60405180826bffffffffffffffffffffffff19166bffffffffffffffffffffffff1916815260200191505060405180910390f35b34801561050257600080fd5b50610543600480360381019080803573ffffffffffffffffffffffffffffffffffffffff169060200190929190803515159060200190929190505050610ae7565b005b60028181548110151561055457fe5b9060005260206000209060209182820401919006915054906101000a900460ff1681565b600060019050919050565b6000809054906101000a900473ffffffffffffffffffffffffffffffffffffffff1673ffffffffffffffffffffffffffffffffffffffff163373ffffffffffffffffffffffffffffffffffffffff1614151561066d576040517f08c379a000000000000000000000000000000000000000000000000000000000815260040180806020018281038252602a8152602001807f4f6e6c7920636f6e7472616374206f776e65722063616e2063616c6c2074686981526020017f732066756e6374696f6e0000000000000000000000000000000000000000000081525060400191505060405180910390fd5b5050565b60046020528060005260406000206000915054906101000a900460ff1681565b6060600280548060200260200160405190810160405280929190818152602001828054801561070457602002820191906000526020600020906000905b82829054906101000a900460ff161515815260200190600101906020826000010492830192600103820291508084116106ce5790505b5050505050905090565b6000809054906101000a900473ffffffffffffffffffffffffffffffffffffffff1673ffffffffffffffffffffffffffffffffffffffff163373ffffffffffffffffffffffffffffffffffffffff161415156107f8576040517f08c379a000000000000000000000000000000000000000000000000000000000815260040180806020018281038252602a8152602001807f4f6e6c7920636f6e7472616374206f776e65722063616e2063616c6c2074686981526020017f732066756e6374696f6e0000000000000000000000000000000000000000000081525060400191505060405180910390fd5b5050565b6000809054906101000a900473ffffffffffffffffffffffffffffffffffffffff1681565b600060019050919050565b606060018054806020026020016040519081016040528092919081815260200182805480156108a257602002820191906000526020600020905b8160009054906101000a90046c01000000000000000000000000026bffffffffffffffffffffffff191681526020019060010190808311610866575b5050505050905090565b60036020528060005260406000206000915054906101000a900460ff1681565b6000809054906101000a900473ffffffffffffffffffffffffffffffffffffffff1673ffffffffffffffffffffffffffffffffffffffff163373ffffffffffffffffffffffffffffffffffffffff161415156109b6576040517f08c379a000000000000000000000000000000000000000000000000000000000815260040180806020018281038252602a8152602001807f4f6e6c7920636f6e7472616374206f776e65722063616e2063616c6c2074686981526020017f732066756e6374696f6e0000000000000000000000000000000000000000000081525060400191505060405180910390fd5b600073ffffffffffffffffffffffffffffffffffffffff168173ffffffffffffffffffffffffffffffffffffffff16141515156109f257600080fd5b8073ffffffffffffffffffffffffffffffffffffffff166000809054906101000a900473ffffffffffffffffffffffffffffffffffffffff1673ffffffffffffffffffffffffffffffffffffffff167f8be0079c531659141344cd1fd0a4f28419497f9722a3daafe3b4186f6b6457e060405160405180910390a3806000806101000a81548173ffffffffffffffffffffffffffffffffffffffff021916908373ffffffffffffffffffffffffffffffffffffffff16021790555050565b600181815481101515610abf57fe5b906000526020600020016000915054906101000a90046c010000000000000000000000000281565b6000809054906101000a900473ffffffffffffffffffffffffffffffffffffffff1673ffffffffffffffffffffffffffffffffffffffff163373ffffffffffffffffffffffffffffffffffffffff16141515610bd1576040517f08c379a000000000000000000000000000000000000000000000000000000000815260040180806020018281038252602a8152602001807f4f6e6c7920636f6e7472616374206f776e65722063616e2063616c6c2074686981526020017f732066756e6374696f6e0000000000000000000000000000000000000000000081525060400191505060405180910390fd5b50505600a165627a7a723058200864eb88b4ec832ea7f30d57bf34123f023438b4979c8af9d897ac646abd53c20029",
  "source": "pragma solidity ^0.4.24;\n\n/**\n* @title Ownable\n* @dev The Ownable contract has an owner address, and provides basic authorization control\n* functions, this simplifies the implementation of \"user permissions\".\n*/\ncontract Ownable {\n    address public owner;\n\n    event OwnershipTransferred(address indexed previousOwner, address indexed newOwner);\n\n    /**\n    * @dev The Ownable constructor sets the original `owner` of the contract to the sender\n    * account.\n    */\n    constructor () public {\n        owner = msg.sender;\n    }\n\n    /**\n    * @dev Throws if called by any account other than the owner.\n    */\n    modifier onlyOwner() {\n        require(msg.sender == owner, \"Only contract owner can call this function\");\n        _;\n    }\n\n    /**\n    * @dev Allows the current owner to transfer control of the contract to a newOwner.\n    * @param newOwner The address to transfer ownership to.\n    */\n    function transferOwnership(address newOwner) public onlyOwner {\n        require(newOwner != address(0));\n        emit OwnershipTransferred(owner, newOwner);\n        owner = newOwner;\n    }\n\n}\n\ncontract MockApproval is Ownable{\n    bytes20[] public allNodes;\n    bool[] public hasApproval;\n    mapping (bytes20 => bool) public nodeApproved;\n    mapping (address => bool) public identityApproved;\n\n    event NodeApproved(bytes20 nodeId);\n    event NodeRemoved(bytes20 nodeId);\n\n    function identityHasApproval(address identity)\n    public pure returns(bool) {\n        return true;\n    }\n\n    function nodeHasApproval(bytes20 nodeId)\n    public pure returns(bool) {\n        return true;\n    }\n\n    function getAllNodes() public view returns(bytes20[]){\n        return allNodes;\n    }\n\n    function getNodeStatuses() public view returns(bool[]){\n        return hasApproval;\n    }\n    \n    function approve(address identity, bytes20 nodeId) \n    public onlyOwner {\n    }\n\n    function removeApproval(address identity, bytes20 nodeId) \n    public onlyOwner {\n    }\n\n    function setIdentityApproval(address identity, bool newApproval) \n    public onlyOwner {\n    }\n}",
  "sourcePath": "/Users/miloskotlar/starfleet-node/tests/truffle-tests/contracts/MockApproval.sol",
  "compiler": {
    "name": "solc",
    "version": "0.4.26+commit.4563c3fc.Emscripten.clang"
  },
  "schemaVersion": "3.0.16",
  "updatedAt": "2021-02-11T16:12:13.918Z",
  "devdoc": {
    "methods": {
      "transferOwnership(address)": {
        "details": "Allows the current owner to transfer control of the contract to a newOwner.",
        "params": {
          "newOwner": "The address to transfer ownership to."
        }
      }
    }
  },
  "userdoc": {
    "methods": {}
  }
}