{
  "contractName": "Profile",
  "abi": [
    {
      "constant": true,
      "inputs": [],
      "name": "hub",
      "outputs": [
        {
          "name": "",
          "type": "address"
        }
      ],
      "payable": false,
      "stateMutability": "view",
      "type": "function"
    },
    {
      "constant": true,
      "inputs": [],
      "name": "withdrawalTime",
      "outputs": [
        {
          "name": "",
          "type": "uint256"
        }
      ],
      "payable": false,
      "stateMutability": "view",
      "type": "function"
    },
    {
      "constant": true,
      "inputs": [],
      "name": "version",
      "outputs": [
        {
          "name": "",
          "type": "uint256"
        }
      ],
      "payable": false,
      "stateMutability": "view",
      "type": "function"
    },
    {
      "constant": true,
      "inputs": [],
      "name": "minimalStake",
      "outputs": [
        {
          "name": "",
          "type": "uint256"
        }
      ],
      "payable": false,
      "stateMutability": "view",
      "type": "function"
    },
    {
      "inputs": [
        {
          "name": "hubAddress",
          "type": "address"
        }
      ],
      "payable": false,
      "stateMutability": "nonpayable",
      "type": "constructor"
    },
    {
      "anonymous": false,
      "inputs": [
        {
          "indexed": false,
          "name": "profile",
          "type": "address"
        },
        {
          "indexed": false,
          "name": "initialBalance",
          "type": "uint256"
        }
      ],
      "name": "ProfileCreated",
      "type": "event"
    },
    {
      "anonymous": false,
      "inputs": [
        {
          "indexed": false,
          "name": "profile",
          "type": "address"
        },
        {
          "indexed": false,
          "name": "newIdentity",
          "type": "address"
        }
      ],
      "name": "IdentityCreated",
      "type": "event"
    },
    {
      "anonymous": false,
      "inputs": [
        {
          "indexed": false,
          "name": "nodeId",
          "type": "bytes20"
        },
        {
          "indexed": false,
          "name": "oldIdentity",
          "type": "address"
        },
        {
          "indexed": false,
          "name": "newIdentity",
          "type": "address"
        }
      ],
      "name": "IdentityTransferred",
      "type": "event"
    },
    {
      "anonymous": false,
      "inputs": [
        {
          "indexed": false,
          "name": "profile",
          "type": "address"
        },
        {
          "indexed": false,
          "name": "amount",
          "type": "uint256"
        }
      ],
      "name": "TokenDeposit",
      "type": "event"
    },
    {
      "anonymous": false,
      "inputs": [
        {
          "indexed": false,
          "name": "profile",
          "type": "address"
        },
        {
          "indexed": false,
          "name": "amountDeposited",
          "type": "uint256"
        },
        {
          "indexed": false,
          "name": "newBalance",
          "type": "uint256"
        }
      ],
      "name": "TokensDeposited",
      "type": "event"
    },
    {
      "anonymous": false,
      "inputs": [
        {
          "indexed": false,
          "name": "profile",
          "type": "address"
        },
        {
          "indexed": false,
          "name": "amountReserved",
          "type": "uint256"
        }
      ],
      "name": "TokensReserved",
      "type": "event"
    },
    {
      "anonymous": false,
      "inputs": [
        {
          "indexed": false,
          "name": "profile",
          "type": "address"
        },
        {
          "indexed": false,
          "name": "amount",
          "type": "uint256"
        },
        {
          "indexed": false,
          "name": "withdrawalDelayInSeconds",
          "type": "uint256"
        }
      ],
      "name": "WithdrawalInitiated",
      "type": "event"
    },
    {
      "anonymous": false,
      "inputs": [
        {
          "indexed": false,
          "name": "profile",
          "type": "address"
        }
      ],
      "name": "TokenWithdrawalCancelled",
      "type": "event"
    },
    {
      "anonymous": false,
      "inputs": [
        {
          "indexed": false,
          "name": "profile",
          "type": "address"
        },
        {
          "indexed": false,
          "name": "amountWithdrawn",
          "type": "uint256"
        },
        {
          "indexed": false,
          "name": "newBalance",
          "type": "uint256"
        }
      ],
      "name": "TokensWithdrawn",
      "type": "event"
    },
    {
      "anonymous": false,
      "inputs": [
        {
          "indexed": false,
          "name": "profile",
          "type": "address"
        },
        {
          "indexed": false,
          "name": "amount",
          "type": "uint256"
        }
      ],
      "name": "TokensReleased",
      "type": "event"
    },
    {
      "anonymous": false,
      "inputs": [
        {
          "indexed": false,
          "name": "sender",
          "type": "address"
        },
        {
          "indexed": false,
          "name": "receiver",
          "type": "address"
        },
        {
          "indexed": false,
          "name": "amount",
          "type": "uint256"
        }
      ],
      "name": "TokensTransferred",
      "type": "event"
    },
    {
      "constant": false,
      "inputs": [
        {
          "name": "managementWallet",
          "type": "address"
        },
        {
          "name": "profileNodeId",
          "type": "bytes32"
        },
        {
          "name": "initialBalance",
          "type": "uint256"
        },
        {
          "name": "senderHas725",
          "type": "bool"
        },
        {
          "name": "identity",
          "type": "address"
        }
      ],
      "name": "createProfile",
      "outputs": [],
      "payable": false,
      "stateMutability": "nonpayable",
      "type": "function"
    },
    {
      "constant": false,
      "inputs": [
        {
          "name": "oldIdentity",
          "type": "address"
        },
        {
          "name": "managementWallet",
          "type": "address"
        }
      ],
      "name": "transferProfile",
      "outputs": [
        {
          "name": "",
          "type": "address"
        }
      ],
      "payable": false,
      "stateMutability": "nonpayable",
      "type": "function"
    },
    {
      "constant": false,
      "inputs": [
        {
          "name": "identity",
          "type": "address"
        },
        {
          "name": "amount",
          "type": "uint256"
        }
      ],
      "name": "depositTokens",
      "outputs": [],
      "payable": false,
      "stateMutability": "nonpayable",
      "type": "function"
    },
    {
      "constant": false,
      "inputs": [
        {
          "name": "identity",
          "type": "address"
        },
        {
          "name": "amount",
          "type": "uint256"
        }
      ],
      "name": "startTokenWithdrawal",
      "outputs": [],
      "payable": false,
      "stateMutability": "nonpayable",
      "type": "function"
    },
    {
      "constant": false,
      "inputs": [
        {
          "name": "identity",
          "type": "address"
        }
      ],
      "name": "withdrawTokens",
      "outputs": [],
      "payable": false,
      "stateMutability": "nonpayable",
      "type": "function"
    },
    {
      "constant": false,
      "inputs": [
        {
          "name": "identity",
          "type": "address"
        },
        {
          "name": "newNodeId",
          "type": "bytes32"
        }
      ],
      "name": "setNodeId",
      "outputs": [],
      "payable": false,
      "stateMutability": "nonpayable",
      "type": "function"
    },
    {
      "constant": false,
      "inputs": [
        {
          "name": "profile",
          "type": "address"
        },
        {
          "name": "amount",
          "type": "uint256"
        }
      ],
      "name": "releaseTokens",
      "outputs": [],
      "payable": false,
      "stateMutability": "nonpayable",
      "type": "function"
    },
    {
      "constant": false,
      "inputs": [
        {
          "name": "sender",
          "type": "address"
        },
        {
          "name": "receiver",
          "type": "address"
        },
        {
          "name": "amount",
          "type": "uint256"
        }
      ],
      "name": "transferTokens",
      "outputs": [],
      "payable": false,
      "stateMutability": "nonpayable",
      "type": "function"
    },
    {
      "constant": false,
      "inputs": [
        {
          "name": "newMinimalStake",
          "type": "uint256"
        }
      ],
      "name": "setMinimalStake",
      "outputs": [],
      "payable": false,
      "stateMutability": "nonpayable",
      "type": "function"
    },
    {
      "constant": false,
      "inputs": [
        {
          "name": "newWithdrawalTime",
          "type": "uint256"
        }
      ],
      "name": "setWithdrawalTime",
      "outputs": [],
      "payable": false,
      "stateMutability": "nonpayable",
      "type": "function"
    }
  ],
  "bytecode": "0x6080604052606560015568a2a15d09519be0000060025561012c6003553480156200002957600080fd5b5060405160208062008da683398101806040528101908080519060200190929190505050600073ffffffffffffffffffffffffffffffffffffffff168173ffffffffffffffffffffffffffffffffffffffff16141515156200008a57600080fd5b806000806101000a81548173ffffffffffffffffffffffffffffffffffffffff021916908373ffffffffffffffffffffffffffffffffffffffff16021790555050618ccb80620000db6000396000f300608060405260043610620000df576000357c0100000000000000000000000000000000000000000000000000000000900463ffffffff16806307ab5e8414620000e4578063365a86fc1462000134578063389eb9f9146200018e5780633d6ec65e14620001bc57806349df728c14620001ec5780634e7e5f98146200023257806354fd4d5014620002d857806366168bd71462000306578063793b120314620003565780637fdc367614620003e05780639ec41a2d1462000434578063a64b6e5f1462000462578063b6af364314620004d2578063f40d71f11462000502575b600080fd5b348015620000f157600080fd5b5062000132600480360381019080803573ffffffffffffffffffffffffffffffffffffffff1690602001909291908035906020019092919050505062000552565b005b3480156200014157600080fd5b506200014c62000fad565b604051808273ffffffffffffffffffffffffffffffffffffffff1673ffffffffffffffffffffffffffffffffffffffff16815260200191505060405180910390f35b3480156200019b57600080fd5b50620001a662000fd2565b6040518082815260200191505060405180910390f35b348015620001c957600080fd5b50620001ea6004803603810190808035906020019092919050505062000fd8565b005b348015620001f957600080fd5b5062000230600480360381019080803573ffffffffffffffffffffffffffffffffffffffff1690602001909291905050506200117b565b005b3480156200023f57600080fd5b5062000296600480360381019080803573ffffffffffffffffffffffffffffffffffffffff169060200190929190803573ffffffffffffffffffffffffffffffffffffffff16906020019092919050505062001e85565b604051808273ffffffffffffffffffffffffffffffffffffffff1673ffffffffffffffffffffffffffffffffffffffff16815260200191505060405180910390f35b348015620002e557600080fd5b50620002f06200300f565b6040518082815260200191505060405180910390f35b3480156200031357600080fd5b5062000354600480360381019080803573ffffffffffffffffffffffffffffffffffffffff1690602001909291908035906020019092919050505062003015565b005b3480156200036357600080fd5b50620003de600480360381019080803573ffffffffffffffffffffffffffffffffffffffff169060200190929190803560001916906020019092919080359060200190929190803515159060200190929190803573ffffffffffffffffffffffffffffffffffffffff16906020019092919050505062003b63565b005b348015620003ed57600080fd5b5062000432600480360381019080803573ffffffffffffffffffffffffffffffffffffffff1690602001909291908035600019169060200190929190505050620050ac565b005b3480156200044157600080fd5b506200044c62005508565b6040518082815260200191505060405180910390f35b3480156200046f57600080fd5b50620004d0600480360381019080803573ffffffffffffffffffffffffffffffffffffffff169060200190929190803573ffffffffffffffffffffffffffffffffffffffff169060200190929190803590602001909291905050506200550e565b005b348015620004df57600080fd5b506200050060048036038101908080359060200190929190505050620060de565b005b3480156200050f57600080fd5b5062000550600480360381019080803573ffffffffffffffffffffffffffffffffffffffff1690602001909291908035906020019092919050505062006281565b005b6000808373ffffffffffffffffffffffffffffffffffffffff1663d202158d33604051602001808273ffffffffffffffffffffffffffffffffffffffff1673ffffffffffffffffffffffffffffffffffffffff166c010000000000000000000000000281526014019150506040516020818303038152906040526040518082805190602001908083835b602083101515620006035780518252602082019150602081019050602083039250620005dc565b6001836020036101000a038019825116818451168082178552505050505050905001915050604051809103902060016040518363ffffffff167c010000000000000000000000000000000000000000000000000000000002815260040180836000191660001916815260200182815260200192505050602060405180830381600087803b1580156200069457600080fd5b505af1158015620006a9573d6000803e3d6000fd5b505050506040513d6020811015620006c057600080fd5b810190808051906020019092919050505015156200076c576040517f08c379a00000000000000000000000000000000000000000000000000000000081526004018080602001828103825260388152602001807f53656e64657220646f6573206e6f742068617665206d616e6167656d656e742081526020017f7065726d697373696f6e20666f72206964656e7469747921000000000000000081525060400191505060405180910390fd5b6000809054906101000a900473ffffffffffffffffffffffffffffffffffffffff1673ffffffffffffffffffffffffffffffffffffffff166304433bbc6040518163ffffffff167c010000000000000000000000000000000000000000000000000000000002815260040180806020018281038252600e8152602001807f50726f66696c6553746f72616765000000000000000000000000000000000000815250602001915050602060405180830381600087803b1580156200082e57600080fd5b505af115801562000843573d6000803e3d6000fd5b505050506040513d60208110156200085a57600080fd5b81019080805190602001909291905050509150600015158273ffffffffffffffffffffffffffffffffffffffff16632ba97595866040518263ffffffff167c0100000000000000000000000000000000000000000000000000000000028152600401808273ffffffffffffffffffffffffffffffffffffffff1673ffffffffffffffffffffffffffffffffffffffff168152602001915050602060405180830381600087803b1580156200090d57600080fd5b505af115801562000922573d6000803e3d6000fd5b505050506040513d60208110156200093957600080fd5b81019080805190602001909291905050501515141515620009e8576040517f08c379a00000000000000000000000000000000000000000000000000000000081526004018080602001828103825260248152602001807f576974687264726177616c2070726f6365737320616c72656164792070656e6481526020017f696e67210000000000000000000000000000000000000000000000000000000081525060400191505060405180910390fd5b62000bad8273ffffffffffffffffffffffffffffffffffffffff16635ffe0282866040518263ffffffff167c0100000000000000000000000000000000000000000000000000000000028152600401808273ffffffffffffffffffffffffffffffffffffffff1673ffffffffffffffffffffffffffffffffffffffff168152602001915050602060405180830381600087803b15801562000a8857600080fd5b505af115801562000a9d573d6000803e3d6000fd5b505050506040513d602081101562000ab457600080fd5b81019080805190602001909291905050508373ffffffffffffffffffffffffffffffffffffffff16637a766460876040518263ffffffff167c0100000000000000000000000000000000000000000000000000000000028152600401808273ffffffffffffffffffffffffffffffffffffffff1673ffffffffffffffffffffffffffffffffffffffff168152602001915050602060405180830381600087803b15801562000b6157600080fd5b505af115801562000b76573d6000803e3d6000fd5b505050506040513d602081101562000b8d57600080fd5b81019080805190602001909291905050506200691990919063ffffffff16565b90508173ffffffffffffffffffffffffffffffffffffffff16639385067f8560016040518363ffffffff167c0100000000000000000000000000000000000000000000000000000000028152600401808373ffffffffffffffffffffffffffffffffffffffff1673ffffffffffffffffffffffffffffffffffffffff1681526020018215151515815260200192505050600060405180830381600087803b15801562000c5857600080fd5b505af115801562000c6d573d6000803e3d6000fd5b505050508173ffffffffffffffffffffffffffffffffffffffff166367b6d2718560035442016040518363ffffffff167c0100000000000000000000000000000000000000000000000000000000028152600401808373ffffffffffffffffffffffffffffffffffffffff1673ffffffffffffffffffffffffffffffffffffffff16815260200182815260200192505050600060405180830381600087803b15801562000d1957600080fd5b505af115801562000d2e573d6000803e3d6000fd5b50505050828110151562000e74578173ffffffffffffffffffffffffffffffffffffffff166382aa292885856040518363ffffffff167c0100000000000000000000000000000000000000000000000000000000028152600401808373ffffffffffffffffffffffffffffffffffffffff1673ffffffffffffffffffffffffffffffffffffffff16815260200182815260200192505050600060405180830381600087803b15801562000de057600080fd5b505af115801562000df5573d6000803e3d6000fd5b505050507f31f69201fab7912e3ec9850e3ab705964bf46d9d4276bdcbb6d05e965e5f54018484600354604051808473ffffffffffffffffffffffffffffffffffffffff1673ffffffffffffffffffffffffffffffffffffffff168152602001838152602001828152602001935050505060405180910390a162000fa7565b8173ffffffffffffffffffffffffffffffffffffffff166382aa292885836040518363ffffffff167c0100000000000000000000000000000000000000000000000000000000028152600401808373ffffffffffffffffffffffffffffffffffffffff1673ffffffffffffffffffffffffffffffffffffffff16815260200182815260200192505050600060405180830381600087803b15801562000f1857600080fd5b505af115801562000f2d573d6000803e3d6000fd5b505050507f31f69201fab7912e3ec9850e3ab705964bf46d9d4276bdcbb6d05e965e5f54018482600354604051808473ffffffffffffffffffffffffffffffffffffffff1673ffffffffffffffffffffffffffffffffffffffff168152602001838152602001828152602001935050505060405180910390a15b50505050565b6000809054906101000a900473ffffffffffffffffffffffffffffffffffffffff1681565b60035481565b6000809054906101000a900473ffffffffffffffffffffffffffffffffffffffff1673ffffffffffffffffffffffffffffffffffffffff16638da5cb5b6040518163ffffffff167c0100000000000000000000000000000000000000000000000000000000028152600401602060405180830381600087803b1580156200105e57600080fd5b505af115801562001073573d6000803e3d6000fd5b505050506040513d60208110156200108a57600080fd5b810190808051906020019092919050505073ffffffffffffffffffffffffffffffffffffffff163373ffffffffffffffffffffffffffffffffffffffff1614151562001164576040517f08c379a00000000000000000000000000000000000000000000000000000000081526004018080602001828103825260298152602001807f46756e6374696f6e2063616e206f6e6c792062652063616c6c6564206279206881526020017f7562206f776e657221000000000000000000000000000000000000000000000081525060400191505060405180910390fd5b806002541415156200117857806002819055505b50565b60008173ffffffffffffffffffffffffffffffffffffffff1663d202158d33604051602001808273ffffffffffffffffffffffffffffffffffffffff1673ffffffffffffffffffffffffffffffffffffffff166c010000000000000000000000000281526014019150506040516020818303038152906040526040518082805190602001908083835b6020831015156200122b578051825260208201915060208101905060208303925062001204565b6001836020036101000a038019825116818451168082178552505050505050905001915050604051809103902060016040518363ffffffff167c010000000000000000000000000000000000000000000000000000000002815260040180836000191660001916815260200182815260200192505050602060405180830381600087803b158015620012bc57600080fd5b505af1158015620012d1573d6000803e3d6000fd5b505050506040513d6020811015620012e857600080fd5b8101908080519060200190929190505050151562001394576040517f08c379a00000000000000000000000000000000000000000000000000000000081526004018080602001828103825260388152602001807f53656e64657220646f6573206e6f742068617665206d616e6167656d656e742081526020017f7065726d697373696f6e20666f72206964656e7469747921000000000000000081525060400191505060405180910390fd5b6000809054906101000a900473ffffffffffffffffffffffffffffffffffffffff1673ffffffffffffffffffffffffffffffffffffffff166304433bbc6040518163ffffffff167c010000000000000000000000000000000000000000000000000000000002815260040180806020018281038252600e8152602001807f50726f66696c6553746f72616765000000000000000000000000000000000000815250602001915050602060405180830381600087803b1580156200145657600080fd5b505af11580156200146b573d6000803e3d6000fd5b505050506040513d60208110156200148257600080fd5b81019080805190602001909291905050509050600115158173ffffffffffffffffffffffffffffffffffffffff16632ba97595846040518263ffffffff167c0100000000000000000000000000000000000000000000000000000000028152600401808273ffffffffffffffffffffffffffffffffffffffff1673ffffffffffffffffffffffffffffffffffffffff168152602001915050602060405180830381600087803b1580156200153557600080fd5b505af11580156200154a573d6000803e3d6000fd5b505050506040513d60208110156200156157600080fd5b8101908080519060200190929190505050151514151562001610576040517f08c379a00000000000000000000000000000000000000000000000000000000081526004018080602001828103825260388152602001807f43616e6e6f7420776974686472617720746f6b656e73206265666f726520737481526020017f617274696e6720746f6b656e207769746864726177616c21000000000000000081525060400191505060405180910390fd5b428173ffffffffffffffffffffffffffffffffffffffff16639344ea6e846040518263ffffffff167c0100000000000000000000000000000000000000000000000000000000028152600401808273ffffffffffffffffffffffffffffffffffffffff1673ffffffffffffffffffffffffffffffffffffffff168152602001915050602060405180830381600087803b158015620016ad57600080fd5b505af1158015620016c2573d6000803e3d6000fd5b505050506040513d6020811015620016d957600080fd5b810190808051906020019092919050505010151562001786576040517f08c379a00000000000000000000000000000000000000000000000000000000081526004018080602001828103825260338152602001807f43616e6e6f7420776974686472617720746f6b656e73206265666f726520776981526020017f746864726177616c2074696d657374616d70210000000000000000000000000081525060400191505060405180910390fd5b8073ffffffffffffffffffffffffffffffffffffffff1663bec3fa17338373ffffffffffffffffffffffffffffffffffffffff166356582bf9866040518263ffffffff167c0100000000000000000000000000000000000000000000000000000000028152600401808273ffffffffffffffffffffffffffffffffffffffff1673ffffffffffffffffffffffffffffffffffffffff168152602001915050602060405180830381600087803b1580156200183f57600080fd5b505af115801562001854573d6000803e3d6000fd5b505050506040513d60208110156200186b57600080fd5b81019080805190602001909291905050506040518363ffffffff167c0100000000000000000000000000000000000000000000000000000000028152600401808373ffffffffffffffffffffffffffffffffffffffff1673ffffffffffffffffffffffffffffffffffffffff16815260200182815260200192505050600060405180830381600087803b1580156200190257600080fd5b505af115801562001917573d6000803e3d6000fd5b505050508073ffffffffffffffffffffffffffffffffffffffff1663bd3cd5258362001afd8473ffffffffffffffffffffffffffffffffffffffff166356582bf9876040518263ffffffff167c0100000000000000000000000000000000000000000000000000000000028152600401808273ffffffffffffffffffffffffffffffffffffffff1673ffffffffffffffffffffffffffffffffffffffff168152602001915050602060405180830381600087803b158015620019d857600080fd5b505af1158015620019ed573d6000803e3d6000fd5b505050506040513d602081101562001a0457600080fd5b81019080805190602001909291905050508573ffffffffffffffffffffffffffffffffffffffff16637a766460886040518263ffffffff167c0100000000000000000000000000000000000000000000000000000000028152600401808273ffffffffffffffffffffffffffffffffffffffff1673ffffffffffffffffffffffffffffffffffffffff168152602001915050602060405180830381600087803b15801562001ab157600080fd5b505af115801562001ac6573d6000803e3d6000fd5b505050506040513d602081101562001add57600080fd5b81019080805190602001909291905050506200691990919063ffffffff16565b6040518363ffffffff167c0100000000000000000000000000000000000000000000000000000000028152600401808373ffffffffffffffffffffffffffffffffffffffff1673ffffffffffffffffffffffffffffffffffffffff16815260200182815260200192505050600060405180830381600087803b15801562001b8357600080fd5b505af115801562001b98573d6000803e3d6000fd5b505050508073ffffffffffffffffffffffffffffffffffffffff16639385067f8360006040518363ffffffff167c0100000000000000000000000000000000000000000000000000000000028152600401808373ffffffffffffffffffffffffffffffffffffffff1673ffffffffffffffffffffffffffffffffffffffff1681526020018215151515815260200192505050600060405180830381600087803b15801562001c4557600080fd5b505af115801562001c5a573d6000803e3d6000fd5b505050507fffe903c0abe6b2dbb2f3474ef43d7a3c1fca49e5a774453423ca8e1952aabffa828273ffffffffffffffffffffffffffffffffffffffff166356582bf9856040518263ffffffff167c0100000000000000000000000000000000000000000000000000000000028152600401808273ffffffffffffffffffffffffffffffffffffffff1673ffffffffffffffffffffffffffffffffffffffff168152602001915050602060405180830381600087803b15801562001d1c57600080fd5b505af115801562001d31573d6000803e3d6000fd5b505050506040513d602081101562001d4857600080fd5b81019080805190602001909291905050508373ffffffffffffffffffffffffffffffffffffffff16637a766460866040518263ffffffff167c0100000000000000000000000000000000000000000000000000000000028152600401808273ffffffffffffffffffffffffffffffffffffffff1673ffffffffffffffffffffffffffffffffffffffff168152602001915050602060405180830381600087803b15801562001df557600080fd5b505af115801562001e0a573d6000803e3d6000fd5b505050506040513d602081101562001e2157600080fd5b8101908080519060200190929190505050604051808473ffffffffffffffffffffffffffffffffffffffff1673ffffffffffffffffffffffffffffffffffffffff168152602001838152602001828152602001935050505060405180910390a15050565b60008060008473ffffffffffffffffffffffffffffffffffffffff1663d202158d33604051602001808273ffffffffffffffffffffffffffffffffffffffff1673ffffffffffffffffffffffffffffffffffffffff166c010000000000000000000000000281526014019150506040516020818303038152906040526040518082805190602001908083835b60208310151562001f38578051825260208201915060208101905060208303925062001f11565b6001836020036101000a038019825116818451168082178552505050505050905001915050604051809103902060016040518363ffffffff167c010000000000000000000000000000000000000000000000000000000002815260040180836000191660001916815260200182815260200192505050602060405180830381600087803b15801562001fc957600080fd5b505af115801562001fde573d6000803e3d6000fd5b505050506040513d602081101562001ff557600080fd5b81019080805190602001909291905050501515620020a1576040517f08c379a00000000000000000000000000000000000000000000000000000000081526004018080602001828103825260388152602001807f53656e64657220646f6573206e6f742068617665206d616e6167656d656e742081526020017f7065726d697373696f6e20666f72206964656e7469747921000000000000000081525060400191505060405180910390fd5b600073ffffffffffffffffffffffffffffffffffffffff168473ffffffffffffffffffffffffffffffffffffffff1614151515620020de57600080fd5b3384620020ea62006952565b808373ffffffffffffffffffffffffffffffffffffffff1673ffffffffffffffffffffffffffffffffffffffff1681526020018273ffffffffffffffffffffffffffffffffffffffff1673ffffffffffffffffffffffffffffffffffffffff16815260200192505050604051809103906000f08015801562002170573d6000803e3d6000fd5b5091507f45afe31e3a48a54e27da1d1f2ec6c6e272ce5838616e0d61071b223bceb5c6903383604051808373ffffffffffffffffffffffffffffffffffffffff1673ffffffffffffffffffffffffffffffffffffffff1681526020018273ffffffffffffffffffffffffffffffffffffffff1673ffffffffffffffffffffffffffffffffffffffff1681526020019250505060405180910390a16000809054906101000a900473ffffffffffffffffffffffffffffffffffffffff1673ffffffffffffffffffffffffffffffffffffffff166304433bbc6040518163ffffffff167c010000000000000000000000000000000000000000000000000000000002815260040180806020018281038252600e8152602001807f50726f66696c6553746f72616765000000000000000000000000000000000000815250602001915050602060405180830381600087803b158015620022cc57600080fd5b505af1158015620022e1573d6000803e3d6000fd5b505050506040513d6020811015620022f857600080fd5b810190808051906020019092919050505090508073ffffffffffffffffffffffffffffffffffffffff1663bd3cd525838373ffffffffffffffffffffffffffffffffffffffff16637a766460896040518263ffffffff167c0100000000000000000000000000000000000000000000000000000000028152600401808273ffffffffffffffffffffffffffffffffffffffff1673ffffffffffffffffffffffffffffffffffffffff168152602001915050602060405180830381600087803b158015620023c457600080fd5b505af1158015620023d9573d6000803e3d6000fd5b505050506040513d6020811015620023f057600080fd5b81019080805190602001909291905050506040518363ffffffff167c0100000000000000000000000000000000000000000000000000000000028152600401808373ffffffffffffffffffffffffffffffffffffffff1673ffffffffffffffffffffffffffffffffffffffff16815260200182815260200192505050600060405180830381600087803b1580156200248757600080fd5b505af11580156200249c573d6000803e3d6000fd5b505050508073ffffffffffffffffffffffffffffffffffffffff166350c3ff57838373ffffffffffffffffffffffffffffffffffffffff16635ffe0282896040518263ffffffff167c0100000000000000000000000000000000000000000000000000000000028152600401808273ffffffffffffffffffffffffffffffffffffffff1673ffffffffffffffffffffffffffffffffffffffff168152602001915050602060405180830381600087803b1580156200255957600080fd5b505af11580156200256e573d6000803e3d6000fd5b505050506040513d60208110156200258557600080fd5b81019080805190602001909291905050506040518363ffffffff167c0100000000000000000000000000000000000000000000000000000000028152600401808373ffffffffffffffffffffffffffffffffffffffff1673ffffffffffffffffffffffffffffffffffffffff16815260200182815260200192505050600060405180830381600087803b1580156200261c57600080fd5b505af115801562002631573d6000803e3d6000fd5b505050508073ffffffffffffffffffffffffffffffffffffffff16637fdc3676838373ffffffffffffffffffffffffffffffffffffffff1663b56e4129896040518263ffffffff167c0100000000000000000000000000000000000000000000000000000000028152600401808273ffffffffffffffffffffffffffffffffffffffff1673ffffffffffffffffffffffffffffffffffffffff168152602001915050602060405180830381600087803b158015620026ee57600080fd5b505af115801562002703573d6000803e3d6000fd5b505050506040513d60208110156200271a57600080fd5b81019080805190602001909291905050506040518363ffffffff167c0100000000000000000000000000000000000000000000000000000000028152600401808373ffffffffffffffffffffffffffffffffffffffff1673ffffffffffffffffffffffffffffffffffffffff168152602001826000191660001916815260200192505050600060405180830381600087803b158015620027b957600080fd5b505af1158015620027ce573d6000803e3d6000fd5b505050508073ffffffffffffffffffffffffffffffffffffffff1663b120c16a838373ffffffffffffffffffffffffffffffffffffffff16639c89a0e2896040518263ffffffff167c0100000000000000000000000000000000000000000000000000000000028152600401808273ffffffffffffffffffffffffffffffffffffffff1673ffffffffffffffffffffffffffffffffffffffff168152602001915050602060405180830381600087803b1580156200288b57600080fd5b505af1158015620028a0573d6000803e3d6000fd5b505050506040513d6020811015620028b757600080fd5b81019080805190602001909291905050506040518363ffffffff167c0100000000000000000000000000000000000000000000000000000000028152600401808373ffffffffffffffffffffffffffffffffffffffff1673ffffffffffffffffffffffffffffffffffffffff16815260200182815260200192505050600060405180830381600087803b1580156200294e57600080fd5b505af115801562002963573d6000803e3d6000fd5b505050508073ffffffffffffffffffffffffffffffffffffffff16632ba97595866040518263ffffffff167c0100000000000000000000000000000000000000000000000000000000028152600401808273ffffffffffffffffffffffffffffffffffffffff1673ffffffffffffffffffffffffffffffffffffffff168152602001915050602060405180830381600087803b15801562002a0357600080fd5b505af115801562002a18573d6000803e3d6000fd5b505050506040513d602081101562002a2f57600080fd5b81019080805190602001909291905050501562002b6c577fe620a5cd1939f914498389c738a277970e529ecdc3b0418781cb8ae7e4e85e4b85604051808273ffffffffffffffffffffffffffffffffffffffff1673ffffffffffffffffffffffffffffffffffffffff16815260200191505060405180910390a18073ffffffffffffffffffffffffffffffffffffffff16639385067f8660006040518363ffffffff167c0100000000000000000000000000000000000000000000000000000000028152600401808373ffffffffffffffffffffffffffffffffffffffff1673ffffffffffffffffffffffffffffffffffffffff1681526020018215151515815260200192505050600060405180830381600087803b15801562002b5257600080fd5b505af115801562002b67573d6000803e3d6000fd5b505050505b8073ffffffffffffffffffffffffffffffffffffffff1663bd3cd5258660006040518363ffffffff167c0100000000000000000000000000000000000000000000000000000000028152600401808373ffffffffffffffffffffffffffffffffffffffff1673ffffffffffffffffffffffffffffffffffffffff16815260200182815260200192505050600060405180830381600087803b15801562002c1157600080fd5b505af115801562002c26573d6000803e3d6000fd5b505050508073ffffffffffffffffffffffffffffffffffffffff166350c3ff578660006040518363ffffffff167c0100000000000000000000000000000000000000000000000000000000028152600401808373ffffffffffffffffffffffffffffffffffffffff1673ffffffffffffffffffffffffffffffffffffffff16815260200182815260200192505050600060405180830381600087803b15801562002ccf57600080fd5b505af115801562002ce4573d6000803e3d6000fd5b505050508073ffffffffffffffffffffffffffffffffffffffff16637fdc36768660006001026040518363ffffffff167c0100000000000000000000000000000000000000000000000000000000028152600401808373ffffffffffffffffffffffffffffffffffffffff1673ffffffffffffffffffffffffffffffffffffffff168152602001826000191660001916815260200192505050600060405180830381600087803b15801562002d9857600080fd5b505af115801562002dad573d6000803e3d6000fd5b505050508073ffffffffffffffffffffffffffffffffffffffff1663b120c16a8660006040518363ffffffff167c0100000000000000000000000000000000000000000000000000000000028152600401808373ffffffffffffffffffffffffffffffffffffffff1673ffffffffffffffffffffffffffffffffffffffff16815260200182815260200192505050600060405180830381600087803b15801562002e5657600080fd5b505af115801562002e6b573d6000803e3d6000fd5b505050507f13e9f84e9beb70c3cf04fa0c394e1a3559ad94dae6414adbdadbfac11097719b8173ffffffffffffffffffffffffffffffffffffffff1663b56e4129846040518263ffffffff167c0100000000000000000000000000000000000000000000000000000000028152600401808273ffffffffffffffffffffffffffffffffffffffff1673ffffffffffffffffffffffffffffffffffffffff168152602001915050602060405180830381600087803b15801562002f2c57600080fd5b505af115801562002f41573d6000803e3d6000fd5b505050506040513d602081101562002f5857600080fd5b8101908080519060200190929190505050868460405180846bffffffffffffffffffffffff19166bffffffffffffffffffffffff191681526020018373ffffffffffffffffffffffffffffffffffffffff1673ffffffffffffffffffffffffffffffffffffffff1681526020018273ffffffffffffffffffffffffffffffffffffffff1673ffffffffffffffffffffffffffffffffffffffff168152602001935050505060405180910390a1819250505092915050565b60015481565b6000808373ffffffffffffffffffffffffffffffffffffffff1663d202158d33604051602001808273ffffffffffffffffffffffffffffffffffffffff1673ffffffffffffffffffffffffffffffffffffffff166c010000000000000000000000000281526014019150506040516020818303038152906040526040518082805190602001908083835b602083101515620030c657805182526020820191506020810190506020830392506200309f565b6001836020036101000a038019825116818451168082178552505050505050905001915050604051809103902060016040518363ffffffff167c010000000000000000000000000000000000000000000000000000000002815260040180836000191660001916815260200182815260200192505050602060405180830381600087803b1580156200315757600080fd5b505af11580156200316c573d6000803e3d6000fd5b505050506040513d60208110156200318357600080fd5b810190808051906020019092919050505015156200322f576040517f08c379a00000000000000000000000000000000000000000000000000000000081526004018080602001828103825260388152602001807f53656e64657220646f6573206e6f742068617665206d616e6167656d656e742081526020017f7065726d697373696f6e20666f72206964656e7469747921000000000000000081525060400191505060405180910390fd5b6000809054906101000a900473ffffffffffffffffffffffffffffffffffffffff1673ffffffffffffffffffffffffffffffffffffffff166304433bbc6040518163ffffffff167c010000000000000000000000000000000000000000000000000000000002815260040180806020018281038252600e8152602001807f50726f66696c6553746f72616765000000000000000000000000000000000000815250602001915050602060405180830381600087803b158015620032f157600080fd5b505af115801562003306573d6000803e3d6000fd5b505050506040513d60208110156200331d57600080fd5b810190808051906020019092919050505091506000809054906101000a900473ffffffffffffffffffffffffffffffffffffffff1673ffffffffffffffffffffffffffffffffffffffff166304433bbc6040518163ffffffff167c01000000000000000000000000000000000000000000000000000000000281526004018080602001828103825260058152602001807f546f6b656e000000000000000000000000000000000000000000000000000000815250602001915050602060405180830381600087803b158015620033f257600080fd5b505af115801562003407573d6000803e3d6000fd5b505050506040513d60208110156200341e57600080fd5b81019080805190602001909291905050509050828173ffffffffffffffffffffffffffffffffffffffff1663dd62ed3e33306040518363ffffffff167c0100000000000000000000000000000000000000000000000000000000028152600401808373ffffffffffffffffffffffffffffffffffffffff1673ffffffffffffffffffffffffffffffffffffffff1681526020018273ffffffffffffffffffffffffffffffffffffffff1673ffffffffffffffffffffffffffffffffffffffff16815260200192505050602060405180830381600087803b1580156200350257600080fd5b505af115801562003517573d6000803e3d6000fd5b505050506040513d60208110156200352e57600080fd5b810190808051906020019092919050505010151515620035dc576040517f08c379a000000000000000000000000000000000000000000000000000000000815260040180806020018281038252603e8152602001807f53656e64657220616c6c6f77616e6365206d75737420626520657175616c207481526020017f6f206f7220686967686572207468616e2063686f73656e20616d6f756e74000081525060400191505060405180910390fd5b828173ffffffffffffffffffffffffffffffffffffffff166370a08231336040518263ffffffff167c0100000000000000000000000000000000000000000000000000000000028152600401808273ffffffffffffffffffffffffffffffffffffffff1673ffffffffffffffffffffffffffffffffffffffff168152602001915050602060405180830381600087803b1580156200367957600080fd5b505af11580156200368e573d6000803e3d6000fd5b505050506040513d6020811015620036a557600080fd5b81019080805190602001909291905050501015151562003753576040517f08c379a000000000000000000000000000000000000000000000000000000000815260040180806020018281038252603d8152602001807f53656e6465722062616c616e6365206d75737420626520657175616c20746f2081526020017f6f7220686967686572207468616e2063686f73656e20616d6f756e742100000081525060400191505060405180910390fd5b8073ffffffffffffffffffffffffffffffffffffffff166323b872dd3384866040518463ffffffff167c0100000000000000000000000000000000000000000000000000000000028152600401808473ffffffffffffffffffffffffffffffffffffffff1673ffffffffffffffffffffffffffffffffffffffff1681526020018373ffffffffffffffffffffffffffffffffffffffff1673ffffffffffffffffffffffffffffffffffffffff1681526020018281526020019350505050602060405180830381600087803b1580156200382b57600080fd5b505af115801562003840573d6000803e3d6000fd5b505050506040513d60208110156200385757600080fd5b8101908080519060200190929190505050508173ffffffffffffffffffffffffffffffffffffffff1663bd3cd5258562003973868673ffffffffffffffffffffffffffffffffffffffff16637a7664608a6040518263ffffffff167c0100000000000000000000000000000000000000000000000000000000028152600401808273ffffffffffffffffffffffffffffffffffffffff1673ffffffffffffffffffffffffffffffffffffffff168152602001915050602060405180830381600087803b1580156200392757600080fd5b505af11580156200393c573d6000803e3d6000fd5b505050506040513d60208110156200395357600080fd5b81019080805190602001909291905050506200693390919063ffffffff16565b6040518363ffffffff167c0100000000000000000000000000000000000000000000000000000000028152600401808373ffffffffffffffffffffffffffffffffffffffff1673ffffffffffffffffffffffffffffffffffffffff16815260200182815260200192505050600060405180830381600087803b158015620039f957600080fd5b505af115801562003a0e573d6000803e3d6000fd5b505050507ffdfdcf596161b0e81e3161597d46888dcc88bd83b22dcfb341c76377ca3bbc9e84848473ffffffffffffffffffffffffffffffffffffffff16637a766460886040518263ffffffff167c0100000000000000000000000000000000000000000000000000000000028152600401808273ffffffffffffffffffffffffffffffffffffffff1673ffffffffffffffffffffffffffffffffffffffff168152602001915050602060405180830381600087803b15801562003ad157600080fd5b505af115801562003ae6573d6000803e3d6000fd5b505050506040513d602081101562003afd57600080fd5b8101908080519060200190929190505050604051808473ffffffffffffffffffffffffffffffffffffffff1673ffffffffffffffffffffffffffffffffffffffff168152602001838152602001828152602001935050505060405180910390a150505050565b60008060008073ffffffffffffffffffffffffffffffffffffffff168873ffffffffffffffffffffffffffffffffffffffff161415151562003ba457600080fd5b6000809054906101000a900473ffffffffffffffffffffffffffffffffffffffff1673ffffffffffffffffffffffffffffffffffffffff16639d76ea586040518163ffffffff167c0100000000000000000000000000000000000000000000000000000000028152600401602060405180830381600087803b15801562003c2a57600080fd5b505af115801562003c3f573d6000803e3d6000fd5b505050506040513d602081101562003c5657600080fd5b81019080805190602001909291905050509250858373ffffffffffffffffffffffffffffffffffffffff1663dd62ed3e33306040518363ffffffff167c0100000000000000000000000000000000000000000000000000000000028152600401808373ffffffffffffffffffffffffffffffffffffffff1673ffffffffffffffffffffffffffffffffffffffff1681526020018273ffffffffffffffffffffffffffffffffffffffff1673ffffffffffffffffffffffffffffffffffffffff16815260200192505050602060405180830381600087803b15801562003d3a57600080fd5b505af115801562003d4f573d6000803e3d6000fd5b505050506040513d602081101562003d6657600080fd5b81019080805190602001909291905050501015151562003e14576040517f08c379a00000000000000000000000000000000000000000000000000000000081526004018080602001828103825260408152602001807f53656e64657220616c6c6f77616e6365206d75737420626520657175616c207481526020017f6f206f7220686967686572207468616e20696e697469616c2062616c616e636581525060400191505060405180910390fd5b858373ffffffffffffffffffffffffffffffffffffffff166370a08231336040518263ffffffff167c0100000000000000000000000000000000000000000000000000000000028152600401808273ffffffffffffffffffffffffffffffffffffffff1673ffffffffffffffffffffffffffffffffffffffff168152602001915050602060405180830381600087803b15801562003eb157600080fd5b505af115801562003ec6573d6000803e3d6000fd5b505050506040513d602081101562003edd57600080fd5b81019080805190602001909291905050501015151562003f8b576040517f08c379a000000000000000000000000000000000000000000000000000000000815260040180806020018281038252603f8152602001807f53656e6465722062616c616e6365206d75737420626520657175616c20746f2081526020017f6f7220686967686572207468616e20696e697469616c2062616c616e6365210081525060400191505060405180910390fd5b60008760019004141515156200402f576040517f08c379a00000000000000000000000000000000000000000000000000000000081526004018080602001828103825260328152602001807f43616e6e6f742063726561746520612070726f66696c6520776974686f75742081526020017f61206e6f64654964207375626d6974746564000000000000000000000000000081525060400191505060405180910390fd5b8273ffffffffffffffffffffffffffffffffffffffff166323b872dd336000809054906101000a900473ffffffffffffffffffffffffffffffffffffffff1673ffffffffffffffffffffffffffffffffffffffff166304433bbc6040518163ffffffff167c010000000000000000000000000000000000000000000000000000000002815260040180806020018281038252600e8152602001807f50726f66696c6553746f72616765000000000000000000000000000000000000815250602001915050602060405180830381600087803b1580156200410e57600080fd5b505af115801562004123573d6000803e3d6000fd5b505050506040513d60208110156200413a57600080fd5b8101908080519060200190929190505050896040518463ffffffff167c0100000000000000000000000000000000000000000000000000000000028152600401808473ffffffffffffffffffffffffffffffffffffffff1673ffffffffffffffffffffffffffffffffffffffff1681526020018373ffffffffffffffffffffffffffffffffffffffff1673ffffffffffffffffffffffffffffffffffffffff1681526020018281526020019350505050602060405180830381600087803b1580156200420557600080fd5b505af11580156200421a573d6000803e3d6000fd5b505050506040513d60208110156200423157600080fd5b810190808051906020019092919050505050841515620047665733886200425762006952565b808373ffffffffffffffffffffffffffffffffffffffff1673ffffffffffffffffffffffffffffffffffffffff1681526020018273ffffffffffffffffffffffffffffffffffffffff1673ffffffffffffffffffffffffffffffffffffffff16815260200192505050604051809103906000f080158015620042dd573d6000803e3d6000fd5b5091507f45afe31e3a48a54e27da1d1f2ec6c6e272ce5838616e0d61071b223bceb5c6903383604051808373ffffffffffffffffffffffffffffffffffffffff1673ffffffffffffffffffffffffffffffffffffffff1681526020018273ffffffffffffffffffffffffffffffffffffffff1673ffffffffffffffffffffffffffffffffffffffff1681526020019250505060405180910390a16000809054906101000a900473ffffffffffffffffffffffffffffffffffffffff1673ffffffffffffffffffffffffffffffffffffffff166304433bbc6040518163ffffffff167c010000000000000000000000000000000000000000000000000000000002815260040180806020018281038252600e8152602001807f50726f66696c6553746f72616765000000000000000000000000000000000000815250602001915050602060405180830381600087803b1580156200443957600080fd5b505af11580156200444e573d6000803e3d6000fd5b505050506040513d60208110156200446557600080fd5b810190808051906020019092919050505073ffffffffffffffffffffffffffffffffffffffff1663bd3cd52583886040518363ffffffff167c0100000000000000000000000000000000000000000000000000000000028152600401808373ffffffffffffffffffffffffffffffffffffffff1673ffffffffffffffffffffffffffffffffffffffff16815260200182815260200192505050600060405180830381600087803b1580156200451957600080fd5b505af11580156200452e573d6000803e3d6000fd5b505050506000809054906101000a900473ffffffffffffffffffffffffffffffffffffffff1673ffffffffffffffffffffffffffffffffffffffff166304433bbc6040518163ffffffff167c010000000000000000000000000000000000000000000000000000000002815260040180806020018281038252600e8152602001807f50726f66696c6553746f72616765000000000000000000000000000000000000815250602001915050602060405180830381600087803b158015620045f457600080fd5b505af115801562004609573d6000803e3d6000fd5b505050506040513d60208110156200462057600080fd5b810190808051906020019092919050505073ffffffffffffffffffffffffffffffffffffffff16637fdc367683896040518363ffffffff167c0100000000000000000000000000000000000000000000000000000000028152600401808373ffffffffffffffffffffffffffffffffffffffff1673ffffffffffffffffffffffffffffffffffffffff168152602001826000191660001916815260200192505050600060405180830381600087803b158015620046dc57600080fd5b505af1158015620046f1573d6000803e3d6000fd5b505050507fcb939889322fed25104a5d8945bde5162563412a1fd718946cdcacb03088ea088287604051808373ffffffffffffffffffffffffffffffffffffffff1673ffffffffffffffffffffffffffffffffffffffff1681526020018281526020019250505060405180910390a162004d67565b8373ffffffffffffffffffffffffffffffffffffffff1663d202158d33604051602001808273ffffffffffffffffffffffffffffffffffffffff1673ffffffffffffffffffffffffffffffffffffffff166c010000000000000000000000000281526014019150506040516020818303038152906040526040518082805190602001908083835b602083101515620048145780518252602082019150602081019050602083039250620047ed565b6001836020036101000a038019825116818451168082178552505050505050905001915050604051809103902060026040518363ffffffff167c010000000000000000000000000000000000000000000000000000000002815260040180836000191660001916815260200182815260200192505050602060405180830381600087803b158015620048a557600080fd5b505af1158015620048ba573d6000803e3d6000fd5b505050506040513d6020811015620048d157600080fd5b810190808051906020019092919050505015156200497d576040517f08c379a00000000000000000000000000000000000000000000000000000000081526004018080602001828103825260348152602001807f53656e64657220646f6573206e6f74206861766520616374696f6e207065726d81526020017f697373696f6e20666f72206964656e746974792100000000000000000000000081525060400191505060405180910390fd5b6000809054906101000a900473ffffffffffffffffffffffffffffffffffffffff1673ffffffffffffffffffffffffffffffffffffffff166304433bbc6040518163ffffffff167c010000000000000000000000000000000000000000000000000000000002815260040180806020018281038252600e8152602001807f50726f66696c6553746f72616765000000000000000000000000000000000000815250602001915050602060405180830381600087803b15801562004a3f57600080fd5b505af115801562004a54573d6000803e3d6000fd5b505050506040513d602081101562004a6b57600080fd5b810190808051906020019092919050505073ffffffffffffffffffffffffffffffffffffffff1663bd3cd52585886040518363ffffffff167c0100000000000000000000000000000000000000000000000000000000028152600401808373ffffffffffffffffffffffffffffffffffffffff1673ffffffffffffffffffffffffffffffffffffffff16815260200182815260200192505050600060405180830381600087803b15801562004b1f57600080fd5b505af115801562004b34573d6000803e3d6000fd5b505050506000809054906101000a900473ffffffffffffffffffffffffffffffffffffffff1673ffffffffffffffffffffffffffffffffffffffff166304433bbc6040518163ffffffff167c010000000000000000000000000000000000000000000000000000000002815260040180806020018281038252600e8152602001807f50726f66696c6553746f72616765000000000000000000000000000000000000815250602001915050602060405180830381600087803b15801562004bfa57600080fd5b505af115801562004c0f573d6000803e3d6000fd5b505050506040513d602081101562004c2657600080fd5b810190808051906020019092919050505073ffffffffffffffffffffffffffffffffffffffff16637fdc367685896040518363ffffffff167c0100000000000000000000000000000000000000000000000000000000028152600401808373ffffffffffffffffffffffffffffffffffffffff1673ffffffffffffffffffffffffffffffffffffffff168152602001826000191660001916815260200192505050600060405180830381600087803b15801562004ce257600080fd5b505af115801562004cf7573d6000803e3d6000fd5b505050507fcb939889322fed25104a5d8945bde5162563412a1fd718946cdcacb03088ea088487604051808373ffffffffffffffffffffffffffffffffffffffff1673ffffffffffffffffffffffffffffffffffffffff1681526020018281526020019250505060405180910390a15b600254861115620050a2576000809054906101000a900473ffffffffffffffffffffffffffffffffffffffff1673ffffffffffffffffffffffffffffffffffffffff166304433bbc6040518163ffffffff167c010000000000000000000000000000000000000000000000000000000002815260040180806020018281038252600e8152602001807f50726f66696c6553746f72616765000000000000000000000000000000000000815250602001915050602060405180830381600087803b15801562004e3457600080fd5b505af115801562004e49573d6000803e3d6000fd5b505050506040513d602081101562004e6057600080fd5b810190808051906020019092919050505073ffffffffffffffffffffffffffffffffffffffff166307f196516040518163ffffffff167c0100000000000000000000000000000000000000000000000000000000028152600401602060405180830381600087803b15801562004ed557600080fd5b505af115801562004eea573d6000803e3d6000fd5b505050506040513d602081101562004f0157600080fd5b810190808051906020019092919050505090506001810190506000809054906101000a900473ffffffffffffffffffffffffffffffffffffffff1673ffffffffffffffffffffffffffffffffffffffff166304433bbc6040518163ffffffff167c010000000000000000000000000000000000000000000000000000000002815260040180806020018281038252600e8152602001807f50726f66696c6553746f72616765000000000000000000000000000000000000815250602001915050602060405180830381600087803b15801562004fdc57600080fd5b505af115801562004ff1573d6000803e3d6000fd5b505050506040513d60208110156200500857600080fd5b810190808051906020019092919050505073ffffffffffffffffffffffffffffffffffffffff166348fd564b826040518263ffffffff167c010000000000000000000000000000000000000000000000000000000002815260040180828152602001915050600060405180830381600087803b1580156200508857600080fd5b505af11580156200509d573d6000803e3d6000fd5b505050505b5050505050505050565b8173ffffffffffffffffffffffffffffffffffffffff1663d202158d33604051602001808273ffffffffffffffffffffffffffffffffffffffff1673ffffffffffffffffffffffffffffffffffffffff166c010000000000000000000000000281526014019150506040516020818303038152906040526040518082805190602001908083835b6020831015156200515a578051825260208201915060208101905060208303925062005133565b6001836020036101000a038019825116818451168082178552505050505050905001915050604051809103902060026040518363ffffffff167c010000000000000000000000000000000000000000000000000000000002815260040180836000191660001916815260200182815260200192505050602060405180830381600087803b158015620051eb57600080fd5b505af115801562005200573d6000803e3d6000fd5b505050506040513d60208110156200521757600080fd5b81019080805190602001909291905050501515620052c3576040517f08c379a000000000000000000000000000000000000000000000000000000000815260040180806020018281038252603d8152602001807f53656e64657220646f6573206e6f74206861766520616374696f6e207065726d81526020017f697373696f6e20666f72207375626d6974746564206964656e7469747900000081525060400191505060405180910390fd5b600081600190041415151562005341576040517f08c379a00000000000000000000000000000000000000000000000000000000081526004018080602001828103825260198152602001807f43616e6e6f7420736574206120626c616e6b206e6f646549640000000000000081525060200191505060405180910390fd5b6000809054906101000a900473ffffffffffffffffffffffffffffffffffffffff1673ffffffffffffffffffffffffffffffffffffffff166304433bbc6040518163ffffffff167c010000000000000000000000000000000000000000000000000000000002815260040180806020018281038252600e8152602001807f50726f66696c6553746f72616765000000000000000000000000000000000000815250602001915050602060405180830381600087803b1580156200540357600080fd5b505af115801562005418573d6000803e3d6000fd5b505050506040513d60208110156200542f57600080fd5b810190808051906020019092919050505073ffffffffffffffffffffffffffffffffffffffff16637fdc367683836040518363ffffffff167c0100000000000000000000000000000000000000000000000000000000028152600401808373ffffffffffffffffffffffffffffffffffffffff1673ffffffffffffffffffffffffffffffffffffffff168152602001826000191660001916815260200192505050600060405180830381600087803b158015620054eb57600080fd5b505af115801562005500573d6000803e3d6000fd5b505050505050565b60025481565b60008060009054906101000a900473ffffffffffffffffffffffffffffffffffffffff1673ffffffffffffffffffffffffffffffffffffffff166304433bbc6040518163ffffffff167c01000000000000000000000000000000000000000000000000000000000281526004018080602001828103825260078152602001807f486f6c64696e6700000000000000000000000000000000000000000000000000815250602001915050602060405180830381600087803b158015620055d257600080fd5b505af1158015620055e7573d6000803e3d6000fd5b505050506040513d6020811015620055fe57600080fd5b810190808051906020019092919050505073ffffffffffffffffffffffffffffffffffffffff163373ffffffffffffffffffffffffffffffffffffffff16141515620056d8576040517f08c379a00000000000000000000000000000000000000000000000000000000081526004018080602001828103825260308152602001807f46756e6374696f6e2063616e206f6e6c792062652063616c6c6564206279204881526020017f6f6c64696e6720636f6e7472616374210000000000000000000000000000000081525060400191505060405180910390fd5b600073ffffffffffffffffffffffffffffffffffffffff168473ffffffffffffffffffffffffffffffffffffffff1614158015620057435750600073ffffffffffffffffffffffffffffffffffffffff168373ffffffffffffffffffffffffffffffffffffffff1614155b15156200574f57600080fd5b6000809054906101000a900473ffffffffffffffffffffffffffffffffffffffff1673ffffffffffffffffffffffffffffffffffffffff166304433bbc6040518163ffffffff167c010000000000000000000000000000000000000000000000000000000002815260040180806020018281038252600e8152602001807f50726f66696c6553746f72616765000000000000000000000000000000000000815250602001915050602060405180830381600087803b1580156200581157600080fd5b505af115801562005826573d6000803e3d6000fd5b505050506040513d60208110156200583d57600080fd5b81019080805190602001909291905050509050818173ffffffffffffffffffffffffffffffffffffffff16637a766460866040518263ffffffff167c0100000000000000000000000000000000000000000000000000000000028152600401808273ffffffffffffffffffffffffffffffffffffffff1673ffffffffffffffffffffffffffffffffffffffff168152602001915050602060405180830381600087803b158015620058ed57600080fd5b505af115801562005902573d6000803e3d6000fd5b505050506040513d60208110156200591957600080fd5b810190808051906020019092919050505010151515620059c7576040517f08c379a000000000000000000000000000000000000000000000000000000000815260040180806020018281038252602f8152602001807f53656e64657220646f6573206e6f74206861766520656e6f75676820746f6b6581526020017f6e7320746f207472616e7366657221000000000000000000000000000000000081525060400191505060405180910390fd5b818173ffffffffffffffffffffffffffffffffffffffff16635ffe0282866040518263ffffffff167c0100000000000000000000000000000000000000000000000000000000028152600401808273ffffffffffffffffffffffffffffffffffffffff1673ffffffffffffffffffffffffffffffffffffffff168152602001915050602060405180830381600087803b15801562005a6457600080fd5b505af115801562005a79573d6000803e3d6000fd5b505050506040513d602081101562005a9057600080fd5b81019080805190602001909291905050501015151562005b3e576040517f08c379a00000000000000000000000000000000000000000000000000000000081526004018080602001828103825260388152602001807f53656e64657220646f6573206e6f74206861766520656e6f75676820746f6b6581526020017f6e7320726573657276656420746f207472616e7366657221000000000000000081525060400191505060405180910390fd5b8073ffffffffffffffffffffffffffffffffffffffff166350c3ff578562005c48858573ffffffffffffffffffffffffffffffffffffffff16635ffe02828a6040518263ffffffff167c0100000000000000000000000000000000000000000000000000000000028152600401808273ffffffffffffffffffffffffffffffffffffffff1673ffffffffffffffffffffffffffffffffffffffff168152602001915050602060405180830381600087803b15801562005bfc57600080fd5b505af115801562005c11573d6000803e3d6000fd5b505050506040513d602081101562005c2857600080fd5b81019080805190602001909291905050506200691990919063ffffffff16565b6040518363ffffffff167c0100000000000000000000000000000000000000000000000000000000028152600401808373ffffffffffffffffffffffffffffffffffffffff1673ffffffffffffffffffffffffffffffffffffffff16815260200182815260200192505050600060405180830381600087803b15801562005cce57600080fd5b505af115801562005ce3573d6000803e3d6000fd5b505050508073ffffffffffffffffffffffffffffffffffffffff1663bd3cd5258562005df1858573ffffffffffffffffffffffffffffffffffffffff16637a7664608a6040518263ffffffff167c0100000000000000000000000000000000000000000000000000000000028152600401808273ffffffffffffffffffffffffffffffffffffffff1673ffffffffffffffffffffffffffffffffffffffff168152602001915050602060405180830381600087803b15801562005da557600080fd5b505af115801562005dba573d6000803e3d6000fd5b505050506040513d602081101562005dd157600080fd5b81019080805190602001909291905050506200691990919063ffffffff16565b6040518363ffffffff167c0100000000000000000000000000000000000000000000000000000000028152600401808373ffffffffffffffffffffffffffffffffffffffff1673ffffffffffffffffffffffffffffffffffffffff16815260200182815260200192505050600060405180830381600087803b15801562005e7757600080fd5b505af115801562005e8c573d6000803e3d6000fd5b505050508073ffffffffffffffffffffffffffffffffffffffff1663bd3cd5258462005f9a858573ffffffffffffffffffffffffffffffffffffffff16637a766460896040518263ffffffff167c0100000000000000000000000000000000000000000000000000000000028152600401808273ffffffffffffffffffffffffffffffffffffffff1673ffffffffffffffffffffffffffffffffffffffff168152602001915050602060405180830381600087803b15801562005f4e57600080fd5b505af115801562005f63573d6000803e3d6000fd5b505050506040513d602081101562005f7a57600080fd5b81019080805190602001909291905050506200693390919063ffffffff16565b6040518363ffffffff167c0100000000000000000000000000000000000000000000000000000000028152600401808373ffffffffffffffffffffffffffffffffffffffff1673ffffffffffffffffffffffffffffffffffffffff16815260200182815260200192505050600060405180830381600087803b1580156200602057600080fd5b505af115801562006035573d6000803e3d6000fd5b505050507f1b89874203ff7f0bba87c969ada3f32fda22ed38a6706d35199d21280c7811b1848484604051808473ffffffffffffffffffffffffffffffffffffffff1673ffffffffffffffffffffffffffffffffffffffff1681526020018373ffffffffffffffffffffffffffffffffffffffff1673ffffffffffffffffffffffffffffffffffffffff168152602001828152602001935050505060405180910390a150505050565b6000809054906101000a900473ffffffffffffffffffffffffffffffffffffffff1673ffffffffffffffffffffffffffffffffffffffff16638da5cb5b6040518163ffffffff167c0100000000000000000000000000000000000000000000000000000000028152600401602060405180830381600087803b1580156200616457600080fd5b505af115801562006179573d6000803e3d6000fd5b505050506040513d60208110156200619057600080fd5b810190808051906020019092919050505073ffffffffffffffffffffffffffffffffffffffff163373ffffffffffffffffffffffffffffffffffffffff161415156200626a576040517f08c379a00000000000000000000000000000000000000000000000000000000081526004018080602001828103825260298152602001807f46756e6374696f6e2063616e206f6e6c792062652063616c6c6564206279206881526020017f7562206f776e657221000000000000000000000000000000000000000000000081525060400191505060405180910390fd5b806003541415156200627e57806003819055505b50565b60008060009054906101000a900473ffffffffffffffffffffffffffffffffffffffff1673ffffffffffffffffffffffffffffffffffffffff166304433bbc6040518163ffffffff167c01000000000000000000000000000000000000000000000000000000000281526004018080602001828103825260078152602001807f486f6c64696e6700000000000000000000000000000000000000000000000000815250602001915050602060405180830381600087803b1580156200634557600080fd5b505af11580156200635a573d6000803e3d6000fd5b505050506040513d60208110156200637157600080fd5b810190808051906020019092919050505073ffffffffffffffffffffffffffffffffffffffff163373ffffffffffffffffffffffffffffffffffffffff161415156200644b576040517f08c379a00000000000000000000000000000000000000000000000000000000081526004018080602001828103825260308152602001807f46756e6374696f6e2063616e206f6e6c792062652063616c6c6564206279204881526020017f6f6c64696e6720636f6e7472616374210000000000000000000000000000000081525060400191505060405180910390fd5b600073ffffffffffffffffffffffffffffffffffffffff168373ffffffffffffffffffffffffffffffffffffffff16141515156200648857600080fd5b6000809054906101000a900473ffffffffffffffffffffffffffffffffffffffff1673ffffffffffffffffffffffffffffffffffffffff166304433bbc6040518163ffffffff167c010000000000000000000000000000000000000000000000000000000002815260040180806020018281038252600e8152602001807f50726f66696c6553746f72616765000000000000000000000000000000000000815250602001915050602060405180830381600087803b1580156200654a57600080fd5b505af11580156200655f573d6000803e3d6000fd5b505050506040513d60208110156200657657600080fd5b81019080805190602001909291905050509050818173ffffffffffffffffffffffffffffffffffffffff16635ffe0282856040518263ffffffff167c0100000000000000000000000000000000000000000000000000000000028152600401808273ffffffffffffffffffffffffffffffffffffffff1673ffffffffffffffffffffffffffffffffffffffff168152602001915050602060405180830381600087803b1580156200662657600080fd5b505af11580156200663b573d6000803e3d6000fd5b505050506040513d60208110156200665257600080fd5b81019080805190602001909291905050501015151562006700576040517f08c379a00000000000000000000000000000000000000000000000000000000081526004018080602001828103825260328152602001807f43616e6e6f742072656c65617365206d6f726520746f6b656e73207468616e2081526020017f746865726520617265207265736572766564000000000000000000000000000081525060400191505060405180910390fd5b8073ffffffffffffffffffffffffffffffffffffffff166350c3ff57846200680a858573ffffffffffffffffffffffffffffffffffffffff16635ffe0282896040518263ffffffff167c0100000000000000000000000000000000000000000000000000000000028152600401808273ffffffffffffffffffffffffffffffffffffffff1673ffffffffffffffffffffffffffffffffffffffff168152602001915050602060405180830381600087803b158015620067be57600080fd5b505af1158015620067d3573d6000803e3d6000fd5b505050506040513d6020811015620067ea57600080fd5b81019080805190602001909291905050506200691990919063ffffffff16565b6040518363ffffffff167c0100000000000000000000000000000000000000000000000000000000028152600401808373ffffffffffffffffffffffffffffffffffffffff1673ffffffffffffffffffffffffffffffffffffffff16815260200182815260200192505050600060405180830381600087803b1580156200689057600080fd5b505af1158015620068a5573d6000803e3d6000fd5b505050507fc7798891864187665ac6dd119286e44ec13f014527aeeb2b8eb3fd413df931798383604051808373ffffffffffffffffffffffffffffffffffffffff1673ffffffffffffffffffffffffffffffffffffffff1681526020018281526020019250505060405180910390a1505050565b60008282111515156200692857fe5b818303905092915050565b60008082840190508381101515156200694857fe5b8091505092915050565b60405161233c806200696483390190560060806040523480156200001157600080fd5b506040516040806200233c8339810180604052810190808051906020019092919080519060200190929190505050600080600073ffffffffffffffffffffffffffffffffffffffff168473ffffffffffffffffffffffffffffffffffffffff1614158015620000ad5750600073ffffffffffffffffffffffffffffffffffffffff168373ffffffffffffffffffffffffffffffffffffffff1614155b1515620000b957600080fd5b600160008190555082604051602001808273ffffffffffffffffffffffffffffffffffffffff1673ffffffffffffffffffffffffffffffffffffffff166c010000000000000000000000000281526014019150506040516020818303038152906040526040518082805190602001908083835b6020831015156200015357805182526020820191506020810190506020830392506200012c565b6001836020036101000a03801982511681845116808217855250505050505090500191505060405180910390209150816002600084600019166000191681526020019081526020016000206002018160001916905550600160026000846000191660001916815260200190815260200160002060010181905550608060405190810160405280600160ff168152602001600260ff168152602001600360ff168152602001600460ff168152506002600084600019166000191681526020019081526020016000206000019060046200022d92919062000695565b506003600060018152602001908152602001600020829080600181540180825580915050906001820390600052602060002001600090919290919091509060001916905550600360006002815260200190815260200160002082908060018154018082558091505090600182039060005260206000200160009091929091909150906000191690555060036000600381526020019081526020016000208290806001815401808255809150509060018203906000526020600020016000909192909190915090600019169055506003600060048152602001908152602001600020829080600181540180825580915050906001820390600052602060002001600090919290919091509060001916905550600182600019167fe5b96345754b4b918f72e77b7ab261725bce3e956dc95888b754048d13f608de60026000866000191660001916815260200190815260200160002060000160405180806020018281038252838181548152602001915080548015620003cb57602002820191906000526020600020905b815481526020019060010190808311620003b6575b50509250505060405180910390a38273ffffffffffffffffffffffffffffffffffffffff168473ffffffffffffffffffffffffffffffffffffffff161415156200068b5783604051602001808273ffffffffffffffffffffffffffffffffffffffff1673ffffffffffffffffffffffffffffffffffffffff166c010000000000000000000000000281526014019150506040516020818303038152906040526040518082805190602001908083835b602083101515620004a157805182526020820191506020810190506020830392506200047a565b6001836020036101000a038019825116818451168082178552505050505050905001915050604051809103902090508060026000836000191660001916815260200190815260200160002060020181600019169055506001600260008360001916600019168152602001908152602001600020600101819055506040805190810160405280600260ff168152602001600460ff1681525060026000836000191660001916815260200190815260200160002060000190600262000566929190620006ec565b5060036000600281526020019081526020016000208190806001815401808255809150509060018203906000526020600020016000909192909190915090600019169055506003600060048152602001908152602001600020819080600181540180825580915050906001820390600052602060002001600090919290919091509060001916905550600181600019167fe5b96345754b4b918f72e77b7ab261725bce3e956dc95888b754048d13f608de600260008560001916600019168152602001908152602001600020600001604051808060200182810382528381815481526020019150805480156200067c57602002820191906000526020600020905b81548152602001906001019080831162000667575b50509250505060405180910390a35b505050506200076b565b828054828255906000526020600020908101928215620006d9579160200282015b82811115620006d8578251829060ff16905591602001919060010190620006b6565b5b509050620006e8919062000743565b5090565b82805482825590600052602060002090810192821562000730579160200282015b828111156200072f578251829060ff169055916020019190600101906200070d565b5b5090506200073f919062000743565b5090565b6200076891905b80821115620007645760008160009055506001016200074a565b5090565b90565b611bc1806200077b6000396000f300608060405260043610610099576000357c0100000000000000000000000000000000000000000000000000000000900463ffffffff16806312aaac701461009e57806322a213301461013a578063747442d314610165578063862642f5146101b65780639010f726146101ff578063a820f50a14610281578063b61d27f6146102ec578063d202158d14610393578063fb307b34146103e6575b600080fd5b3480156100aa57600080fd5b506100cd600480360381019080803560001916906020019092919050505061046c565b60405180806020018481526020018360001916600019168152602001828103825285818151815260200191508051906020019060200280838360005b83811015610124578082015181840152602081019050610109565b5050505090500194505050505060405180910390f35b34801561014657600080fd5b5061014f61052c565b6040518082815260200191505060405180910390f35b34801561017157600080fd5b5061019c60048036038101908080359060200190929190803515159060200190929190505050610532565b604051808215151515815260200191505060405180910390f35b3480156101c257600080fd5b506101e56004803603810190808035600019169060200190929190505050610c92565b604051808215151515815260200191505060405180910390f35b34801561020b57600080fd5b5061022a60048036038101908080359060200190929190505050611093565b6040518080602001828103825283818151815260200191508051906020019060200280838360005b8381101561026d578082015181840152602081019050610252565b505050509050019250505060405180910390f35b34801561028d57600080fd5b506102d2600480360381019080803560001916906020019092919080359060200190820180359060200191909192939192939080359060200190929190505050611102565b604051808215151515815260200191505060405180910390f35b3480156102f857600080fd5b5061037d600480360381019080803573ffffffffffffffffffffffffffffffffffffffff16906020019092919080359060200190929190803590602001908201803590602001908080601f016020809104026020016040519081016040528093929190818152602001838380828437820191505050505050919291929050505061137a565b6040518082815260200191505060405180910390f35b34801561039f57600080fd5b506103cc6004803603810190808035600019169060200190929190803590602001909291905050506116cf565b604051808215151515815260200191505060405180910390f35b3480156103f257600080fd5b506104156004803603810190808035600019169060200190929190505050611712565b6040518080602001828103825283818151815260200191508051906020019060200280838360005b8381101561045857808201518184015260208101905061043d565b505050509050019250505060405180910390f35b606060008060026000856000191660001916815260200190815260200160002060000160026000866000191660001916815260200190815260200160002060010154600260008760001916600019168152602001908152602001600020600201548280548060200260200160405190810160405280929190818152602001828054801561051857602002820191906000526020600020905b815481526020019060010190808311610504575b505050505092509250925092509193909250565b60005481565b60008060006004600086815260200190815260200160002060000160009054906101000a900473ffffffffffffffffffffffffffffffffffffffff169150610627600460008781526020019081526020016000206002018054600181600116156101000203166002900480601f01602080910402602001604051908101604052809291908181526020018280546001816001161561010002031660029004801561061d5780601f106105f25761010080835404028352916020019161061d565b820191906000526020600020905b81548152906001019060200180831161060057829003601f168201915b5050505050611788565b90503073ffffffffffffffffffffffffffffffffffffffff168273ffffffffffffffffffffffffffffffffffffffff1614156108a25763a820f50a7c010000000000000000000000000000000000000000000000000000000002817bffffffffffffffffffffffffffffffffffffffffffffffffffffffff191614806106ee575063862642f57c010000000000000000000000000000000000000000000000000000000002817bffffffffffffffffffffffffffffffffffffffffffffffffffffffff1916145b156107ca576107ba33604051602001808273ffffffffffffffffffffffffffffffffffffffff1673ffffffffffffffffffffffffffffffffffffffff166c010000000000000000000000000281526014019150506040516020818303038152906040526040518082805190602001908083835b6020831015156107865780518252602082019150602081019050602083039250610761565b6001836020036101000a038019825116818451168082178552505050505050905001915050604051809103902060016116cf565b15156107c557600080fd5b61089d565b61089133604051602001808273ffffffffffffffffffffffffffffffffffffffff1673ffffffffffffffffffffffffffffffffffffffff166c010000000000000000000000000281526014019150506040516020818303038152906040526040518082805190602001908083835b60208310151561085d5780518252602082019150602081019050602083039250610838565b6001836020036101000a038019825116818451168082178552505050505050905001915050604051809103902060026116cf565b151561089c57600080fd5b5b610975565b61096933604051602001808273ffffffffffffffffffffffffffffffffffffffff1673ffffffffffffffffffffffffffffffffffffffff166c010000000000000000000000000281526014019150506040516020818303038152906040526040518082805190602001908083835b6020831015156109355780518252602082019150602081019050602083039250610910565b6001836020036101000a038019825116818451168082178552505050505050905001915050604051809103902060026116cf565b151561097457600080fd5b5b847fb3932da477fe5d6c8ff2eafef050c0f3a1af18fc07121001482600f36f3715d885604051808215151515815260200191505060405180910390a2600115158415151415610c565760016004600087815260200190815260200160002060030160006101000a81548160ff0219169083151502179055506004600086815260200190815260200160002060000160009054906101000a900473ffffffffffffffffffffffffffffffffffffffff1673ffffffffffffffffffffffffffffffffffffffff166004600087815260200190815260200160002060010154600460008881526020019081526020016000206002016040518082805460018160011615610100020316600290048015610acc5780601f10610aa157610100808354040283529160200191610acc565b820191906000526020600020905b815481529060010190602001808311610aaf57829003601f168201915b505091505060006040518083038185875af19250505092508215610c515760016004600087815260200190815260200160002060030160016101000a81548160ff02191690831515021790555060046000868152602001908152602001600020600101546004600087815260200190815260200160002060000160009054906101000a900473ffffffffffffffffffffffffffffffffffffffff1673ffffffffffffffffffffffffffffffffffffffff16867f1f920dbda597d7bf95035464170fa58d0a4b57f13a1c315ace6793b9f63688b8600460008a81526020019081526020016000206002016040518080602001828103825283818154600181600116156101000203166002900481526020019150805460018160011615610100020316600290048015610c3e5780601f10610c1357610100808354040283529160200191610c3e565b820191906000526020600020905b815481529060010190602001808311610c2157829003601f168201915b50509250505060405180910390a4610c8a565b610c8a565b60006004600087815260200190815260200160002060030160006101000a81548160ff021916908315150217905550600192505b505092915050565b6000806000610d5e33604051602001808273ffffffffffffffffffffffffffffffffffffffff1673ffffffffffffffffffffffffffffffffffffffff166c010000000000000000000000000281526014019150506040516020818303038152906040526040518082805190602001908083835b602083101515610d2a5780518252602082019150602081019050602083039250610d05565b6001836020036101000a038019825116818451168082178552505050505050905001915050604051809103902060016116cf565b1515610d6957600080fd5b600060010260001916846000191614151515610d8457600080fd5b83600019166002600086600019166000191681526020019081526020016000206002015460001916141515610db857600080fd5b6001600360006001815260200190815260200160002080549050148015610de65750610de58460016116cf565b5b151515610e81576040517f08c379a00000000000000000000000000000000000000000000000000000000081526004018080602001828103825260228152602001807f43616e6e6f742064656c657465206f6e6c79206d616e6167656d656e74206b6581526020017f792100000000000000000000000000000000000000000000000000000000000081525060400191505060405180910390fd5b6002600085600019166000191681526020019081526020016000206001015460026000866000191660001916815260200190815260200160002060020154600019167f8b4b1134f379fbe0fcf31b9ff43aa8003df39c09d09bd06671288e1b0a1f2b4a60026000886000191660001916815260200190815260200160002060000160405180806020018281038252838181548152602001915080548015610f4757602002820191906000526020600020905b815481526020019060010190808311610f33575b50509250505060405180910390a3600091505b6002600085600019166000191681526020019081526020016000206000018054905082101561104a57610fdd846003600060026000896000191660001916815260200190815260200160002060000186815481101515610fb657fe5b9060005260206000200154815260200190815260200160002061187e90919063ffffffff16565b508091505061103c81600360006002600089600019166000191681526020019081526020016000206000018681548110151561101557fe5b906000526020600020015481526020019081526020016000206118e790919063ffffffff16565b508180600101925050610f5a565b600260008560001916600019168152602001908152602001600020600080820160006110769190611a31565b600182016000905560028201600090555050600192505050919050565b6060600360008381526020019081526020016000208054806020026020016040519081016040528092919081815260200182805480156110f657602002820191906000526020600020905b815460001916815260200190600101908083116110de575b50505050509050919050565b6000806111cc33604051602001808273ffffffffffffffffffffffffffffffffffffffff1673ffffffffffffffffffffffffffffffffffffffff166c010000000000000000000000000281526014019150506040516020818303038152906040526040518082805190602001908083835b6020831015156111985780518252602082019150602081019050602083039250611173565b6001836020036101000a038019825116818451168082178552505050505050905001915050604051809103902060016116cf565b15156111d757600080fd5b6000600102600019168660001916141515156111f257600080fd5b856000191660026000886000191660001916815260200190815260200160002060020154600019161415151561122757600080fd5b8560026000886000191660001916815260200190815260200160002060020181600019169055508484600260008960001916600019168152602001908152602001600020600001919061127b929190611a52565b508260026000886000191660001916815260200190815260200160002060010181905550600090505b84849050811015611313576003600086868481811015156112c157fe5b90506020020135815260200190815260200160002086908060018154018082558091505090600182039060005260206000200160009091929091909150906000191690555080806001019150506112a4565b8286600019167fe5b96345754b4b918f72e77b7ab261725bce3e956dc95888b754048d13f608de8787604051808060200182810382528484828181526020019250602002808284378201915050935050505060405180910390a36001915050949350505050565b600060046000600154815260200190815260200160002060030160019054906101000a900460ff161515156113ae57600080fd5b8360046000600154815260200190815260200160002060000160006101000a81548173ffffffffffffffffffffffffffffffffffffffff021916908373ffffffffffffffffffffffffffffffffffffffff160217905550826004600060015481526020019081526020016000206001018190555081600460006001548152602001908152602001600020600201908051906020019061144e929190611a9f565b5061151633604051602001808273ffffffffffffffffffffffffffffffffffffffff1673ffffffffffffffffffffffffffffffffffffffff166c010000000000000000000000000281526014019150506040516020818303038152906040526040518082805190602001908083835b6020831015156114e257805182526020820191506020810190506020830392506114bd565b6001836020036101000a038019825116818451168082178552505050505050905001915050604051809103902060016116cf565b806115e457506115e333604051602001808273ffffffffffffffffffffffffffffffffffffffff1673ffffffffffffffffffffffffffffffffffffffff166c010000000000000000000000000281526014019150506040516020818303038152906040526040518082805190602001908083835b6020831015156115af578051825260208201915060208101905060208303925061158a565b6001836020036101000a038019825116818451168082178552505050505050905001915050604051809103902060026116cf565b5b156115f8576115f66001546001610532565b505b828473ffffffffffffffffffffffffffffffffffffffff166001547f8afcfabcb00e47a53a8fc3e9f23ff47ee1926194bb1350dd007c50b412a6cee8856040518080602001828103825283818151815260200191508051906020019080838360005b8381101561167557808201518184015260208101905061165a565b50505050905090810190601f1680156116a25780820380516001836020036101000a031916815260200191505b509250505060405180910390a4600160008154809291906001019190505550600180540390509392505050565b600080611702836002600087600019166000191681526020019081526020016000206000016119d090919063ffffffff16565b9050809150508091505092915050565b606060026000836000191660001916815260200190815260200160002060000180548060200260200160405190810160405280929190818152602001828054801561177c57602002820191906000526020600020905b815481526020019060010190808311611768575b50505050509050919050565b60008060008090505b6004811015611874576008810260ff7f01000000000000000000000000000000000000000000000000000000000000000285838151811015156117d057fe5b9060200101517f010000000000000000000000000000000000000000000000000000000000000090047f010000000000000000000000000000000000000000000000000000000000000002167effffffffffffffffffffffffffffffffffffffffffffffffffffffffffffff19167bffffffffffffffffffffffffffffffffffffffffffffffffffffffff19169060020a9004821791508080600101915050611791565b8192505050919050565b60008060008090505b84805490508110156118d457836000191685828154811015156118a657fe5b90600052602060002001546000191614156118c757806001925092506118df565b8080600101915050611887565b600080819150925092505b509250929050565b60608280549050821015156118fb576119ca565b82600184805490500381548110151561191057fe5b9060005260206000200154838381548110151561192957fe5b90600052602060002001816000191690555082600184805490500381548110151561195057fe5b9060005260206000200160009055600183805490500383816119729190611b1f565b50828054806020026020016040519081016040528092919081815260200182805480156119c257602002820191906000526020600020905b815460001916815260200190600101908083116119aa575b505050505090505b92915050565b60008060008090505b8480549050811015611a1e578385828154811015156119f457fe5b90600052602060002001541415611a115780600192509250611a29565b80806001019150506119d9565b600080819150925092505b509250929050565b5080546000825590600052602060002090810190611a4f9190611b4b565b50565b828054828255906000526020600020908101928215611a8e579160200282015b82811115611a8d578235825591602001919060010190611a72565b5b509050611a9b9190611b4b565b5090565b828054600181600116156101000203166002900490600052602060002090601f016020900481019282601f10611ae057805160ff1916838001178555611b0e565b82800160010185558215611b0e579182015b82811115611b0d578251825591602001919060010190611af2565b5b509050611b1b9190611b4b565b5090565b815481835581811115611b4657818360005260206000209182019101611b459190611b70565b5b505050565b611b6d91905b80821115611b69576000816000905550600101611b51565b5090565b90565b611b9291905b80821115611b8e576000816000905550600101611b76565b5090565b905600a165627a7a723058209e476b403bf16561d40a1f32305aec97dd2785041693797eab618987cc14ee820029a165627a7a723058206c7548faa36a73851b89a43502ad8d10cf810dd2b0d2978b0acfcabe6b3005d10029",
  "source": "pragma solidity ^0.4.23;\n\nimport {SafeMath} from './SafeMath.sol';\nimport {ProfileStorage} from './ProfileStorage.sol';\nimport {Ownable, Hub} from './Hub.sol';\nimport {Identity, ERC725} from './Identity.sol';\nimport {ERC20} from './TracToken.sol';\n\n\ncontract Profile {\n    using SafeMath for uint256;\n    Hub public hub;\n\n    uint256 public version = 101;\n\n    uint256 public minimalStake = 3*10**21;\n    uint256 public withdrawalTime = 5 minutes;\n\n    constructor(address hubAddress) public {\n        require(hubAddress != address(0));\n        hub = Hub(hubAddress);\n    }\n\n    modifier onlyHolding(){\n        require(msg.sender == hub.getContractAddress(\"Holding\"),\n        \"Function can only be called by Holding contract!\");\n        _;\n    }\n\n    event ProfileCreated(address profile, uint256 initialBalance);\n    event IdentityCreated(address profile, address newIdentity);\n    event IdentityTransferred(bytes20 nodeId, address oldIdentity, address newIdentity);\n    event TokenDeposit(address profile, uint256 amount);\n\n    event TokensDeposited(address profile, uint256 amountDeposited, uint256 newBalance);\n    event TokensReserved(address profile, uint256 amountReserved);\n\n    event WithdrawalInitiated(address profile, uint256 amount, uint256 withdrawalDelayInSeconds);\n    event TokenWithdrawalCancelled(address profile);\n    event TokensWithdrawn(address profile, uint256 amountWithdrawn, uint256 newBalance);\n\n    event TokensReleased(address profile, uint256 amount);\n    event TokensTransferred(address sender, address receiver, uint256 amount);\n\n    function createProfile(address managementWallet, bytes32 profileNodeId, uint256 initialBalance, bool senderHas725, address identity) public {\n        require(managementWallet!=address(0));\n        ERC20 tokenContract = ERC20(hub.tokenAddress());\n        require(tokenContract.allowance(msg.sender, this) >= initialBalance, \"Sender allowance must be equal to or higher than initial balance\");\n        require(tokenContract.balanceOf(msg.sender) >= initialBalance, \"Sender balance must be equal to or higher than initial balance!\");\n        require(uint256(profileNodeId) != 0, \"Cannot create a profile without a nodeId submitted\");\n\n        tokenContract.transferFrom(msg.sender, hub.getContractAddress(\"ProfileStorage\"), initialBalance);\n\n        if(!senderHas725) {\n            Identity newIdentity = new Identity(msg.sender, managementWallet);\n            emit IdentityCreated(msg.sender, address(newIdentity));\n\n            ProfileStorage(hub.getContractAddress(\"ProfileStorage\")).setStake(address(newIdentity), initialBalance);\n            ProfileStorage(hub.getContractAddress(\"ProfileStorage\")).setNodeId(address(newIdentity), profileNodeId);\n\n            emit ProfileCreated(address(newIdentity), initialBalance);\n        }\n        else {\n            // Verify sender\n            require(ERC725(identity).keyHasPurpose(keccak256(abi.encodePacked(msg.sender)), 2),  \"Sender does not have action permission for identity!\");\n\n            ProfileStorage(hub.getContractAddress(\"ProfileStorage\")).setStake(identity, initialBalance);\n            ProfileStorage(hub.getContractAddress(\"ProfileStorage\")).setNodeId(identity, profileNodeId);\n\n            emit ProfileCreated(identity, initialBalance);\n        }\n\n        if(initialBalance > minimalStake) {\n            uint256 activeNodes = ProfileStorage(hub.getContractAddress(\"ProfileStorage\")).activeNodes();\n            activeNodes += 1;\n            ProfileStorage(hub.getContractAddress(\"ProfileStorage\")).setActiveNodes(activeNodes);\n        }\n    }\n\n    function transferProfile(address oldIdentity, address managementWallet) public returns(address){\n        require(ERC725(oldIdentity).keyHasPurpose(keccak256(abi.encodePacked(msg.sender)), 1),  \"Sender does not have management permission for identity!\");\n        require(managementWallet != address(0));\n\n        Identity newIdentity = new Identity(msg.sender, managementWallet);\n        emit IdentityCreated(msg.sender, address(newIdentity));\n\n        ProfileStorage profileStorage = ProfileStorage(hub.getContractAddress(\"ProfileStorage\"));\n\n        profileStorage.setStake(address(newIdentity), profileStorage.getStake(oldIdentity));\n        profileStorage.setStakeReserved(address(newIdentity), profileStorage.getStakeReserved(oldIdentity));\n        profileStorage.setNodeId(address(newIdentity), profileStorage.getNodeId(oldIdentity));\n        profileStorage.setReputation(address(newIdentity), profileStorage.getReputation(oldIdentity));\n\n        if(profileStorage.getWithdrawalPending(oldIdentity)){\n            emit TokenWithdrawalCancelled(oldIdentity);\n            profileStorage.setWithdrawalPending(oldIdentity, false);\n        }\n\n        profileStorage.setStake(oldIdentity, 0);\n        profileStorage.setStakeReserved(oldIdentity, 0);\n        profileStorage.setNodeId(oldIdentity, bytes32(0));\n        profileStorage.setReputation(oldIdentity, 0);\n\n        emit IdentityTransferred(bytes20(profileStorage.getNodeId(address(newIdentity))), oldIdentity, address(newIdentity));\n        return address(newIdentity);\n    }\n\n    function depositTokens(address identity, uint256 amount) public {\n        // Verify sender\n        require(ERC725(identity).keyHasPurpose(keccak256(abi.encodePacked(msg.sender)), 1),  \"Sender does not have management permission for identity!\");\n\n        ProfileStorage profileStorage = ProfileStorage(hub.getContractAddress(\"ProfileStorage\"));\n\n        ERC20 tokenContract = ERC20(hub.getContractAddress(\"Token\"));\n        require(tokenContract.allowance(msg.sender, this) >= amount, \"Sender allowance must be equal to or higher than chosen amount\");\n        require(tokenContract.balanceOf(msg.sender) >= amount, \"Sender balance must be equal to or higher than chosen amount!\");\n\n        tokenContract.transferFrom(msg.sender, address(profileStorage), amount);\n\n        profileStorage.setStake(identity, profileStorage.getStake(identity).add(amount));\n\n        emit TokensDeposited(identity, amount, profileStorage.getStake(identity));\n    }\n\n    function startTokenWithdrawal(address identity, uint256 amount) public {\n        // Verify sender\n        require(ERC725(identity).keyHasPurpose(keccak256(abi.encodePacked(msg.sender)), 1),  \"Sender does not have management permission for identity!\");\n\n        ProfileStorage profileStorage = ProfileStorage(hub.getContractAddress(\"ProfileStorage\"));\n\n        require(profileStorage.getWithdrawalPending(identity) == false, \"Withrdrawal process already pending!\");\n\n        uint256 availableBalance = profileStorage.getStake(identity).sub(profileStorage.getStakeReserved(identity));\n\n        profileStorage.setWithdrawalPending(identity, true);\n        profileStorage.setWithdrawalTimestamp(identity, block.timestamp + withdrawalTime);\n        if(availableBalance >= amount) {\n            // Reserve chosen token amount\n            profileStorage.setWithdrawalAmount(identity, amount);\n            emit WithdrawalInitiated(identity, amount, withdrawalTime);\n        }\n        else {\n            // Reserve only the available balance\n            profileStorage.setWithdrawalAmount(identity, availableBalance);\n            emit WithdrawalInitiated(identity, availableBalance, withdrawalTime);\n        }\n    }\n\n    function withdrawTokens(address identity) public {\n        // Verify sender\n        require(ERC725(identity).keyHasPurpose(keccak256(abi.encodePacked(msg.sender)), 1),  \"Sender does not have management permission for identity!\");\n\n        ProfileStorage profileStorage = ProfileStorage(hub.getContractAddress(\"ProfileStorage\"));\n\n        require(profileStorage.getWithdrawalPending(identity) == true, \"Cannot withdraw tokens before starting token withdrawal!\");\n        require(profileStorage.getWithdrawalTimestamp(identity) < block.timestamp, \"Cannot withdraw tokens before withdrawal timestamp!\");\n\n        // Transfer already reserved tokens to user identity\n        profileStorage.transferTokens(msg.sender, profileStorage.getWithdrawalAmount(identity));\n        \n        profileStorage.setStake(\n            identity,\n            profileStorage.getStake(identity).sub(profileStorage.getWithdrawalAmount(identity))\n        );\n\n        profileStorage.setWithdrawalPending(identity, false);\n        \n        emit TokensWithdrawn(\n            identity,\n            profileStorage.getWithdrawalAmount(identity),\n            profileStorage.getStake(identity)\n        );\n    }\n\n    function setNodeId(address identity, bytes32 newNodeId)\n    public {\n         // Verify sender\n        require(ERC725(identity).keyHasPurpose(keccak256(abi.encodePacked(msg.sender)), 2),\n            \"Sender does not have action permission for submitted identity\");\n        require(uint256(newNodeId) != 0, \"Cannot set a blank nodeId\");\n\n        ProfileStorage(hub.getContractAddress(\"ProfileStorage\")).setNodeId(identity, newNodeId);\n    }\n\n    function releaseTokens(address profile, uint256 amount)\n    public onlyHolding {\n        require(profile!=address(0));\n        ProfileStorage profileStorage = ProfileStorage(hub.getContractAddress(\"ProfileStorage\"));\n\n        require(profileStorage.getStakeReserved(profile) >= amount, \"Cannot release more tokens than there are reserved\");\n\n        profileStorage.setStakeReserved(profile, profileStorage.getStakeReserved(profile).sub(amount));\n\n        emit TokensReleased(profile, amount);\n    }\n    \n    function transferTokens(address sender, address receiver, uint256 amount)\n    public onlyHolding {\n        require(sender!=address(0) && receiver!=address(0));\n        ProfileStorage profileStorage = ProfileStorage(hub.getContractAddress(\"ProfileStorage\"));\n\n        require(profileStorage.getStake(sender) >= amount, \"Sender does not have enough tokens to transfer!\");\n        require(profileStorage.getStakeReserved(sender) >= amount, \"Sender does not have enough tokens reserved to transfer!\");\n\n        profileStorage.setStakeReserved(sender, profileStorage.getStakeReserved(sender).sub(amount));\n        profileStorage.setStake(sender, profileStorage.getStake(sender).sub(amount));\n        profileStorage.setStake(receiver, profileStorage.getStake(receiver).add(amount));\n\n        emit TokensTransferred(sender, receiver, amount);\n    }\n\n    function setMinimalStake(uint256 newMinimalStake) \n    public {\n        require (msg.sender == hub.owner(), \"Function can only be called by hub owner!\");\n        if(minimalStake != newMinimalStake) minimalStake = newMinimalStake;\n    }\n\n    function setWithdrawalTime(uint256 newWithdrawalTime) \n    public {\n        require (msg.sender == hub.owner(), \"Function can only be called by hub owner!\");\n        if(withdrawalTime != newWithdrawalTime) withdrawalTime = newWithdrawalTime;\n    }\n}",
  "sourcePath": "/Users/miloskotlar/starfleet-node/tests/truffle-tests/contracts/Profile.sol",
  "compiler": {
    "name": "solc",
    "version": "0.4.26+commit.4563c3fc.Emscripten.clang"
  },
  "schemaVersion": "3.0.16",
  "updatedAt": "2021-02-11T16:12:13.936Z",
  "devdoc": {
    "methods": {}
  },
  "userdoc": {
    "methods": {}
  }
}